:020000040002F8
:1060000008760020DD630200E5630200E76302001A
:10601000E9630200EB630200ED6302000000000090
:10602000000000000000000000000000EF6302001C
:10603000F163020000000000F3630200F563020058
:10604000DD670200F7630200C56A0200F763020021
:10605000F7630200F7630200C5650200F763020000
:10606000F7630200F7630200F7630200F7630200C0
:10607000F763020035680200F7630200F76302006D
:10608000F76302005D680200F7630200F763020035
:10609000E1680200F7630200E5680200F7630200AE
:1060A000F7630200F7630200F7630200F763020080
:1060B000F7630200F7630200000000000000000028
:1060C000F7630200F7630200F7630200F763020060
:1060D000F7630200F7630200F7630200F763020050
:1060E000F7630200F7630200F7630200000000009C
:1060F00000000000F763020000000000F7630200E8
:10610000000000000000000000000000000000008F
:10611000000000000000000000000000000000007F
:10612000000000000000000000000000000000006F
:10613000000000000000000000000000000000005F
:10614000000000000000000000000000000000004F
:10615000000000000000000000000000000000003F
:10616000000000000000000000000000000000002F
:10617000000000000000000000000000000000001F
:10618000000000000000000000000000000000000F
:1061900000000000000000000000000000000000FF
:1061A00000000000000000000000000000000000EF
:1061B00000000000000000000000000000000000DF
:1061C00000000000000000000000000000000000CF
:1061D00000000000000000000000000000000000BF
:1061E00000000000000000000000000000000000AF
:1061F000000000000000000000000000000000009F
:10620000DFF80CD000F0A0F90048004749AE0200CA
:106210000876002000B583B002900091019244F20C
:10622000010071466A4600F09BFF03B000BD00000C
:1062300030B450E8012F93B2C48923448489A34227
:1062400028BF1B1B0489A34202BFBFF32F8F00206E
:1062500007E0C3EA020340E80134002CE9D14FF023
:1062600001000A6030BC704750E8012FC2EA0242C8
:1062700040E801210029F7D1704730B450E8022FDF
:106280001FFAA2F3C488A34202BFBFF32F8F0020DE
:106290000DE0C48923448489A34228BF1B1BC2EAA2
:1062A000034340E80234002CE8D14FF001000A60BB
:1062B00030BC704750E8022FC2EA224240E8022177
:1062C0000029F7D17047034653E8022FD988B2EB73
:1062D000324F4FF0000017BF92B241EA014142EA4B
:1062E000014104E05A68B2EB324F08BF012043E895
:1062F0000212002AE8D1704730B4044654E8000F77
:106300000D4644E80053002BF8D1156030BC7047AF
:1063100030B4044654E8000F40EA010544E8005355
:10632000002BF7D1156030BC704730B4044654E8F8
:10633000000F00EA010544E80053002BF7D1156077
:1063400030BC704730B4044654E8000F80EA0105C1
:1063500044E80053002BF7D1156030BC704730B4CF
:10636000044654E8000F00EB010544E80053002BFD
:10637000F7D1156030BC704730B4044654E8000FC4
:10638000A0EB010544E80053002BF7D1156030BCA9
:10639000704770B404464FF0000054E8006F0D6879
:1063A000AE4207BF44E80023012044E800630E60CA
:1063B000002B1CBF0020F0E770BC704730B40446CF
:1063C00054E8000F88422CBF451A054644E80053A4
:1063D000002BF5D1156030BC70470000064880479F
:1063E00006480047FEE7FEE7FEE7FEE7FEE7FEE7BA
:1063F000FEE7FEE7FEE7FEE7E96802000162020051
:106400002DE9F05F0546002092469B4688460646E9
:10641000814640241BE0284641464746224600F07C
:1064200082F853465A46C01A914110D31146184675
:10643000224600F016F82D1A67EB01084F46224657
:106440000120002100F00DF817EB00094E41201E3D
:10645000A4F10104DFDC484631462A464346BDE844
:10646000F09F202A04DB203A00FA02F10020704756
:106470009140C2F1200320FA03F319439040704782
:1064800000487047382E030040EA01039B0703D001
:1064900009E008C9121F08C0042AFAD203E011F863
:1064A000013B00F8013B521EF9D27047D2B201E025
:1064B00000F8012B491EFBD270470022F6E710B509
:1064C00013460A4604461946FFF7F0FF204610BD62
:1064D000421C10F8011B0029FBD1801A704710B52F
:1064E000002200E0521C835C8C5CA34201D1002B93
:1064F000F8D1D8B2E1B2401A10BD30B50446002040
:10650000034600E05B1C934203D2E05CCD5C401B81
:10651000F8D030BD034611F8012B00F8012B002AFA
:10652000F9D118467047202A04DB203A21FA02F0FC
:106530000021704721FA02F3D040C2F120029140BD
:106540000843194670470000064C074D06E0E06816
:1065500040F0010394E8070098471034AC42F6D3AA
:10656000FFF752FEB0470300D047030070B58C1808
:1065700010F8015B15F0070301D110F8013B2A1157
:1065800006D110F8012B03E010F8016B01F8016B44
:106590005B1EF9D12B0705D40023521E0DD401F840
:1065A000013BFAE710F8013BCB1A921C03E013F809
:1065B000015B01F8015B521EF9D5A142D8D300203E
:1065C00070BD00002DE9F04F00268DB0DFF8A081EE
:1065D000B14604964FF48075012437460596284647
:1065E00006F040FA38B1D8F80403204203D0284618
:1065F00006F02EFA26432D1D64007F1CADB2082F35
:10660000EDD34FF4BE74204606F02CFA48B1204674
:1066100006F01EFA46F0004604AA0221002006F009
:1066200001FA544C16F0FF0F15D001270025374210
:106630000DD008EB8501D1F81005D1F81015C0F385
:10664000052054F82520C1F3014102B190477F0095
:106650006D1C082DEBD3002E7EDA0020CDF828909B
:10666000411E0DF1100B07AACDF82C9042F8201016
:10667000401C91460228F9D300252E46A11911F895
:10668000607F91F9000027F0C008401C40D007A9A6
:10669000404605F040F840B34FEA971A404602F0F2
:1066A0005FFA54F820701FB1BAF1030F03D006E06F
:1066B000BAF1030F2CD10AA9404605F034F802A81C
:1066C000CDF8088006F052F9029900EB8100D0F86D
:1066D000000704A9C0F301400290404605F01BF8F2
:1066E0000028029802D0022802D011E003280FD11E
:1066F000BAF1030F08D10298022833D00221404694
:1067000006F00EF96D1CEDB217B151464046B84780
:10671000761C042EB2D3002D21D001AA0221002024
:1067200006F080F900205A460DF1040152F820606D
:1067300051F82030B34217D000200AAE4FEA0903C7
:1067400051F8207042F8207056F8207043F82070FD
:10675000401C0228F4D300E001E0002D8CD10DB0E4
:10676000BDE8F08F0321CAE7401C0228DED3F6E71C
:10677000006000404039002000F01F0201219140DC
:106780004009800000F1E020C0F88012704700F05E
:106790001F02012191404009800000F1E020C0F873
:1067A0000011704700F01F02012191404009800054
:1067B00000F1E020C0F8001270474907090E0028D8
:1067C00006DA00F00F0000F1E02080F8141D704799
:1067D00000F1E02080F800147047000070B54FF41D
:1067E0008076304605F00AFC114CB50560B13046A4
:1067F00005F00BFC0120C5F80803607920B90120E1
:1068000060712168002088474FF48276304605F099
:10681000F5FB00280AD0304605F0F7FB0220C5F84A
:1068200008032168BDE870400120084770BD0000E2
:10683000E02E0020064882B0002101600068009030
:10684000044800680449C0B2496802B00847000023
:1068500000D1004008D50040F02E0020074800215C
:10686000C0F84011C0F84411C0F84811C0F84C11EC
:10687000C0F80011C0F804110BF078B90010014005
:1068800000F026B970B50E46144900EB400001EB4C
:10689000C0051446E86A183520B101280FD0022837
:1068A00005D113E0284600F047F9A04201D20024A8
:1068B00011E022463146284600F076F90BE02846E2
:1068C00000F03AF9A042F4D20446F2E731462846F5
:1068D00000F03DF90446204670BD0000BC42002097
:1068E0000BF092B806F042BF30B54FF08050002256
:1068F0008300D0F83011C3F80C21C3F81021624B8B
:106900001A60624B1B68624C2360604B1B1D1B6846
:10691000241D23605D4B08331B68241D23605B4BE3
:106920000C331B68241D2360584B10331B68241D37
:106930002360564B14331B68241D2360534B1833BC
:106940001B68534C20342360504B1C331B68241DA0
:1069500023604E4B20331B68241D23604B4B243394
:106960001B68241D2360494B28331B68241D2360AA
:10697000464B2C331B68241D2360444B30331B686B
:10698000434C40342360414B34331B68241D236047
:106990003E4B38331B68241D23603C4B3C331B6843
:1069A000241D2360394B40331B68241D23600124C0
:1069B000082902D1D0F8343113B1082904D006E0F7
:1069C000354B3449196005E0D0F8343113B108294A
:1069D00004D006E0314BFB21196005E0D0F83431DA
:1069E00013B1082908D00EE090F858322C480168FD
:1069F00063F30301016002E0D0F834311BB9294987
:106A00004FF40070086028480168C90702D06FF091
:106A1000010101602548016841F470010160BFF384
:106A20004F8FBFF36F8F4FF01021D1F80002002875
:106A300003DBD1F80402002822DA1D4B1C601D483C
:106A40000468002CFCD01224C1F800420568002D17
:106A5000FCD0C1F8044201680029FCD01A6001682A
:106A60000029FCD0BFF34F8F10487C380168124AD0
:106A700001F4E06111430160BFF34F8F00BFFDE7F8
:106A80000F490E48086030BD38050040040400106E
:106A900020C50040488103008C56004018F5004096
:106AA000E40E0040409602400004004088ED00E003
:106AB00004E5014000E401400400FA050090D00321
:106AC000F42F00200148006800470000E82E002055
:106AD00010B5124C02202061606111A0A06104F188
:106AE0007800E0614FF4007020620020A0626062D4
:106AF0000BA1A164E06204F51E71E1641021A065A0
:106B0000C4E91410E06509A1E01DFFF703FD08A129
:106B10002046FFF7FFFC2020A07110BDBC420020E2
:106B20005465726D696E616C00000000525454002F
:106B300053454747455200000269C1688A4203D85D
:106B40008068401A104400E0501A401E70472DE93A
:106B5000F047C4681746894606464FF0000830697A
:106B6000A04201D9051B02E0B168201A0D1AB068D5
:106B70006D1E001BA84200D80546BD4200D33D460D
:106B800070682A4620444946FFF77EFCB0687F1BA8
:106B90002C44A844A944A04200D10024F460002F52
:106BA000DDD14046BDE8F0872DE9F0410446884636
:106BB000D4E90207C51BE168606816460844B5427F
:106BC00006D94146FFF760FCB819E060BDE8F081E6
:106BD0002A464146FFF758FC761B08EB0501324672
:106BE0006068FFF751FCE660F0E700000FB4054B6A
:106BF00010B503A9044A029800F0CEF810BC5DF865
:106C000014FB000061980200E82F002002E008C891
:106C1000121F08C1002AFAD170477047002001E016
:106C200001C1121F002AFBD170470000012120285A
:106C300003DA81400548014003E0402802DA2038A9
:106C4000814009B10120704700207047FC06FFBD5C
:106C50002DE9F843804643F2020669B9694608F017
:106C600083FDB04204D018B1284A8D21FFF7D2FA33
:106C70009DF80000800746D40021404608F0B0FD92
:106C8000050040D0112D3ED021482249401AC708A6
:106C9000022000EB07440D2D0AD00B2D1DD0B5426C
:106CA0001FD11D4920464246BDE8F84306F01CB9F5
:106CB00020464246194906F017F91321404676DF6F
:106CC000002820D006F0FCFD024601B020464346D5
:106CD000BDE8F04312A106F00EB9204642461E4917
:106CE000E2E7284606F0ECFD0246012000EB0740F3
:106CF00043461AA106F0FFF82846BDE8F843034AC8
:106D0000BC21FFF787BABDE8F88300005C390300B7
:106D100030480300E04703008C38030018380300B4
:106D200073645F626C655F6761705F646973636FF2
:106D30006E6E65637428292072657475726E656461
:106D4000202573206F6E20636F6E6E5F68616E64C6
:106D50006C652025642E0000D838030041737365EC
:106D60007274696E672E20706D5F636F6E6E5F73F5
:106D7000656375726528292072657475726E656425
:106D8000202573206F6E20636F6E6E5F68616E6486
:106D90006C652025642E00002DE9FF4F8BB09A46CC
:106DA0000F460446002606E025280BD052460D99D2
:106DB0009047641C761C20780028F5D10FB030462F
:106DC000BDE8F08F0025A94601227D4900E005437A
:106DD00014F8013F203B02FA03F00842F7D1207873
:106DE0002E2817D114F8010F45F004052A280ED0DB
:106DF0006FF02F022078A0F1300109290AD809EBA1
:106E0000890102EB410100EB0109641CF2E757F82C
:106E1000049B641C20786C280DD004DC4C2812D014
:106E20006A2811D104E074280DD07A280CD10AE028
:106E300045F4001507E0617845F48015814202D1E0
:106E4000641C05F58015641C207869283ED006DC9A
:106E50000028B3D063280BD0642804D136E073280F
:106E600010D075285CD052460D999047761CA5E04D
:106E700017F8040B8DF8000000208DF80100E8469B
:106E8000012003E057F8048B4FF0FF3069074FF003
:106E9000000501D40AE06D1C4D450DDA8542FADB90
:106EA00018F805100029F6D106E06D1C8542FCDBC0
:106EB00018F805100029F8D12E4404E018F8010B49
:106EC00052460D9990476D1EF8D277E000200A9047
:106ED000C5F302504FF00A0B02280CD001CFC117A6
:106EE000021E71F100020CDA0023D0EB030063EB09
:106EF00001012D2208E0FF1D27F00707F7E8020136
:106F0000EEE72A0504D52B228DF82420012203E088
:106F1000EA070FD02022F7E70DF12008089218E0C9
:106F200000200A90C5F302504FF00A0B022803D04C
:106F300001CF00210022EFE7FF1D27F00707F7E848
:106F40000201F7E75A460A9BFFF75AFA303208F86F
:106F5000012D50EA0102F5D1ADEB080000F1200B44
:106F6000680701D44FF00109D94502DDA9EB0B00F8
:106F700000E000208146002506E009A85246405D59
:106F80000D9990476D1C761C08988542F5DB04E04E
:106F9000302052460D999047761CB9F10001A9F1B5
:106FA0000109F5DC05E018F8010B52460D999047F0
:106FB000761CBBF10001ABF1010BF4DC641CFAE6BA
:106FC0000928010031B500252C462146684604F009
:106FD00006FB00B16D1C641C142CF6D3284638BD8A
:106FE00010B560B159B102780B785208B2EB530F6B
:106FF00005D10622401C491CFFF77FFA08B100208A
:1070000010BD012010BD800701D000207047012075
:107010007047C3688B4206D811440069491E8142FB
:1070200001D8012070470020704710B501220221CD
:10703000002001F075FB08B1072810D107220221BA
:10704000012001F06DFB08B1072808D100210A22B8
:10705000084601F065FB08B1072800D1002010BDEB
:1070600070B58CB015460E4600236C46C3F10F0177
:10707000415CE1545B1C102BF8D30D2104F110008E
:10708000FFF71BFA0020C0F10F02315C2244401CC4
:1070900011740328F7D3684646DF0020C0F10F01C2
:1070A000214491F820102954401C0328F6D30CB039
:1070B00070BD022001F00CBA0149C97800F0F2BDA0
:1070C000A02E002070B50024064D06E0686801215E
:1070D00010F8340006F058FC641C28788442F5D37C
:1070E000002070BDF82E0020F8B515460C46064667
:1070F000052A01D20720F8BD06F03EFD18B906F0BA
:1071000001FD0028F7D1124900224E600C708D60FD
:10711000C1E90422C1E906220E4D0DE006EBC400D0
:107120002968009181788DF8011000780A4A694633
:1071300006F076FC0028DED1641EE4B2EED2BDE893
:10714000F84004480021054A001D00F015B9000070
:10715000F82E0020402A0300F59D0200C58F020092
:10716000FEB515460E46074672B605F079FF00BF1C
:1071700005F048FD0028FBD12249234A0120891A45
:10718000C90800EB0144012F23D06FF48050381858
:1071900022D0B0F5405F24D06FF44051C84206D1F0
:1071A0002B88204619A16A6805F0A5FE04E0204658
:1071B00032461DA105F098FE21480068C00700D0A6
:1071C00000BE2A4603B031463846BDE8F04000F024
:1071D00079B820461BA101E0204622A105F080FEDF
:1071E000EAE7A86806F06CFB0346D5E90001CDE9A3
:1071F00000100296204624A1AA6805F097FE2046BA
:107200002BA1EBE7B0480300E0470300415353458F
:107210005254494F4E204641494C45442061742008
:1072200025733A2575000000554E4B4E4F574E20A2
:107230004641554C54206174203078253038580030
:10724000F0ED00E0534F46544445564943453A203B
:10725000415353455254494F4E204641494C4544B1
:1072600000000000534F46544445564943453A20D8
:10727000494E56414C4944204D454D4F52592041AD
:1072800043434553530000004552524F5220257549
:10729000205B25735D2061742025733A25750D0AE6
:1072A00050432061743A203078253038780000004F
:1072B000456E64206F66206572726F722072657011
:1072C0006F72740008B501238DF800309DF800300E
:1072D000144B186059609A606FF48041401807D0D1
:1072E00001280FD1DA60D86800889861D86807E073
:1072F0001A6118698068586118690068986118698E
:107300004068D861186858689868D86818695869DA
:107310009869D86972B600BF9DF800000028FBD1BB
:1073200062B608BD1C3A002010B58268C36893425B
:1073300003D002F035FA002010BD052010BD29B1A0
:1073400012B1531E134203D0092070470E2070471C
:107350000160838000218160C1600846704710B5DC
:107360008268C3689A1A83889A4203D802F022FA84
:10737000002010BD042010BD084B9B7823B12AB11A
:1073800020B10068037C1BB10820704707207047BC
:107390000023037441744261184670473C3A002050
:1073A00070B509F013FB104800240B2104704470E1
:1073B0000E4D817014206C602C706C70FFF7DCF93E
:1073C00006211420FFF7F9F91420FFF7E0F9084827
:1073D000046006211120FFF7F0F90548001F00683E
:1073E000A860002070BD00003C3A0020182F00204B
:1073F000081501402DE9FC47DFF8789099F8023034
:1074000073B368B3052902D20720BDE8FC8743693E
:1074100033B3437C012B25D0002704460025884642
:1074200016468DF80050684600F0EEF801A80AF004
:10743000EDFEC8B1012101700F4944600968C0E93F
:107440000218C0E904769DF8040089F801009DF84F
:10745000000000F0FDF81420FFF7A4F92846D4E757
:107460000820D2E70F46D8E704259DF8000000F079
:10747000EFF8F3E73C3A002004150140064989780B
:1074800039B130B1416921B10021017402210AF002
:1074900049BB0820704700003C3A002070B50B4EF5
:1074A00001460B48B578FFF73FFF04465DB1002069
:1074B000B070711C0122C81D04F018FE18B105A29D
:1074C000CE21FEF7A7FE204670BD0000CC2F002085
:1074D000444500202E2E5C2E2E5C2E2E5C2E2E5C23
:1074E0002E2E5C2E2E5C636F6D706F6E656E7473E6
:1074F0005C6C69627261726965735C756172745CFF
:107500006170705F756172745F6669666F2E63008B
:10751000F0B5244E89B01F460D00044672603FD07E
:10752000A888296882B22048FFF709FF002835D1D2
:10753000A889A96882B21C481030FFF700FF002814
:107540002CD1202219496846FEF79EFF60690690FB
:10755000207C00B101208DF814008DF81C70607C37
:1075600000B10E208DF81500E0680290A06803902D
:1075700020680190606800900A480D4A694608300A
:1075800004F080FD002809D1B0702068401C05D0AF
:1075900004490122491CC81D04F0A8FD09B0F0BD32
:1075A0000720FBE7CC2F002044450020382D0300A6
:1075B0005D1D030010B501461048FFF7D0FE040022
:1075C00019D10F480F4A0178515C19B1001D06F01E
:1075D000CDFD02E00C3006F0B1FC60B90849074867
:1075E0000839FFF7A1FE30B90549012208390448DE
:1075F00004F08CFD0446204610BD000054450020D8
:10760000D42F0020CC2E002030B5EFF3108172B6BD
:107610000D4A9468012324B10370002900D162B699
:1076200030BD93604FF0E023D3F88051074C2540E4
:107630001560C3F88041D3F8844154605A17C3F8E9
:10764000842100220270E8E7483B0020FC06FFBDD1
:107650000B498A68002A11D000280FD1EFF310805F
:1076600072B60B684FF0E022C2F800314B68C2F8E6
:10767000043100228A60002800D162B67047000001
:10768000483B002070B5054608680C46411C04D0F4
:1076900005F0A1F9206805F02FF96068411C02D0BF
:1076A000002105F017F92968A069C1F82405607D5B
:1076B000227D29681043C1F86C05D4E900122868BE
:1076C000C0F81425C0F80C15207D012814D1A0683D
:1076D000411C02D0002105F0FDF8E068411C04D0F7
:1076E00005F079F9E06805F007F9D4E90212286895
:1076F000C0F80825C0F8101570BD70B505460868BB
:107700000C46411C04D005F070F9206805F0FEF825
:107710006068411C02D0002105F0E5F82968A069E5
:10772000C1F82405607D217D2A680843C2F86C05F4
:10773000D4E900122868C0F80C15C0F81425207D83
:10774000012814D1A068411C02D0002105F0CBF81B
:10775000E068411C04D005F048F9E06805F0D6F86F
:10776000D4E902122868C0F80825C0F8101570BDC9
:1077700003F03ABA2DE9F047814605884A484FF0B0
:1077800000088AB001784246284600F0A3FA99F82A
:107790000500400701D4002176E005F58077B8B2F6
:1077A00001AB0122072107F0EDFB04003F48404AEE
:1077B0004FF00101A0EB02004FEAD00001EB0046C0
:1077C0000AD0204606F07CF8024630462B4639495E
:1077D00005F091FB214629E0284602F03FFE4FF6D6
:1077E000FF71044688422BD18A46029802F0A0FD20
:1077F0000446504510D00146284602F00FFE2846A8
:10780000FFF75AFCE0B9284609F0F2FB2846FFF7DB
:1078100053FC0028BFD013E007F080FD044650451C
:1078200008D1304624A105F05BFB0421284609F06D
:107830008FFCB0E70146284602F0F0FD4FF001084A
:10784000B8B22246072107F015FC07001BD0862F8F
:107850001ED006F035F8024630462B4623490094E8
:1078600005F051FB3946284609F072FC00214846D4
:1078700007F07CFAB8F1000F02D0204602F0D8FDE4
:107880000AB0BDE8F0870121484607F06FFAF7E734
:107890001822174903A8FEF7F7FDADF80E5003A80C
:1078A00001F0C6FDEFE70000A02E002038480300DD
:1078B000E0470300D83B0300436F756C64206E6F94
:1078C0007420616C6C6F63617465206E65772070E5
:1078D0006565725F696420666F7220696E636F6DA3
:1078E000696E6720626F6E642E000000843C0300A6
:1078F000BC290300F8B506464FF000001500ADF8AE
:10790000000015D009236A46304600F015F80446F9
:10791000BDF80000064458B154B12846FEF7D8FD22
:10792000A04205D1224631462846FEF7E6FD08B1C1
:107930000020F8BD0120F8BD70B588B182B10024E7
:10794000158803E0065D641C3444A4B2A54203D844
:10795000061976789E4201D08C42F3D38C4201D333
:10796000002070BDA11C1180005D401E80B270BD62
:107970002DE9F0418AB006460020ADF81400134608
:10798000102088468DF804000D4606AA01A9184665
:1079900064DFA6B398BB9DF80400022804D0042835
:1079A00007D0102839D10DE003208DF810000220F7
:1079B00003E005208DF8100004208DF8110000244C
:1079C00004AF0FE007208DF810000620F5E73B5DBF
:1079D00005AA41463046FFF7AFFF641CE4B20546F6
:1079E000022C04D2BDF814000028F0D003E0BDF84A
:1079F0001400002812D080B2064400240BE00CE0F2
:107A000030199DF8042006A9FEF777FD48B19DF8CE
:107A10000400204484B2AC42F2D300200AB0BDE896
:107A2000F0810120FAE71CB5002822D0002920D0DF
:107A30000288112A3DD0362A21D0382A1AD0392A74
:107A400017D10A460B8881888B4212D143899488CA
:107A5000A3420ED1C389012B0BD1ADF80210012135
:107A60008DF80010007C8DF804009368694610467C
:107A700098471CBD098880888142FAD115E00A46E2
:107A80000B8881888B42F4D130F80A3F9488A34256
:107A90000BD1ADF8021002218DF8001080798DF81D
:107AA00004009368694610469847BDE81C400AF0F8
:107AB00097B80A8880888242DBD14FF6FF70088031
:107AC0000020488088801CBD7CB504462548264B94
:107AD0000A78C01AC008042303EB00403AB98A8828
:107AE000A2F5C0530F3B02D18A79012A04D0BDE828
:107AF0007C401EA105F0F4B900228DF800204A88D0
:107B0000ADF80220002242F619250B7A14E000BFDE
:107B100002EBC20601EB4606F689AE420AD102EB41
:107B2000C20201EB42010A8BADF80420C98AADF80C
:107B3000061003E0521CD2B29342E9D816A105F018
:107B4000CFF92088A0F57F41FF3906D0608820B9A1
:107B5000A08810B90198C4F80200A26869462046BE
:107B600090477CBD48480300E047030042617474BD
:107B70006572792053657276696365206469736301
:107B80006F76657279206661696C757265206174C3
:107B900020706565722E20004261747465727920D0
:107BA0005365727669636520646973636F76657285
:107BB000656420617420706565722E00054808B503
:107BC000C16800918168684603F02DFD0098FFF7B9
:107BD000F9F908BDC831002010B5044600F09AF844
:107BE000002805D02146BDE81040024803F0F7BC4C
:107BF00010BD0000D831002070B515460E46044671
:107C00000AF0FEFA002809D0054800EB84008069DC
:107C10002A463146BDE8704001F00ABE70BD000042
:107C2000C831002010B5044600F074F8002805D0D3
:107C30002146BDE81040024803F0D1BC10BD000051
:107C4000DC31002070B50546002400F063F838B13F
:107C50002946044803F0C3FC08B1022400E00124D3
:107C6000204670BDD431002070B50546002400F0D8
:107C700051F838B12946044803F0B1FC08B1022498
:107C800000E00124204670BDD031002010B518213D
:107C9000034803F07FFC182800D0C0B210BD0000DC
:107CA000C831002070B505460C4608460AF0A8FA0F
:107CB00060B1284600F02EF840B10548294600EB97
:107CC0008400BDE87040183003F089BC002070BD0E
:107CD000C831002070B5054614460E4608460AF025
:107CE0008FFA002812D0284600F014F800280DD092
:107CF0000748294600EB860018301CB1BDE87040EB
:107D000003F078BCBDE8704003F029BC70BD0000F2
:107D1000C8310020142801D30020704701460148D3
:107D200003F05DBCCC31002070B540B10C4D29781A
:107D300039B1044608F024FE28B1002070BD0E20A1
:107D400070BD082070BDE868062807D20549226882
:107D500001EB8001401C0A60E860EEE7042070BD82
:107D6000F42D00204032002040B1054900220123BB
:107D7000CA600B70C1E90102104670470E207047BF
:107D8000F42D002070B504002DD000292BD0204800
:107D90000078002827D020880D46112815D03028DB
:107DA00004D0322807D033281ED109E0211D2846EF
:107DB00006F0ACFD18E0211D284606F0E5F913E0B9
:107DC000211D284606F0DEFB0EE0A088B5F8CA1299
:107DD000884209D1002085F8C70285F8C8024FF60D
:107DE000FF70A5F8CA0270BD95F8C8020028FAD045
:107DF00020883028F7D34F28F5D8A088B5F8CA12C4
:107E00008842F0D12846BDE8704001F08DB90000ED
:107E1000F42D002048B1084A137843B1D26832B13A
:107E200090F8C7222AB1112070470E207047082011
:107E3000704701F079B90000F42D00203EB50446EA
:107E4000011D03885248534A0425801AC2080320A2
:107E500000EB024005EB0242192B70D00ADCA3F1C3
:107E60001003092B6AD2DFE803F02A4569786969B3
:107E7000697B7D00212B51D00CDC1B2B49D01F2BA3
:107E80005CD131F8040B75DF002857D042A240F2D4
:107E900017110FE03B2B53D0562B4FD1104642A168
:107EA00005F01EF8A088132176DF002846D03AA2FC
:107EB00040F2331103B0BDE83040FEF7ABB940A14A
:107EC00005F00EF8A1884148FFF7A4FF18B132A2CF
:107ED000F221FEF79FF9072000F044FC10B12EA21A
:107EE000F52113E0FFF76AFE002827D1BDE83E40E8
:107EF00008F080BE0A7936A104F0F6FF002000F0F9
:107F000031FC0028EED024A240F20311FEF782F9E2
:107F1000E8E70979022911D134A124E010463BA1F8
:107F200004F0DEFF00200090A08869468FDF002863
:107F300004D019A240F22311FEF76CF93EBD17E000
:107F4000104637A104F0CCFFA088132176DF00286B
:107F5000F4D011A240F22B11ACE7104636A102E09A
:107F60003DA100E044A103B0BDE8304004F0B8BF3B
:107F7000A37A617B227BC3F3C0030093CDE9012187
:107F8000617A227AC1F38003434904F0CFFFD5E739
:107F9000E0470300E04703002E2E5C2E2E5C2E2EC1
:107FA0005C6D61696E2E63004741545420536572C5
:107FB0007665722054696D656F75742E000000003F
:107FC000436F6E6E65637465642E00000E2B002097
:107FD000446973636F6E6E65637465642C207265AB
:107FE00061736F6E20307825782E0000436F6E6EBF
:107FF000656374696F6E2052657175657374207462
:10800000696D6564206F75742E000000504859201A
:1080100075706461746520726571756573742E0086
:108020004741545420436C69656E742054696D65F2
:108030006F75742E00000000424C455F4741505F51
:108040004556545F5345435F504152414D535F5233
:108050004551554553540000424C455F4741505FE0
:108060004556545F415554485F4B45595F52455101
:108070005545535400000000424C455F4741505F56
:108080004556545F4C4553435F44484B45595F52F6
:1080900045515545535400003C2E030010B51A4C71
:1080A0000188606810290ED011292BD1401E606014
:1080B00028D1FEF7BAFF002824D02168002921D05A
:1080C000BDE810400847D0B900210122084600F061
:1080D00027FB08B107280FD107220221012000F059
:1080E0001FFB08B1072807D104220221002000F05D
:1080F00017FB20B1072802D0216801B188476068CA
:10810000401C606010BD0000EC2D00202DE9F04FF8
:108110000746858802883E48012197B08346102A89
:1081200009D0112A4BD01A2A6ED1387AB1EB101F20
:1081300047D2012246E0364C083CA068C0430B9071
:1081400061680BA803F06FFA0B990CA800F0C8FD4A
:108150002C220CA96846FEF797F90026E946A046AE
:1081600010E000BF09EB46005FF00004B0F804A087
:1081700008EB84005146001D03F0F1F9641C1D2C2E
:10818000F6D3761C0098B042ECD8142D07D317B064
:10819000E321BDE8F04F1FA20420FEF73BB82946BB
:1081A000584603F027FA294608F1040003F022FAA2
:1081B000F87B012828D016482946001D15E02946DD
:1081C0001AE000220221B1EB101F01D2012600E0CB
:1081D00000260F49083901F11000041D294682B11B
:1081E00003F008FA36B12946204617B0BDE8F04F33
:1081F00003F000BA2946204617B0BDE8F04F03F05F
:10820000AEB903F0ACF9F5E717B0BDE8F08F0000A8
:10821000D03100202E2E5C2E2E5C2E2E5C2E2E5C5D
:108220002E2E5C2E2E5C636F6D706F6E656E747398
:108230005C626C655C636F6D6D6F6E5C626C655FDC
:10824000636F6E6E5F73746174652E63000000006F
:1082500010B504460748007800280AD0204601F0EF
:1082600067FF204609F0B0F82046BDE8104001F055
:1082700045BC10BD302E002040B1018022B11168F4
:10828000C0F802109188C180002070470E2070470E
:1082900070B58AB00D46040029D045B3154E96E856
:1082A0000F008DE80F000DF12201684662DF41F6F4
:1082B000FF01ADF82010002817D110360DF1100C79
:1082C00096E80F008CE80F000DF1260104A862DF8C
:1082D0002868A0606868E0604FF6FF70208000208A
:1082E0006080A08008A8FFF71FFD0AB070BD0E20B7
:1082F000FBE70000882D030070B5E8B10F4C028841
:10830000438820680E4D00EB8001401C00F0070000
:10831000206005EB810102204B81C881081D0861A6
:1083200000248C810120087208714C710A808870C9
:1083300009F0A4FC204670BD0E2070BDEC2F00207B
:10834000645500200A46014610001AD0002918D0B2
:108350000A88112A0BD0382A03D0392A11D106F005
:1083600097BA0088898888420BD109F087BC0288B7
:1083700089888A4205D14FF6FF7101800021418032
:108380008180704730B50A7887B0002A38D18A8852
:10839000A2F5C053FF3B33D101228DF800204A885B
:1083A000ADF80220002242F6FF240B7A13E000BF52
:1083B00002EBC20501EB4505ED89A5420AD102EBAE
:1083C000C20201EB42010A8BADF80420C98AADF864
:1083D000061002E0521C9342EAD80188A1F57F42C0
:1083E000FF3A09D0418839B9818829B90199C0F883
:1083F0000210BDF80810C1808368002269469847C2
:1084000007B030BD08B505F077F920B10D4A40F24C
:108410007511FDF7FFFE002000906946012004F071
:10842000B9FF20B1074A40F27B11FDF7F3FE684621
:1084300005F04CF8002804D0024A40F27F11FDF705
:10844000E9FE08BDD0AF02000149085C704700009A
:10845000C0270300084908B5085C0090684604F08E
:1084600077FAD0F810050099C84010F0010000D04C
:10847000012080F0010008BDC02703002DE9FC4168
:108480000646C0074FF000050ED0104F0024012211
:10849000385D009500231146019504F0B7F9641C7E
:1084A000042CF4D300F04EF8B0070DD5074E00248D
:1084B000361D0022305D032300951146019504F01E
:1084C000A5F9641C042CF4D3BDE8FC81BC2703008F
:1084D000094908B5085C0090684604F039FAD0F8FC
:1084E0000425009B0121994021EA0203C0F80835C8
:1084F0001140C0F80C1508BDBC2703000249085CF8
:10850000012104F07CBA0000BC2703000249085C8A
:10851000002104F074BA0000BC270300084908B524
:10852000085C0090684604F013FAD0F8040500993E
:10853000C84010F0010000D0012080F0010008BD0B
:10854000BC27030010B500242046FFF7D7FF641CAA
:10855000042CF9D310BD10B500242046FFF7D6FF38
:10856000641C042CF9D310BD10B50246064B4FF025
:10857000FF3000215C5C944201D1084610BD491CCB
:108580000429F7D310BD0000C027030070B50C4EBE
:108590000C004FF0000530600BD0012000F06AF8AD
:1085A00008B1022004E0002000F064F800B10B20C4
:1085B0002070706810B9FEF738FD0546284670BD7A
:1085C000EC2D002010B5002000F006FA08B10628B6
:1085D00006D1012000F000FA08B1062800D10020E1
:1085E00010BD00002DE9F0470D468146FFF7BCFFA6
:1085F0000446042836D2DFF874801B481C4EA8F1CC
:108600000C0725B3012D0ED0022D2BD104EB440015
:1086100030444578002D25D0B968002922D028465D
:10862000BDE8F047084704EB4401755C0E447178DF
:1086300049B10E4A4FF40041093A8068FEF7DAFE6C
:1086400008B987F80390B17808F80410E2E7806869
:10865000FEF714FF04EB4401314418F804008D7850
:10866000A842D7D0BDE8F087C4270300E82D00203A
:108670009C310020042801D2FFF7ECBE0020704797
:1086800010B5184C042808D0072814D00A2827D180
:10869000BDE81040002004F0D7BD1321A08876DF8C
:1086A00008281DD000281BD0BDE810400EA240F2C3
:1086B000D711FDF7AFBD6078002811D10E480F49E2
:1086C000401AC008032101EB00400DA104F008FC92
:1086D0000120607003F05AFCBDE8104008F08ABA2F
:1086E00010BD0000082B00202E2E5C2E2E5C2E2E9E
:1086F0005C6D61696E2E6300E0470300E047030094
:1087000057686974656C6973742074656D706F72F5
:108710006172696C792064697361626C65642E00B2
:1087200070B50023042810D20D4D00EB4004012A3F
:1087300002D101290CD00022094E00EB4000304448
:1087400061B1012906D0022906D00723184670BD61
:108750000E30C2B22A55F9E74270F7E78270F5E7AA
:108760009C310020044A014600201279D20702D031
:10877000084600F04DB87047DC2D002070B5064665
:108780001E480024C0E90161B00720D50025012260
:1087900011462846FFF7C4FF6D1C0446042D02D283
:1087A000002CF4D013E094B940F26662042114481E
:1087B000FEF79AFC04000AD1FEF784FC040006D1FF
:1087C0000F48104A0021001FFEF7D6FD0446F007AF
:1087D00012D00120FFF752FE74B909480A4A00215D
:1087E0000C38FEF7C9FD040006D10548074A0121EF
:1087F0000838FEF7C1FD0446204670BDDC2D002080
:10880000D0270300A58A020085A80200B3700200E9
:108810002DE9F05F6E4C054600266078B34618B12E
:1088200084F801B002F016F86A4F4FF47A694FF4F9
:10883000C87A4FF00108182D69D2DFE805F00C1353
:1088400013384754696E727B727BC5848484848438
:10885000B3B6B9BCC5C501F0FDFF3868FEF70EFE22
:1088600006465CE00020FFF759FE00284FF00000AC
:1088700008D0FFF743FE022D02D14FF4E16008E07B
:10888000484606E0FFF742FE022D01D1C82000E075
:108890005046410CC0034FF4FA72801841F10001B8
:1088A000257052000023FDF7ABFD01462AE00020B1
:1088B000FFF734FE00284FF0000004D0FFF71EFE43
:1088C0004FF44870E5E7FFF721FEDFE70020FFF7F0
:1088D00025FE00284FF0000002D0FFF70FFECFE783
:1088E000FFF714FED4E70020FFF718FE00284FF032
:1088F000000002D0FFF702FE01E0FFF707FE25703F
:1089000041F69A1100223868FEF774FD064646E0EB
:108910000020FFF7DDFD257008E0002051E0257004
:108920003DE084F801800120FFF7D2FD002240F6EF
:10893000CD41E8E784F801800120FFF7C9FD00225E
:108940004FF48041DFE77868FEF798FD0646D5F1E1
:10895000110000D02EB10220FFF7D0FD84F802B044
:108960001DE0012816D980B2C8214843C117C903A8
:1089700041EA5041C0034FF4FA72801841F10001FE
:1089800052000023FDF73CFD014600227868FEF707
:1089900031FD06460220FFF7B9FD84F8028030461B
:1089A000BDE8F09F01F056FFB9E701F053FFB4E7CF
:1089B00001F050FF04E001F04DFF0020FFF7A6FD9D
:1089C0000120FFF7A3FDAAE7FFF7C5FDA7E7000019
:1089D000DC2D0020C4270300012109F02FBC00007A
:1089E0002DE9F8430546861C00208DF800009046CE
:1089F0000F464FF001096846FEF706FE1B4C206843
:108A00003860D4E90001401AA16804F21C47081A32
:108A10000EE00121384602F000FE02F0C7F90146DF
:108A2000384602F0FAFDD4E90001401AA168081A9C
:108A3000401C8642EDD8B8F1000F03D0052065F345
:108A4000891002E0062065F39F50A268216811405A
:108A500004EB8101C8602068304420609DF800006C
:108A6000FEF7F6FD4846BDE8F8830000983E00207A
:108A700030B482680468531C8360A154D0E90112A9
:108A80008A4202D330BC03F05EBB30BC70470000AA
:108A9000034803C8814201D101207047002070477C
:108AA000983E002000780221FFF79CBD1CB50446CB
:108AB00001F0D4FC00236A46092106F0A5FB052835
:108AC00005D10348012241792046FFF703F91CBD77
:108AD000042E00201CB50021009142F6A621ADF81D
:108AE000001001218DF80210034901AA09680191C3
:108AF0006946A0DF1CBD00006C28030005494FF04B
:108B0000FF32082841F8202002D3084480F858207A
:108B10007047000040390020F0B54FF0FF3512B12A
:108B20000023082601E008230C260C4C05E000BFBA
:108B300054F823707F1C04D05B1CB342F8D3284642
:108B4000F0BD26185DB286F8305044F82310002A94
:108B5000F5D1E11881F85800F1E700004039002014
:108B60000249084490F93000704700004039002065
:108B700008B5024690F8C6020B4600EB8001C1EB37
:108B8000801002EB400092F8C52242B1521ED2B2D0
:108B900002EBC20100EB4102518A491C00E0C1888E
:108BA000ADF800100089ADF80200694618469DDF57
:108BB00008BD70B504464FF6FF750A462846AC421C
:108BC00009D14FF480742146104602F0E3FC80B2D4
:108BD000A0420BD070BDFF2CFCD82146104602F0FD
:108BE000C9FC90F0010F01D0204670BD284670BD31
:108BF00070B5084C050009D010342168002907D051
:108C000008682060496828468847F6E70834F4E792
:108C100070BD0000DC380020054A012120B1012888
:108C200005D19170FFF7E4BF51700020FAE770475B
:108C3000DC3800202DE9F05F26484168F1B3DFF809
:108C400098B00E688146DBF8004087688078E11BA9
:108C500021F07F45ED1CB0B9DFF880804FF4803003
:108C6000C8F84403C8F804031120FDF785FD11205E
:108C7000FDF78DFD4FF0010AC8F800A02F2004F089
:108C80007BFE89F802A0B54200D23546124BE819A6
:108C90003C3320F07F401860DBF800105A46091B77
:108CA00021F07F41001B20F07F40C91C81420FD979
:108CB000106818602F2004F05FFE00E004E0BDE8BB
:108CC000F05F1120FDF76EBDBDE8F05F07F07EBEDE
:108CD000BDE8F09F182F002004150140001001404E
:108CE00073B58CB00646002000900D9880B100242A
:108CF0006D4621460DA802F072FC30B1009805EBDC
:108D0000400084800098401C0090641C142CF0D318
:108D10002C2269463046FDF7B7FB0EB070BD00004F
:108D2000F0B587B016460F4604461D4618220B497B
:108D30006846FDF7A9FB0A488DF80870ADF80240B7
:108D4000ADF80A608DF80C50017800222046FEF73D
:108D5000C1FF684600F06CFB07B0F0BDD4290300EA
:108D6000A02E0020FDF774BFF0B50C4606461E4845
:108D70001E4987B0401AC708042000EB074033465D
:108D800022461BA104F0B7F8002004900590ADF82E
:108D9000104001900290ADF8124001AA04A930469B
:108DA00090DF05001DD004F08BFD0346012000EB91
:108DB0000740044632461A4904F09DF8BDF80420E5
:108DC00012B9BDF8060028B1BDF80630204615A13D
:108DD00004F091F8BDF808201AB12046214904F0AA
:108DE00083F807B02846F0BD08480300E0470300B9
:108DF0005570646174696E672064617461206C658C
:108E00006E67746820746F202575206F6E20636F05
:108E10006E6E656374696F6E20307825782E000061
:108E2000F833030054686520726571756573746565
:108E3000642054582F5258207061636B6574206C05
:108E4000656E67746820697320746F6F206C6F6E35
:108E5000672062792025752F2575206F63746574EE
:108E6000732E00004434030010B504460146054843
:108E7000FFF788FA21460348BDE810401030FEF79E
:108E800023BE00009C30002070B504460948012133
:108E900002F0DEFBBFF35F8F0025002808D12046DB
:108EA00001F0FEFE002803D1BFF35F8F014805608B
:108EB00070BD0000102E00207FB50C4610B10120BF
:108EC00004B070BD2079002638B141F61D55012847
:108ED0001BD0022826D00F20F2E702202071029634
:108EE0000396E0680190694601A807F0AFFC50B115
:108EF00002988188E18000882081BDF800100298E6
:108F000007F022FDDCE70A20DAE70A4B6A46002177
:108F1000A01D07F057FC38B1064918398E61CE61A3
:108F20000A28CDD12846CBE702488188019807F06E
:108F30000BFDF5E7442F00202DE9F843054690F896
:108F4000C6020F4600EB8001C1EB801005EB400626
:108F500095F8C542914604EBC40006EB4001327916
:108F6000601C0A31904226D16B460022284601F04F
:108F70002FFC18B310E0401EA04201D1002004E0F5
:108F800004EBC40006EB40001C30804602466B46F2
:108F9000284601F01DFC30B1002038706946484673
:108FA0009EDFBDE8F88395F8C5024146401C641C6D
:108FB00085F8C502E4B23079A042DCD801203870CF
:108FC0000020EEE72DE9F0470025DFF88C803CE03B
:108FD0006068002100EBC506012032789146FDF75C
:108FE00040FAD4E9062300EA020701EA030C57EA33
:108FF0000C0728D082438B434846C4E9062304F07B
:1090000079FD32788246914601200021FDF729FA48
:10901000D4E9042300EA020401EA03074A46504661
:109020000021FDF71EFA44404F403C430BD17078BD
:10903000012801D0012100E00021726881EA0A01C3
:109040000AB1484690476D1CEDB298F800004446BE
:109050008542BDD3BDE8F087F82E00202DE9F0470A
:10906000894690F8C612904601EB8102C2EB81114D
:1090700000EB4107384607F083FC06002FD0194C5F
:10908000A06806282BD2184D762205EBC010394671
:10909000A0F80280001DFDF7F7F90027B9F1000FD5
:1090A00004D0A06805EBC010077004E0A16802209E
:1090B00005EBC1110870A06805EBC011401CCE671C
:1090C000A060E16888420AD1002604E005EBC610E2
:1090D000C16F8847761CE0688642F7D3A760BDE879
:1090E000F0870000F42D00205832002070B50E46A5
:1090F00090F8C612154601EB8102C2EB8111A0B0B7
:1091000000EB410007F03CFC040009D07C2205493B
:109110006846FDF7B9F9ADF8025068460196A047D8
:1091200020B070BDF027030070B50E4604464FF422
:109130003371FDF7C2F91748A4F8CA6200258560AB
:1091400084F8C952144884F8C65284F8C55200689D
:109150002060124812492288401AC008042101EBFD
:10916000004033460F4903F0C6FE22460121304637
:109170009BDF0121112806D0002809D184F8C712ED
:1091800084F8C85203E084F8C71284F8C81200209B
:1091900070BD0000F42D002040320020E84703009D
:1091A000E0470300902F030010B50021024802F0B1
:1091B0004FFA80F3100010BDB44200200E4910B5E4
:1091C0000A784C780023A24212D0521CD2B20A7004
:1091D000022A00D10B70084A0B780C3252F8232077
:1091E00002608868104420F07F408860012010BD34
:1091F0000360002010BD0000182F002013460A460F
:109200000021FFF78DBD00002DE9F843104D0F46FA
:1092100080461E4691466946286802F074F90400AB
:1092200014D01C21FDF749F901202071C4F81490D5
:10923000380BC4F80080C4E902606946286802F06F
:1092400083F907F01FFA0020BDE8F8830420FBE74C
:10925000E02A030010B503780022072B06D2DFE8CE
:1092600003F005040610202930000A7010BD012308
:109270000B7003898B818388CB81C06888600A74F6
:1092800010BD02220A7002898A818288CA81C2685E
:109290008A60807D062802D00020087410BD01205D
:1092A000FBE703220A70C2888A810289CA81C068EA
:1092B000886010BD04230B70C0888881CA818A60D1
:1092C00010BD0520087010BD70B5064D064600247F
:1092D00055F8241009B130468847641C042CF7D394
:1092E00070BD0000703B002030B50446006887B0B8
:1092F0000D46806800281FD018216846FDF7DDF86C
:109300000195A0680590207910B1012810D107E0DF
:1093100001208DF8000020690290E068039005E0CC
:1093200002208DF80000E06800030290606904905C
:10933000206881686846884707B030BD2DE9F04154
:1093400086B016460C00804629D0112C27D0082C58
:1093500025D018216846FDF7B0F8ADF802804046E8
:1093600001F07CF8ADF804001B481C490027401AA6
:10937000C5080D2C16D0204604F0A2FA02460120A2
:1093800000EB05404346164903F0B5FD07208DF874
:10939000000002948DF80C70684600F057F806B093
:1093A000BDE8F081022000EB054042460D4903F084
:1093B0009BFD03208DF8000026B13078C00701D056
:1093C000012000E002208DF8080041F201108DF824
:1093D0000C70ADF80A00DFE740480300E0470300E7
:1093E000A43E0300943D030010B50446408801F0FC
:1093F00035F8A080024801682046BDE810400847C3
:109400000C2E00202DE9F04107460024064E074DA2
:1094100005E000BF56F8241038468847641CE878F9
:109420008442F7DBBDE8F081F0370020302E0020C9
:1094300010B50446408801F011F8A0800248016888
:109440002046BDE810400847882903000149096803
:10945000084700002C2A030070B586B00446182186
:109460006846FDF72AF8A0890125A0F54040ADF82F
:1094700004002078324E062835D2DFE800F03403AD
:1094800003032E4EA08900F09EF930B9E08943F61F
:10949000FE71A0F54040884225D8A07B8DF80800D9
:1094A0002078032811D000208DF80900A0680390CF
:1094B000606860B109208DF80000606804908DF844
:1094C0001450684605F0F2FD0DE00120ECE708209D
:1094D0008DF800008DF81050F3E7A08900F073F9C3
:1094E00008B1E08930B17078002801D005F02AFF7A
:1094F00006B070BD606840B10B208DF80000606858
:1095000002908DF80C507570DBE70A208DF8000092
:10951000BDF8040005F0B4FFF5E7606858B1142009
:109520008DF80000606802908DF80C504FF6FF70C7
:10953000ADF80400C5E713208DF80000F6E7000041
:109540001C2E002038B504460E480078A8B1A4F5BA
:109550007F40FF380FD0684606F0C6FF78B105217E
:10956000017001210171C480684606F0CBFF07F04D
:109570007BF8002038BD042038BD022038BD08200B
:1095800038BD00004C2F00200C4808B5007888B189
:10959000684606F0A9FF78B106210170684606F01A
:1095A000B1FF0748017809B10121017307F05CF8A8
:1095B000002008BD022008BD082008BD4C2F002057
:1095C000343C0020F0B587B014216846FCF775FFE5
:1095D0002B4C207818B16846FFF776FE4EE0201D30
:1095E00002F018F8B8BB4FF010204169000402697E
:1095F00040694B1C01D100FB02F1224800220161AD
:10960000A1F54051C160204902F032FF002820D16D
:109610001F481C238C221D49006801F061FF05F0E2
:10962000D7FA051E14D0022812D000270126062DD5
:1096300012D005A806F058FF88B106700C2D18D27C
:10964000DFE805F0170F170F17161716171113116C
:109650000B2007B0F0BD11E026706760BBE7082063
:10966000F7E7077105E0032100E00221017100E046
:10967000067105A806F046FF06F0F6FF0020E8E7B1
:109680004C2F0020F82F0020F02A0300803B002000
:10969000582A030038B5040014D0694607F0D6F8FC
:1096A000A0B1BDF8000000EB8001094800EB81008B
:1096B000C16849B1A17A39B1C168491EC1600020B1
:1096C000A07238BD052038BD062038BD0A2038BD3F
:1096D0000C3C00201FB501A9684607F073F804B0E0
:1096E00010BD07B513460A466946002007F06AF820
:1096F0000EBD07B513460A460021684607F062F81A
:109700000EBD20B119B10068086000207047052027
:1097100070470000F8B50D46040018D0BDB1694689
:1097200007F094F8A8B1BDF800000B4900EB8000E9
:1097300001EB800001210C30666801F06EFF2E60A5
:1097400060680C3068600120A0720020F8BD052020
:10975000F8BD0A20F8BD00000C3C002018B103231E
:10976000002208F0EBBE052070470223002208F01B
:10977000E5BE0000084910B50A69042A0AD0074A64
:10978000096942F8210004480121103001F045FF29
:10979000002010BD0C2010BD2C2F0020703B00209D
:1097A000826883881A4003689A5C0A708168491C41
:1097B00081607047C26883881A4003689954C16801
:1097C000491CC160704743F6FE71A0F540408842D5
:1097D00001D8012070470020704710B5044600787A
:1097E000182802D1FEF752FA207010BD10B50446B9
:1097F0000078182802D1FEF749FA207010BD000049
:1098000070B5134600220546112900D10122074CEC
:1098100033B12179FEF75EFA00226178284600E034
:109820006178BDE87040FEF755BA0000A82E002010
:10983000F7B517460E0011D00098002560B100243E
:109840002146684601F0CBFE18B1A0B23946B047B8
:109850006D1C641C142CF3D32846FEBD0020FEBDF5
:1098600010B50446C0B2FDF7A5FE204610BD406805
:1098700006F05ABE0D480E4B0A88C01AC0080323D2
:10988000A2F5206203EB0040773A09D002F6FD72A0
:10989000B2F5604F08D10B794A8806A103F02BBBC3
:1098A0008B884A880FA1F9E770470000E047030062
:1098B000E047030044617461206C656E6774682042
:1098C000666F7220636F6E6E656374696F6E2030B1
:1098D000782578207570646174656420746F202524
:1098E000642E00004741545420415454204D545597
:1098F000206F6E20636F6E6E656374696F6E2030CB
:10990000782578206368616E67656420746F202510
:10991000642E000070B508B1012070BD1B4C0025FD
:10992000207B08B1257301E000F0A4F82078082816
:109930002AD2DFE800F02904080C10291422BDE81F
:10994000704000F025B8BDE8704000F081B8BDE877
:10995000704000F063B8BDE8704000F03FB80620EA
:1099600020706088094900EB8000283901EB8000F5
:109970004068BDE8704005F00BB9072020706560B5
:10998000BDE8704005F012B90F2070BD343C0020D6
:109990001149F0B48A1C00200346A1F128050C18D7
:1099A000A67A4EB1A37200EB800405EB8404E6684E
:1099B00016B9247C012C0AD0401C80B20228EED3B8
:1099C0000B704B804B60F0BC41F61D50704710800F
:1099D000F0BC00F03DB80000343C00200C48418849
:1099E00001EB8102A0F1280101EB8201CA6852B1AA
:1099F00005210170074802218180016800230122AE
:109A0000054802F099BC042202704968F6E700009C
:109A1000343C0020542F0020F82F002038B50A498C
:109A2000084803240B684268898803EB8101538846
:109A30000470DB1C00201B0400909B0B034802F009
:109A4000F7FD38BD343C0020542F0020F82F0020B3
:109A5000074910B54888091D06F048FF18B1BDE850
:109A60001040FFF7DBBFBDE81040FFF7B7BF0000B5
:109A7000343C0020F0B51F481F4901250678022418
:109A80008B88A0F12802082E19D2DFE806F004180E
:109A9000181B222F2F170189491C018100214180A9
:109AA00080F80C1001EB810312F8233043B100233E
:109AB0004418491C89B2A3720229F3D30570F0BD82
:109AC0000123F5E742685288D21C1A448A80047048
:109AD000F0BD46880D6806EB860602EB86025668E6
:109AE0000E60556013818C80062100E00721017013
:109AF000F0BD0000343C0020542F00202DE9F0413F
:109B0000044680882188394E86B00746352937D0EB
:109B1000502923D0522902D054295DD102E001F00E
:109B200063F859E0182232496846FCF7ADFCADF8FD
:109B30000270384600F092FCADF8040000F09CF989
:109B4000002231793846FEF7C5F80022F178384610
:109B5000FEF7C0F86846FFF747FC3DE0207B012890
:109B60003AD1A07A012837D12089A0F524510239B1
:109B700032D10121384601F08BF808F029FB2BE0A7
:109B80004FF0000842467179FEF7A4F8E288B2F57A
:109B9000857F1DD017481849401AC008022101EBE3
:109BA000004512B1284615A10BE06289012A03D0B5
:109BB000284621A103F098F9A289012A04D0284659
:109BC0002CA103F091F903E0A07B00B101208046B5
:109BD0004146384607F0ECFE00223549B078FEF7E2
:109BE0000BF806B0BDE8F04107F0EEBA042E0020F5
:109BF000C8280300F0470300E0470300556E65786E
:109C000070656374656420474154542073746174B3
:109C10007573207768696C652067657474696E6711
:109C20002043415220636861722076616C75653A09
:109C300020307825780000004D756C7469706C6573
:109C400020282564292043415220636861726163A2
:109C500074657269737469637320666F756E642CC2
:109C6000207573696E672074686520666972737405
:109C70002E000000556E657870656374656420433E
:109C800041522063686172616374657269737469BB
:109C9000632076616C7565206C656E67746820283A
:109CA0002564292C2073746F726520302E0000000B
:109CB0007177020070B504460078002814D16088DE
:109CC00000F092FF6588284600F098F928B107480F
:109CD0000122C1782846FDF7FDFF6088FEF7E6FE09
:109CE000BDE8704008F074BA70BD0000042E00207A
:109CF00070B51A4C00252570FDF7C8FF6070FDF7A0
:109D0000C5FFA070FDF7C2FFE070FDF7BFFF207137
:109D1000FDF7BCFF607162780121182A12D0A27889
:109D2000182A0FD0E278182A0CD02279182A09D0E4
:109D3000182807D004F10C000560BFF35F8F217075
:109D4000002070BD0648074A801AC00801EB004099
:109D5000054903F0C5F8032070BD0000042E002063
:109D6000F0470300E0470300D82F03007CB504460A
:109D70000078082837D1607A58BB207A1C4E4FF6FD
:109D8000FF75012811D0072802D008282BD121E027
:109D9000A08800F03BFA0446A84224D0012100F03C
:109DA00077FF2046FEF782FE1DE0A0886A4601216B
:109DB00005F09EF868B90198007850B1A08800F0CD
:109DC00025FAA8420FD00122F178FDF783FF07F0B2
:109DD000FBF908E0F068012805D1BFF35F8F044963
:109DE00000200C310860BDE87C4008F0F1B90000AB
:109DF000042E00202DE9F04180460246012000217A
:109E0000FCF72FFB1A4F05460E467868FDF736FB28
:109E100000280CD1174CD4E9062110462A4001EA4B
:109E200006031A4305D0A843B143C4E90601BDE8BF
:109E3000F081404603F05EFE30B1D4E904012843CE
:109E40003143C4E9040105E0D4E90410A943B04357
:109E5000C4E90410D4E9060128433143C4E90601EA
:109E6000A1687868BDE8F0410022FDF7C3BA0000A0
:109E7000402A0300F82E00201CB5054AD2E9021240
:109E8000CDE900120022694605F0F8F91CBD00007A
:109E9000E428030003484FF6FF718180012101701F
:109EA00000207047142E00202DE9FC41804600F070
:109EB000D5FA002403250127A0F57F412646FF3966
:109EC00008D06A46082105F013F818B90198841DD6
:109ED0008688056832462B4621464046B1DF042875
:109EE00004D0082804D00B2808D002E0112000E09C
:109EF0000020002F00D10B20BDE8FC810027A8071F
:109F000001D50125E6E7344303D000242646032586
:109F1000E0E7064806494246401AC008012101EB25
:109F20000040044902F0E0FFE5E70000F8470300C5
:109F3000E0470300483203002DE9FC41804600F071
:109F40008DFAA0F57F410646FF390ED001252A463D
:109F50006D1C0027ADB26B460821304605F012F8A3
:109F6000040006D0072C33D033E043F20200BDE8F2
:109F7000FC81019903230A1D0B604046891DB2DF55
:109F8000040004D00C2C09D0052C09D009E032467D
:109F90000821104605F06EF804461AE0012700E09B
:109FA00000240821304605F05BF870B103F088FC0E
:109FB0000346094809493246401AC008012101EB0D
:109FC0000040074902F097FF0324002FBFD100E0B3
:109FD0000C242046CBE70000F8470300E0470300CD
:109FE000C831030004488088A0F57F41FF3901D0C3
:109FF00007F0F4B870470000142E00200EB502A937
:10A00000019100F02BFA6A46012104F071FF08B1BA
:10A0100000200EBD019800780EBD00002DE9F04132
:10A0200007464FF6FF761048B3DF78B103F048FCDF
:10A0300002460E480E49401AC008012101EB0040BB
:10A040000C4902F051FF0320BDE8F081064C43F2B9
:10A050000305A41E324661883846AFDFA842F3D11B
:10A060006088401C6080F5E7162E0020F84703004A
:10A07000E04703007C310300428800EB82020C328F
:10A080008A4201D9022070478188A1F57F42FF3AB8
:10A0900003D0008808B10020704701207047884233
:10A0A00004D20068401C01D0012070470020704796
:10A0B0003EB5027802230C46B3EB520F17D1B0F82D
:10A0C0000110ADF80010C1788DF802108188ADF84C
:10A0D000041080798DF8060002AA01A92046FCF739
:10A0E000BFFF032202A96846FCF707FA08B1002067
:10A0F0003EBD01203EBD000070B50D46044614284B
:10A1000010D2FDF707FE68B1084904EB840001EBAB
:10A110004000D0F802102960C188A980007AA87197
:10A12000002070BD43F2020070BD000058350020D1
:10A1300070B5018892B0102961D1011D2C226846AA
:10A14000FCF7A2F99DF804004FF6FF760321344690
:10A15000B1EB500F2BD005F04FF89DF804006D4681
:10A1600040080ED001280CD0022820D118E00D990B
:10A17000281D1131FCF734FF18B100BFBDF82C4089
:10A1800015E00CAA0BA9072005F00AF80028EED16B
:10A190000DE00D99281D491CFFF78AFF0028EDD11D
:10A1A0000CAA0BA9072004F0FBFF0028F1D1BDF891
:10A1B0000000B44200EB8001124820F8114000EB8F
:10A1C00041000199C0F80210BDF80810C1809DF847
:10A1D0000A10017213D0BDF80000ADF82E00002067
:10A1E000ADF83040084E8DF82C000BAD044600BF92
:10A1F00056F8241028468847641C022CF8D312B065
:10A2000070BD000058350020F82803002DE9F0410A
:10A210004FF6FF760546B04213D00B4F002400BF27
:10A2200004EB840037F81000A84206D12046FDF761
:10A2300071FD10B12046BDE8F081641CA4B2142C5D
:10A24000EED33046F7E70000583500202DE9F04303
:10A25000CFB00F46060022D00FB35020ADF8340126
:10A26000E846CDF830D1B82114A8FCF726F9002033
:10A2700043AA14A9C0EBC00303EB00130B4442F83C
:10A280002030401C0828F5D32548264A0024801A8F
:10A29000C0080222C14602EB0045884638E0002291
:10A2A000114610466FDF4FB0BDE8F083502168467D
:10A2B000FCF703F936F814004DAB4BAA072104F064
:10A2C000A3FF052810D007280ED09DF811004008E4
:10A2D00012D0012810D036F814201349284602F075
:10A2E00003FE43F20220DEE736F8142028460F4929
:10A2F00002F0FAFD0520D6E7C4EBC40000EB041120
:10A3000001EB0800172209F10101FCF7BDF8641CFC
:10A31000BC42CBD3FAB2002143A86FDFC3E70000F1
:10A3200000480300E0470300C03203004833030045
:10A330003EB50C46054604F05FFF0BE0BDF800009B
:10A34000A04207D02846029900F00EF810B1BDF8DF
:10A3500000003EBD01AA6946072004F021FF002845
:10A36000ECD14FF6FF703EBD2DE9F0410C4605469D
:10A3700000F1110701F111061022491C401CFCF7E5
:10A38000BCF848B9681C00F049FA28B1601C00F01C
:10A3900045FA08B1012400E0002431463846FCF7B4
:10A3A0001FFE3B780222B2EB530F0CD00321B1EB1E
:10A3B000530F08D03378B2EB530F04D0B1EB530FE7
:10A3C00001D0012100E00021084201D18C4302D0DC
:10A3D0000120BDE8F0810020FBE7018811B9421897
:10A3E00092780AB101207047491C0829F7D3002050
:10A3F000704710B50C460346FFF7EFFF00280AD060
:10A4000018882188884205D10822A11C981CFCF7D5
:10A4100074F808B1002010BD012010BD142804D22A
:10A42000024A00EB800022F81010704758350020D7
:10A4300070B50546FFF7EAFE0446284604F05CFDC9
:10A44000002808D1142C06D2034B04EB84024FF6EB
:10A45000FF7123F8121070BD5835002010B5044666
:10A46000142808D2FDF756FC28B1044904EB8400F7
:10A4700031F8100010BD4FF6FF7010BD58350020A8
:10A480003EB5044604F0B8FE0EE001992046463180
:10A49000FFF7AFFF28B9019920462A31FFF7A9FF3E
:10A4A00010B1BDF808003EBD6A4602A9072004F0BD
:10A4B00077FE0028E9D14FF6FF703EBD7CB514460B
:10A4C0000A000A49097802D015688D4203D323B1E6
:10A4D0001D688D4201D204207CBDCDE900431346A6
:10A4E0000246034805F054F87CBD00001A2E0020F7
:10A4F0002036002070B50C4606469AB01021184848
:10A50000FBF7DBFF174800252EB324B3047062006D
:10A5100031461348FBF7B8FF382102A81895FBF71E
:10A52000CCFF009518AB02AA21463046019505F0F4
:10A530002FF800280DD110AA0DF10801C0EBC003BF
:10A540000B4442F82030401C0828F7D3E1B21046F3
:10A550006EDF1AB070BD0570002108466EDFF8E7A7
:10A56000203600201A2E002010B50A4941600A4802
:10A5700001F050F858B903F00BF907491C238C225D
:10A58000087404488C39001F006800F0A9FF0020FF
:10A5900010BD0000E42A0300E03C00202DE9F0415A
:10A5A0002D4F002518B17D600120BDE8F0810879AC
:10A5B000012258B1294E01280CD0274C4FF0020837
:10A5C0000834022821D0032842D128E00A7104F07F
:10A5D000EDFA3BE05FF0000000EB800116F821107F
:10A5E000022908D0401C80B20228F5D33A707D6061
:10A5F00041F61D50D9E700EB800006F8205006EB2D
:10A600008000406804F0C4FA20E00D71A4F80480D2
:10A61000002301221248216801F08EFE16E00D7120
:10A62000206804F0B5FA0D4923682831498801EB08
:10A63000810206EB8201D1F804C0C4F800C04B606F
:10A64000A3880B81A4F8048006F822500028ACD01F
:10A650007D600E20A9E700004C2F00200C3C00205C
:10A66000F82F00202DE9FC5F0E008346DDE90C4742
:10A67000C6F1000098469246814600D4084601255E
:10A6800003E000BF90FBFAF06D1C5045FADAA845D4
:10A6900000D9454624B1002E01DB780700D5641EA1
:10A6A000B80702D5B8F1000F0AD0F80708D13CB1BD
:10A6B000A54205D220215846641EFEF7D9F9F6E7D7
:10A6C000002E02DA4E462D2102E0780703D52B2119
:10A6D0005846FEF7CDF907F0030002280BD1B8F178
:10A6E000000F08D13CB1A54205D230215846641E66
:10A6F000FEF7BEF9F6E7CDE900474346524631463C
:10A70000584607F00BFDBDE8FC9F000070B50D46F4
:10A71000044600684FF4887103F0F2F84FF490712A
:10A72000206803F0EDF84FF49271206803F0E8F828
:10A730004FF4A271206803F0E3F820681249C0F8D2
:10A7400004132068690740F30730090E002806DA71
:10A7500000F00F0000F1E02080F8141D03E000F18C
:10A76000E02080F800142068012140F3073000F059
:10A770001F0291404009800000F1E020C0F88012E3
:10A78000C0F8001170BD0000100302000246002056
:10A790001268530713D502F00300012802D00228E3
:10A7A0000CD105E0C2F383100B68801C184404E050
:10A7B0000223086803EB925210440860012070479E
:10A7C0000248007A002800D001207047E03C0020B9
:10A7D00010B509892AB1D088491C814218D10020BE
:10A7E00010BD90F8C62202EB8204C4EB821200EB8B
:10A7F000420212899142F2D0491C198090F8C61287
:10A8000001EB8102C2EB811100EB4100008902E003
:10A810001980D088401E5880012010BD0021425C64
:10A820000AB101207047491C1029F8D30020704755
:10A8300090F84000C0F3C100012803D0032801D0E4
:10A840000020704701207047800701D0002070472A
:10A85000012070470A4810B5807860B1002401E0FB
:10A86000022C06D02046FDF749FE641C042CF7D3C9
:10A8700010BD0324F6E7BDE81040FDF763BE0000FD
:10A88000DC2D002003480179C90702D00078FDF7CC
:10A89000BFBF7047DC2D0020F721018017214180C8
:10A8A000002101714171FB2181711B21C171704730
:10A8B0002DE9FE4F2E4F984692460D00814601D05D
:10A8C00000260DE0684600F0E1FD6A46002148469A
:10A8D00004F066FA3878009E10B99DF8090098B126
:10A8E00052463146484606F0E3FE04460146002241
:10A8F0004846FEF785FF0D2C37D008DCA4B3082CA2
:10A9000033D00B2C09D130E00520BDE8FE8F112C8F
:10A910001ED0A4F54050023827D0204602F0D0FFC8
:10A920000246144814494B46401AC008012101EB65
:10A930000040124902F0DFFA5FF00305B8F1000FA2
:10A9400004D0324621464846FEF7F8FC2846DCE7AC
:10A950002A46F9784846FDF7BDF95246B978484687
:10A96000FDF7B8F90025E9E7FFE72546E6E700002F
:10A97000A82E002040480300E04703004C3E03009F
:10A980007EDF042800D111207047000070B50D0053
:10A990001446064617D01648C1783046FDF79AF996
:10A9A0003046FFF75BFD0146A0F57F40FF3800D041
:10A9B00074B129463046FFF7E3FF04462878C00704
:10A9C0000BD001220AE0BDE870400021FFF7D8BF9C
:10A9D000304600F00FF8044605E002222CB10021B9
:10A9E000304606F0D5FA204670BD0121F8E7000098
:10A9F000A02E00207CB50E4605466A46072130464B
:10AA000004F076FA040013D0052C1DD0112C2BD0A5
:10AA100002F056FF0246194819493346401AC00849
:10AA2000012101EB0040174902F065FA03241BE005
:10AA3000019C94F84400183410F0010001D0019CEE
:10AA400034340CB110B106E011240DE004F1120011
:10AA5000FFF7C3FC38B1224604F11201284685DF16
:10AA6000040008D000E00B2400210022284606F054
:10AA70008FFA20467CBD0121F7E70000384803002B
:10AA8000E0470300DC3C030070B50E460C49154658
:10AA900004460978FDF706F900280FD0204604F097
:10AAA00025F900282A463146204603D0BDE87040EB
:10AAB00004F022B9BDE87040FEF7A0BB70BD0000F5
:10AAC000A02E002070B5094D0646A978FDF7EAF8DA
:10AAD0000446E9783046FDF7E5F80146224630465F
:10AAE000BDE870400123FFF7E3BE0000A82E002060
:10AAF0002DE9F047394E002780463D46DFF8E090CB
:10AB0000D6F804A057E003D00446D0F81C8035E006
:10AB100099F8002002EB4201521CD2B289F80020C1
:10AB200009EBC10199F80230091D9A4201D189F857
:10AB3000005048680A780446012A12D0022A02D03E
:10AB4000032A3BD108E006F0BDFF00B101272574C0
:10AB500034E00574C06900E070680028F9D17060C5
:10AB60002CE0207C50BB88686060C868A0600869E1
:10AB7000E0604869A061F07800B165606268B16822
:10AB8000184B501A20F07F40984202D2A168084426
:10AB900006E0881AA16820F07F40814202D9081A95
:10ABA000206000E0256065600120A56020742046DB
:10ABB000E56106F069FFB8F10000A4D199F8001032
:10ABC00099F801008142A3D117B97168514502D0AB
:10ABD0000120BDE8F0870020FBE70000182F0020CF
:10ABE0003C3A0020FFFF7F00F0B587B00546002704
:10ABF00018216846FBF761FCA5F57F40ADF80250CF
:10AC0000FF3825D02846FFF74FF9040022D01B4813
:10AC10001B49401AC6080B2C22D0112C1ED0A4F5BB
:10AC2000405002380ED0204602F04AFE0246012073
:10AC300000EB06402B46134902F05DF921462846F9
:10AC400006F072FA10483A4681782846FDF742F835
:10AC500007B0F0BD0E208DF800000BE00127F1E7F2
:10AC60000F208DF80000022000EB06402A4607491D
:10AC700002F03AF96846FEF7B7FBE3E7F047030056
:10AC8000E0470300A8300300042E0020FC3003003E
:10AC90000A4602494978FDF71DB80000042E00203D
:10ACA0002DE9F041002786B080463E46FFF744F983
:10ACB000040022D0112C22D01B481C49401AC50880
:10ACC000862C1ED0A4F5405002380ED0204602F04B
:10ACD000F7FD0246012000EB0540434614A102F0B7
:10ACE0000AF92146404606F01FFA39464046FFF76A
:10ACF000CFFF06B03046BDE8F0810126F5E7012719
:10AD0000F3E718221A496846FBF7BEFB0220ADF8AC
:10AD1000028000EB0540424616A102F0E5F86846C5
:10AD2000FEF762FBE1E70000F0470300E0470300A5
:10AD30006773636D5F6C6F63616C5F64625F6361B7
:10AD40006368655F75706461746528292072657435
:10AD500075726E656420257320666F7220636F6E56
:10AD60006E5F68616E646C653A20256400000000C7
:10AD700098280300466C6173682066756C6C2E2001
:10AD8000436F756C64206E6F742073746F726520EE
:10AD90006461746120666F7220636F6E6E5F6861BC
:10ADA0006E646C653A202564000000002DE9FF41C7
:10ADB0000026234800F02BFC2148001F074600F026
:10ADC00026FC204C60680090A56800E00098694669
:10ADD000284004EB80000C30FFF7D8FC0028F5D1A8
:10ADE00001AA009901EA050304EB8303491CDB680F
:10ADF00042F82030401C00910228F2D3019800F064
:10AE0000030001280BD0022810D10198032101EB87
:10AE100090500099BDF80A6001EB900005E00198A0
:10AE2000BDF80A60C0F3831008440090384600F073
:10AE3000EBFB08B10098606004B03046BDE8F081DB
:10AE4000B0420020983E00205C4986B08022A1F1EB
:10AE50001000FCF774FA20B159A24FF46871FBF7A7
:10AE6000D9F9FCF79DFA20B159A24FF45671FBF7BE
:10AE7000D1F902F0D5F920B155A240F21331FBF718
:10AE8000C9F957490320FDF779FC20B150A240F2DF
:10AE9000FA21FBF7BFF969460020FDF777FB20B1E7
:10AEA0004BA240F2FD21FBF7B5F99DF80000022806
:10AEB00066D000254FF40041002002F09BF820B13D
:10AEC00043A24FF44271FBF7A5F901F08DFEFDF7A7
:10AED00099FA3A4843499C3000F02FFC20B13CA23B
:10AEE00040F26131FBF796F904F010FB3E48FCF7A5
:10AEF0003BFF20B136A240F28521FBF78BF93B489E
:10AF000000902E486946103801909030FDF7C0F946
:10AF100020B12FA240F26E21FBF77CF906F086FFEC
:10AF200005F002FE25498022A1F11000FCF707FA86
:10AF300020B123A240F2B231FBF76CF92C492D4825
:10AF40001E4A081AC108032000EB01400446103ACB
:10AF500029A101F0C9FF20462AA101F0C1FF36A0B6
:10AF6000FBF744FE75B1204640A101F0B9FF05F0A2
:10AF7000B5F948B116A240F2B311FBF74BF903E063
:10AF8000012597E705F036FE01F03CFE0028FBD1D5
:10AF900003A8FCF783FA28B99DF80C00BB2801D15F
:10AFA00006F038F8054802A91038FCF7BDF900286A
:10AFB000EAD19DF80800FCF7FDFAE5E71C30002017
:10AFC0002E2E5C2E2E5C2E2E5C6D61696E2E630023
:10AFD0002E2E5C2E2E5C2E2E5C6D61696E2E630013
:10AFE0008186020075980200698E02002DB1020070
:10AFF000E0470300E04703004669666F2049643A72
:10B00000202570005175617465726E696F6E204FF6
:10B010007269656E746174696F6E20636F6C6C65C4
:10B0200063746F72206578616D706C6520737461F4
:10B03000727465642E0000005175617465726E69EA
:10B040006F6E204F7269656E746174696F6E2063F4
:10B050006F6C6C6563746F72206578616D706C6580
:10B0600020737461727465642E0A0D0045726173F9
:10B070006520626F6E647321000000002DE9F047C7
:10B08000C5881E1DB6FBF5F78946B6FBF5F10446EB
:10B0900005FB176C407916686843DDF820A0F718A7
:10B0A000001F874200D9C61A166001E02468491EB5
:10B0B0000029FBD1A5EB0C078846B74216D818E04B
:10B0C00004EB0C00001D09EB0803BAF1000F3A462F
:10B0D00002D00146184600E01946FBF7D5F924686E
:10B0E000F61B4FF0000CB844B54201D9374600E0DA
:10B0F0002F46002EE4D1BDE8F087000030B50246AF
:10B1000051B101F095FF0021074C08E034F82130DF
:10B110001568AB4202D11160002030BD491C81424C
:10B12000F4D3052030BD00000000000030B50C460F
:10B1300005460B785D485E4985B0401AC008012B72
:10B1400032D0022B5AD0032B7CD1032101EB0045D6
:10B15000144658A1284601F0C3FE227828465AA179
:10B1600001F0C2FE627828465BA101F0BDFEA27824
:10B1700028465DA101F0B8FEE27828465EA101F004
:10B18000B3FEE07840B128465FA101F0A9FEE27865
:10B190002846616801F050FEE378A27861785DA0EE
:10B1A000FBF724FD002575E0042101EB00405DA1C3
:10B1B00001F096FE6188221D2846FDF75DF820B15A
:10B1C00063A24FF4FA71FBF725F86088002104F0C0
:10B1D00007FB082805D020B15DA24FF4FD71FBF7F5
:10B1E00019F82846FDF788F800285CD005B058A269
:10B1F000BDE8304040F2FF11FBF70CB8144692F85E
:10B200003020900714D5B4F910000DF1040CB4F9F6
:10B210001650B4F91430B4F912108CE82B00B4F9BC
:10B220000E000090B4F90C304DA02168FBF7DEFC55
:10B2300094F83020D0070BD004F124000BC88DE81F
:10B240000B0000E02FE04FA0236A2168FBF7CEFC43
:10B2500094F8302050070BD5B4F91C10B4F91A003B
:10B26000CDE90001B4F918304EA02168FBF7BEFC0F
:10B2700094F83020100716D5D4E9001305B04FA07C
:10B28000BDE83040FBF7B2BC6068415D50A0FBF701
:10B29000ADFC6D1CE078A842F6DC05B04DA0BDE821
:10B2A0003040FBF7A3BC05B030BD0000E047030011
:10B2B000E0470300526573706F6E736520526563DB
:10B2C00069657665642E0000507265616D626C651B
:10B2D0003A20307825780000436F6D6D616E643AD6
:10B2E000203078257800000045727220436F646535
:10B2F0003A20307825780000417267204C656E67EF
:10B3000074683A2025640000417267756D656E743B
:10B31000733A0000526573702C25642C25642C252B
:10B32000640000005175617465726E696F6E204F24
:10B330007269656E746174696F6E20736572766987
:10B34000636520646973636F76657265642E0000BF
:10B350002E2E5C2E2E5C2E2E5C6D61696E2E63008F
:10B360005061636B65742C25752C25752C25642C18
:10B3700025642C25642C25642C25642C25640A0D59
:10B38000000000005061636B65742C25752C2575D9
:10B390002C256C642C256C642C256C642C256C6429
:10B3A0000A0D00005061636B65742C25752C2575A2
:10B3B0002C25642C25642C25640A0D005061636BD8
:10B3C00065742C25752C25752C256C640A0D0000E0
:10B3D0002C2564000A000000FEB517460D460646FF
:10B3E0000A7817481749401AC108032000EB0144A6
:10B3F00015A1204601F078FD6A78204616A101F0DB
:10B4000073FDAA78204618A101F06EFDA87840B11E
:10B41000204618A101F064FDAA782046E91C01F03D
:10B420000BFD174A07CA8DE80700B088ADF8020087
:10B43000ADF80670029530886946A3DFFEBD0000B6
:10B44000D0480300E0470300507265616D626C658F
:10B450003A20307825780000436F6D6D616E643A54
:10B4600020307825780000004C656E6774683A20BB
:10B4700025640000417267756D656E74733A000053
:10B48000A82D0300BFF35F8F00F0A9B8034A002185
:10B490009268C0E90021816070470000A82E00205A
:10B4A00070B54FF6FF750E46A84201D1002000E0AE
:10B4B000401C84B208E02146304600F090F808B104
:10B4C000204670BD641CA4B2FF2CF4D9284670BD80
:10B4D00010B5FAF7F8FE08B1002010BD112010BD1C
:10B4E00010B531B1B2FBF3F403FB14241CB10920F5
:10B4F00010BD0E2010BD016000214160816082817D
:10B50000C381084610BD70B50C460546FAF790FE9B
:10B51000002802D021882868084470BD10B50A8828
:10B5200049888A4203D1FAF7C5FE012010BD0020E8
:10B5300010BD70B50C460546FAF79FFE002802D0F4
:10B5400061882868084470BD10B50A8849888A4215
:10B5500003D1FAF789FE012010BD002010BD01F0D3
:10B560001F0301229A40D243490900EB8100114692
:10B5700000F059B80A4601F01F030121994010B5A7
:10B5800052090C4600EB820000F05DF8204000D02C
:10B59000012010BD2DE9F04180460D460024481ED3
:10B5A000012101EB501716E058F82400C04390FA2F
:10B5B000A0F0B0FA80F020280CD200EB4416AE4286
:10B5C00008D231464046FFF7D5FF0028ECD130467F
:10B5D000BDE8F081641CA742E6D82846F8E74A098E
:10B5E00050F8220001F01F0201219140084000D0D4
:10B5F0000120704701F01F0301229A40490900EB26
:10B600008100114600F029B8002100F017B801218F
:10B6100000F023B8012100F016B808B56A46FAF721
:10B620009EFE009808BD08B56A46FAF77EFE0098AF
:10B6300008BD08B56A46FAF792FE08BD08B56A4625
:10B64000FAF773FE08BD08B56A46FAF761FE08BD51
:10B6500008B56A46FAF750FE08BD08B56A46FAF71B
:10B6600057FE009808BD08B56A46FAF785FE0098AF
:10B6700008BD38B5044600258DF800506846FBF734
:10B68000C3FF21686268086890420ED9401E0860B6
:10B690000178238AE26801FB0325227A2168101AC7
:10B6A000C0B20A79824200D208719DF80000FBF70F
:10B6B000CFFF284638BD38B5054600208DF800007C
:10B6C0000C466846FBF7A0FFE868298A201AB0FB01
:10B6D000F1F12A681068431C136001709DF80000A6
:10B6E000FBF7B6FF38BD10B530B1017A4268036888
:10B6F000891AC9B21A6006E00E2010BD03681A68E4
:10B70000541C1C601170491EC9B2F7D20068002198
:10B710000171084610BDC20800F007030120895CD2
:10B7200098400840704710B5C20800F00703885CD5
:10B7300001249C402043885410BD10B560B10161C4
:10B74000F72120F8021B20F8021BFB2100F8021B46
:10B75000FFF7A2F8002010BD0E2010BD70B585883F
:10B760000C46002D4FD1018824291FD006DC10295A
:10B7700009D011290CD0232921D11CE03A290BD062
:10B7800055291CD10DE00146204602F0AFFD16E020
:10B79000A01DFFF781F812E00146204603F022F8D1
:10B7A0000DE00146204602F077FF08E00146204602
:10B7B00002F020FE03E00146204602F0A5FEA07A3A
:10B7C000002820D0E1882846A5DF0F490F4A01262E
:10B7D000891ACD0858B1112815D002F071F8024627
:10B7E00006EB0540BDE8704009A101F07DBB0023D8
:10B7F000A372E6720420E28800EB0540BDE87040C9
:10B80000104901F078BB70BD08480300E047030011
:10B8100073645F626C655F67617474635F657863AE
:10B8200068616E67655F6D74755F7265717565736C
:10B830007428292072657475726E65642025732ED4
:10B8400000000000B03303002DE9FC4100F12205A7
:10B85000EC1D0E46207810B10420BDE8FC810027C5
:10B86000C7EBC700284406223146401CFAF745FEC4
:10B870000028F2D07F1C17F0FF07F1D000206946A6
:10B88000C0F10502B25C0A54401CC0B20628F7D3CE
:10B89000084600F05FF843F20221884201D10846D1
:10B8A000DBE72178C1EBC1016A5C60F347026A54AF
:10B8B00000202278315CC2EBC2022A440244401CC0
:10B8C000C0B251700628F4D320781449C0EBC000F0
:10B8D000285C42081048401AC108042000EB0140CF
:10B8E00006460FA101F000FB0027207817A1C0EB4E
:10B8F000C000284438444278304601F0F5FA7F1CF5
:10B90000FFB2062FF1D3304611A101F0E9FA2078F9
:10B91000401C20700020A0E710480300E04703000F
:10B9200046696C74657220736574206F6E20616463
:10B93000647265737320747970652025692C2061A9
:10B94000646472657373203078000000257800000D
:10B950000A0D00000078800908D0012808D00228CC
:10B9600003D0032806D043F202207047032070471B
:10B9700000207047012070472DE9F041044600F196
:10B98000400600F1360790F83E5090F8340086B03B
:10B9900001F10208002825D08BDF14216846FAF750
:10B9A0008CFD2B463A46314640468CDF05460F4813
:10B9B0000F49401AC108042000EB01460DA1304692
:10B9C00001F08EFA06208DF8000030462A460CA1C0
:10B9D000019501F089FA002D04D0216D002901D0D4
:10B9E0006846884706B0BDE8F081000010480300B3
:10B9F000E0470300436F6E6E656374696E67000015
:10BA0000436F6E6E656374696F6E207374617475D5
:10BA1000733A2025640000004FF4C8718187062125
:10BA2000C1861821018700214187704710F8401F07
:10BA3000A02242805022828021F018010022C28080
:10BA400041F00401017001214170704738B132B1F9
:10BA500039B1022908D0032909D0072070470E20E8
:10BA60007047114600F074B81146FFF7EDBE11465D
:10BA700000F08EBA40B1212100220A542A210A5432
:10BA800080F83120104670470E20704730B51546BB
:10BA90000B46040002D0980702D009E00E2030BD0A
:10BAA000580705D4D80603D4180701D4072030BDA1
:10BAB0002046FFF7DFFF99074FF0010001D584F81A
:10BAC0002A00D90701D084F82100590701D584F84C
:10BAD000310084F83250002030BD70B50D460400AE
