:020000040002F8
:1060000000780020DD630200E5630200E763020020
:10601000E9630200EB630200ED6302000000000090
:10602000000000000000000000000000EF6302001C
:10603000F163020000000000F3630200F563020058
:10604000DD670200F7630200C56A0200F763020021
:10605000F7630200F7630200C5650200F763020000
:10606000F7630200F7630200F7630200F7630200C0
:10607000F763020035680200F7630200F76302006D
:10608000F76302005D680200F7630200F763020035
:10609000E1680200F7630200E5680200F7630200AE
:1060A000F7630200F7630200F7630200F763020080
:1060B000F7630200F7630200000000000000000028
:1060C000F7630200F7630200F7630200F763020060
:1060D000F7630200F7630200F7630200F763020050
:1060E000F7630200F7630200F7630200000000009C
:1060F00000000000F763020000000000F7630200E8
:10610000000000000000000000000000000000008F
:10611000000000000000000000000000000000007F
:10612000000000000000000000000000000000006F
:10613000000000000000000000000000000000005F
:10614000000000000000000000000000000000004F
:10615000000000000000000000000000000000003F
:10616000000000000000000000000000000000002F
:10617000000000000000000000000000000000001F
:10618000000000000000000000000000000000000F
:1061900000000000000000000000000000000000FF
:1061A00000000000000000000000000000000000EF
:1061B00000000000000000000000000000000000DF
:1061C00000000000000000000000000000000000CF
:1061D00000000000000000000000000000000000BF
:1061E00000000000000000000000000000000000AF
:1061F000000000000000000000000000000000009F
:10620000DFF80CD000F0A0F9004800475DAC0200B8
:106210000078002000B583B002900091019244F212
:10622000010071466A4600F08FFE03B000BD000019
:1062300030B450E8012F93B2C48923448489A34227
:1062400028BF1B1B0489A34202BFBFF32F8F00206E
:1062500007E0C3EA020340E80134002CE9D14FF023
:1062600001000A6030BC704750E8012FC2EA0242C8
:1062700040E801210029F7D1704730B450E8022FDF
:106280001FFAA2F3C488A34202BFBFF32F8F0020DE
:106290000DE0C48923448489A34228BF1B1BC2EAA2
:1062A000034340E80234002CE8D14FF001000A60BB
:1062B00030BC704750E8022FC2EA224240E8022177
:1062C0000029F7D17047034653E8022FD988B2EB73
:1062D000324F4FF0000017BF92B241EA014142EA4B
:1062E000014104E05A68B2EB324F08BF012043E895
:1062F0000212002AE8D1704730B4044654E8000F77
:106300000D4644E80053002BF8D1156030BC7047AF
:1063100030B4044654E8000F40EA010544E8005355
:10632000002BF7D1156030BC704730B4044654E8F8
:10633000000F00EA010544E80053002BF7D1156077
:1063400030BC704730B4044654E8000F80EA0105C1
:1063500044E80053002BF7D1156030BC704730B4CF
:10636000044654E8000F00EB010544E80053002BFD
:10637000F7D1156030BC704730B4044654E8000FC4
:10638000A0EB010544E80053002BF7D1156030BCA9
:10639000704770B404464FF0000054E8006F0D6879
:1063A000AE4207BF44E80023012044E800630E60CA
:1063B000002B1CBF0020F0E770BC704730B40446CF
:1063C00054E8000F88422CBF451A054644E80053A4
:1063D000002BF5D1156030BC70470000064880479F
:1063E00006480047FEE7FEE7FEE7FEE7FEE7FEE7BA
:1063F000FEE7FEE7FEE7FEE7E96802000162020051
:106400002DE9F05F0546002092469B4688460646E9
:10641000814640241BE0284641464746224600F07C
:1064200082F853465A46C01A914110D31146184675
:10643000224600F016F82D1A67EB01084F46224657
:106440000120002100F00DF817EB00094E41201E3D
:10645000A4F10104DFDC484631462A464346BDE844
:10646000F09F202A04DB203A00FA02F10020704756
:106470009140C2F1200320FA03F319439040704782
:1064800000487047082B030040EA01039B0703D034
:1064900009E008C9121F08C0042AFAD203E011F863
:1064A000013B00F8013B521EF9D27047D2B201E025
:1064B00000F8012B491EFBD270470022F6E710B509
:1064C00013460A4604461946FFF7F0FF204610BD62
:1064D000421C10F8011B0029FBD1801A704710B52F
:1064E000002200E0521C835C8C5CA34201D1002B93
:1064F000F8D1D8B2E1B2401A10BD30B50446002040
:10650000034600E05B1C934203D2E05CCD5C401B81
:10651000F8D030BD034611F8012B00F8012B002AFA
:10652000F9D118467047202A04DB203A21FA02F0FC
:106530000021704721FA02F3D040C2F120029140BD
:106540000843194670470000064C074D06E0E06816
:1065500040F0010394E8070098471034AC42F6D3AA
:10656000FFF752FE344403005444030070B58C1806
:1065700010F8015B15F0070301D110F8013B2A1157
:1065800006D110F8012B03E010F8016B01F8016B44
:106590005B1EF9D12B0705D40023521E0DD401F840
:1065A000013BFAE710F8013BCB1A921C03E013F809
:1065B000015B01F8015B521EF9D5A142D8D300203E
:1065C00070BD00002DE9F04F00268DB0DFF8A081EE
:1065D000B14604964FF48075012437460596284647
:1065E00006F0C8F838B1D8F80403204203D0284692
:1065F00006F0B6F826432D1D64007F1CADB2082FAF
:10660000EDD34FF4BE74204606F0B4F848B12046EE
:1066100006F0A6F846F0004604AA0221002006F083
:1066200089F8544C16F0FF0F15D00127002537428A
:106630000DD008EB8501D1F81005D1F81015C0F385
:10664000052054F82520C1F3014102B190477F0095
:106650006D1C082DEBD3002E7EDA0020CDF828909B
:10666000411E0DF1100B07AACDF82C9042F8201016
:10667000401C91460228F9D300252E46A11911F895
:10668000607F91F9000027F0C008401C40D007A9A6
:10669000404604F0C8FE40B34FEA971A404602F065
:1066A00069F954F820701FB1BAF1030F03D006E066
:1066B000BAF1030F2CD10AA9404604F0BCFE02A88F
:1066C000CDF8088005F0DAFF029900EB8100D0F8E0
:1066D000000704A9C0F301400290404604F0A3FE65
:1066E0000028029802D0022802D011E003280FD11E
:1066F000BAF1030F08D10298022833D00221404694
:1067000005F096FF6D1CEDB217B151464046B847F3
:10671000761C042EB2D3002D21D001AA0221002024
:1067200006F008F800205A460DF1040152F82060E6
:1067300051F82030B34217D000200AAE4FEA0903C7
:1067400051F8207042F8207056F8207043F82070FD
:10675000401C0228F4D300E001E0002D8CD10DB0E4
:10676000BDE8F08F0321CAE7401C0228DED3F6E71C
:10677000006000403C39002000F01F0201219140E0
:106780004009800000F1E020C0F88012704700F05E
:106790001F02012191404009800000F1E020C0F873
:1067A0000011704700F01F02012191404009800054
:1067B00000F1E020C0F8001270474907090E0028D8
:1067C00006DA00F00F0000F1E02080F8141D704799
:1067D00000F1E02080F800147047000070B54FF41D
:1067E0008076304605F092FA114CB50560B130461E
:1067F00005F093FA0120C5F80803607920B901205B
:1068000060712168002088474FF48276304605F099
:106810007DFA00280AD0304605F07FFA0220C5F83C
:1068200008032168BDE870400120084770BD0000E2
:10683000E02E0020064882B0002101600068009030
:10684000044800680449C0B2496802B00847000023
:1068500000D1004008D50040F02E0020074800215C
:10686000C0F84011C0F84411C0F84811C0F84C11EC
:10687000C0F80011C0F804110AF0DCBF001001409C
:1068800000F026B970B50E46144900EB400001EB4C
:10689000C0051446E86A183520B101280FD0022837
:1068A00005D113E0284600F047F9A04201D20024A8
:1068B00011E022463146284600F076F90BE02846E2
:1068C00000F03AF9A042F4D20446F2E731462846F5
:1068D00000F03DF90446204670BD0000B84200209B
:1068E0000AF0F6BE06F0CABD30B54FF08050002267
:1068F0008300D0F83011C3F80C21C3F81021624B8B
:106900001A60624B1B68624C2360604B1B1D1B6846
:10691000241D23605D4B08331B68241D23605B4BE3
:106920000C331B68241D2360584B10331B68241D37
:106930002360564B14331B68241D2360534B1833BC
:106940001B68534C20342360504B1C331B68241DA0
:1069500023604E4B20331B68241D23604B4B243394
:106960001B68241D2360494B28331B68241D2360AA
:10697000464B2C331B68241D2360444B30331B686B
:10698000434C40342360414B34331B68241D236047
:106990003E4B38331B68241D23603C4B3C331B6843
:1069A000241D2360394B40331B68241D23600124C0
:1069B000082902D1D0F8343113B1082904D006E0F7
:1069C000354B3449196005E0D0F8343113B108294A
:1069D00004D006E0314BFB21196005E0D0F83431DA
:1069E00013B1082908D00EE090F858322C480168FD
:1069F00063F30301016002E0D0F834311BB9294987
:106A00004FF40070086028480168C90702D06FF091
:106A1000010101602548016841F470010160BFF384
:106A20004F8FBFF36F8F4FF01021D1F80002002875
:106A300003DBD1F80402002822DA1D4B1C601D483C
:106A40000468002CFCD01224C1F800420568002D17
:106A5000FCD0C1F8044201680029FCD01A6001682A
:106A60000029FCD0BFF34F8F10487C380168124AD0
:106A700001F4E06111430160BFF34F8F00BFFDE7F8
:106A80000F490E48086030BD38050040040400106E
:106A900020C50040488103008C56004018F5004096
:106AA000E40E0040409602400004004088ED00E003
:106AB00004E5014000E401400400FA050090D00321
:106AC000F42F00200148006800470000E82E002055
:106AD00010B5124C02202061606111A0A06104F188
:106AE0007800E0614FF4806020620020A062606264
:106AF0000BA1A164E06204F58F61E1641021A0653F
:106B0000C4E91410E06509A1E01DFFF703FD08A129
:106B10002046FFF7FFFC2020A07110BDB8420020E6
:106B20005465726D696E616C00000000525454002F
:106B300053454747455200000269C1688A4203D85D
:106B40008068401A104400E0501A401E70472DE93A
:106B5000F047C4681746894606464FF0000830697A
:106B6000A04201D9051B02E0B168201A0D1AB068D5
:106B70006D1E001BA84200D80546BD4200D33D460D
:106B800070682A4620444946FFF77EFCB0687F1BA8
:106B90002C44A844A944A04200D10024F460002F52
:106BA000DDD14046BDE8F0872DE9F0410446884636
:106BB000D4E90207C51BE168606816460844B5427F
:106BC00006D94146FFF760FCB819E060BDE8F081E6
:106BD0002A464146FFF758FC761B08EB0501324672
:106BE0006068FFF751FCE660F0E70000014A0249E7
:106BF00000F0CAB875960200E82F002002E008C82D
:106C0000121F08C1002AFAD170477047002001E026
:106C100001C1121F002AFBD170470000012120286A
:106C200003DA81400548014003E0402802DA2038B9
:106C3000814009B10120704700207047FC06FFBD6C
:106C40002DE9F843804643F2020669B9694608F027
:106C5000D5FBB04204D018B1284A8D21FFF7DAFAEB
:106C60009DF80000800746D40021404608F002FC51
:106C7000050040D0112D3ED021482249401AC708B6
:106C8000022000EB07440D2D0AD00B2D1DD0B5427C
:106C90001FD11D4920464246BDE8F84305F0ACBF70
:106CA00020464246194905F0A7FF1321404676DFEA
:106CB000002820D006F08CFC024601B02046434656
:106CC000BDE8F04312A105F09EBF204642461E4992
:106CD000E2E7284606F07CFC0246012000EB074074
:106CE00043461AA105F08FFF2846BDE8F843034A42
:106CF000BC21FFF78FBABDE8F88300002C360300F3
:106D0000B4440300644403005C350300E83403002A
:106D100073645F626C655F6761705F646973636F02
:106D20006E6E65637428292072657475726E656471
:106D3000202573206F6E20636F6E6E5F68616E64D6
:106D40006C652025642E0000A8350300417373652F
:106D50007274696E672E20706D5F636F6E6E5F7305
:106D6000656375726528292072657475726E656435
:106D7000202573206F6E20636F6E6E5F68616E6496
:106D80006C652025642E00002DE9F04116460F4663
:106D90000446002503E03946B047641C6D1C20788A
:106DA0000028F8D12846BDE8F08131B500252C46F1
:106DB0002146684604F09BFA00B16D1C641C142C3B
:106DC000F6D3284638BD10B560B159B102780B78BA
:106DD0005208B2EB530F05D10622401C491CFFF7A5
:106DE0008CFB08B1002010BD012010BD800701D030
:106DF0000020704701207047C3688B4206D81144B9
:106E00000069491E814201D8012070470020704767
:106E100010B501220221002001F08CFB08B10728E7
:106E200010D107220221012001F084FB08B10728BC
:106E300008D100210A22084601F07CFB08B107288E
:106E400000D1002010BD70B58CB015460E46002351
:106E50006C46C3F10F01415CE1545B1C102BF8D36D
:106E60000D2104F11000FFF728FB0020C0F10F02F4
:106E7000315C2244401C11740328F7D3684646DF76
:106E80000020C0F10F01214491F820102954401C2A
:106E90000328F6D30CB070BD022001F023BA000025
:106EA0000149C97800F0F2BDA02E002070B5002481
:106EB000064D06E06868012110F8340006F0ECFB8E
:106EC000641C28788442F5D3002070BDF82E002081
:106ED000F8B515460C460646052A01D20720F8BD2E
:106EE00006F0D2FC18B906F095FC0028F7D112493B
:106EF00000224E600C708D60C1E90422C1E90622B7
:106F00000E4D0DE006EBC4002968009181788DF8E4
:106F1000011000780A4A694606F00AFC0028DED112
:106F2000641EE4B2EED2BDE8F84004480021054AF0
:106F3000001D00F015B90000F82E002010270300F6
:106F4000099C0200D98D0200FEB515460E46074683
:106F500072B605F00DFF00BF05F0DCFC0028FBD188
:106F60002249234A0120891AC90800EB0144012F54
:106F700023D06FF48050381822D0B0F5405F24D071
:106F80006FF44051C84206D12B88204619A16A6887
:106F900005F039FE04E0204632461DA105F02CFE26
:106FA00021480068C00700D000BE2A4603B0314621
:106FB0003846BDE8F04000F079B820461BA101E05A
:106FC000204622A105F014FEEAE7A86806F000FBBF
:106FD0000346D5E90001CDE900100296204624A120
:106FE000AA6805F02BFE20462BA1EBE734450300F1
:106FF00064440300415353455254494F4E20464187
:10700000494C45442061742025733A2575000000E1
:10701000554E4B4E4F574E204641554C54206174AF
:107020002030782530385800F0ED00E0534F4654BA
:107030004445564943453A20415353455254494FDC
:107040004E204641494C454400000000534F4654F1
:107050004445564943453A20494E56414C494420FF
:107060004D454D4F52592041434345535300000075
:107070004552524F52202575205B25735D20617467
:107080002025733A25750D0A50432061743A20304B
:107090007825303878000000456E64206F662065E2
:1070A00072726F72207265706F72740008B501237E
:1070B0008DF800309DF80030144B186059609A60CC
:1070C0006FF48041401807D001280FD1DA60D868EA
:1070D00000889861D86807E01A611869806858616B
:1070E00018690068986118694068D861186858681C
:1070F0009868D868186958699869D86972B600BFE5
:107100009DF800000028FBD162B608BD183A0020A7
:1071100010B58268C368934203D002F04BFA002096
:1071200010BD052010BD29B112B1531E134203D06A
:10713000092070470E207047016083800021816024
:10714000C1600846704710B58268C3689A1A838880
:107150009A4203D802F038FA002010BD042010BD76
:10716000084B9B7823B12AB120B10068037C1BB186
:107170000820704707207047002303744174426160
:1071800018467047383A002070B509F069FA10487F
:1071900000240B21047044700E4D817014206C602B
:1071A0002C706C70FFF7E8FA06211420FFF705FB3E
:1071B0001420FFF7ECFA0848046006211120FFF7BD
:1071C000FCFA0548001F0068A860002070BD0000A0
:1071D000383A0020182F0020081501402DE9FC47FF
:1071E000DFF8789099F8023073B368B3052902D2BA
:1071F0000720BDE8FC87436933B3437C012B25D0CE
:10720000002704460025884616468DF8005068463B
:1072100000F0EEF801A80AF05DFEC8B1012101708E
:107220000F4944600968C0E90218C0E904769DF876
:10723000040089F801009DF8000000F0FDF814201A
:10724000FFF7B0FA2846D4E70820D2E70F46D8E780
:1072500004259DF8000000F0EFF8F3E7383A00202D
:10726000041501400649897839B130B1416921B12D
:107270000021017402210AF0B9BA08207047000009
:10728000383A002070B50B4E01460B48B578FFF731
:107290003FFF04465DB10020B070711C0122C81D83
:1072A00004F0ACFD18B105A2CE21FEF7B3FF2046D5
:1072B00070BD0000CC2F0020404700202E2E5C2EF9
:1072C0002E5C2E2E5C2E2E5C2E2E5C2E2E5C636F82
:1072D0006D706F6E656E74735C6C696272617269F9
:1072E00065735C756172745C6170705F75617274F6
:1072F0005F6669666F2E6300F0B5244E89B01F4645
:107300000D00044672603FD0A888296882B22048E8
:10731000FFF709FF002835D1A889A96882B21C4867
:107320001030FFF700FF00282CD1202219496846B1
:10733000FFF7AAF860690690207C00B101208DF863
:1073400014008DF81C70607C00B10E208DF81500C3
:10735000E0680290A0680390206801906068009047
:107360000A480D4A6946083004F014FD002809D186
:10737000B0702068401C05D004490122491CC81D7A
:1073800004F03CFD09B0F0BD0720FBE7CC2F002046
:1073900040470020082A0300251A030010B50146C3
:1073A0001048FFF7D0FE040019D10F480F4A0178AA
:1073B000515C19B1001D06F061FD02E00C3006F0D1
:1073C00045FC60B9084907480839FFF7A1FE30B904
:1073D000054901220839044804F020FD04462046EE
:1073E00010BD000050470020D42F0020CC2E0020DC
:1073F00030B5EFF3108172B60D4A9468012324B1C1
:107400000370002900D162B630BD93604FF0E023D5
:10741000D3F88051074C25401560C3F88041D3F85C
:10742000844154605A17C3F8842100220270E8E7AF
:10743000443B0020FC06FFBD0B498A68002A11D09E
:1074400000280FD1EFF3108072B60B684FF0E022E6
:10745000C2F800314B68C2F8043100228A6000286B
:1074600000D162B670470000443B002070B505466D
:1074700008680C46411C04D005F035F9206805F079
:10748000C3F86068411C02D0002105F0ABF8296800
:10749000A069C1F82405607D227D29681043C1F8E8
:1074A0006C05D4E900122868C0F81425C0F80C1542
:1074B000207D012814D1A068411C02D0002105F0D4
:1074C00091F8E068411C04D005F00DF9E06805F082
:1074D0009BF8D4E902122868C0F80825C0F81015F6
:1074E00070BD70B5054608680C46411C04D005F017
:1074F00004F9206805F092F86068411C02D0002170
:1075000005F079F82968A069C1F82405607D217D1E
:107510002A680843C2F86C05D4E900122868C0F84C
:107520000C15C0F81425207D012814D1A068411C39
:1075300002D0002105F05FF8E068411C04D005F09E
:10754000DCF8E06805F06AF8D4E902122868C0F8AF
:107550000825C0F8101570BD03F050BA2DE9F047AA
:10756000814605884A484FF000088AB001784246B3
:10757000284600F0A3FA99F80500400701D400213D
:1075800076E005F58077B8B201AB0122072107F05C
:1075900043FB04003F48404A4FF00101A0EB0200CA
:1075A0004FEAD00001EB00460AD0204606F010F862
:1075B000024630462B46394905F025FB214629E095
:1075C000284602F055FE4FF6FF71044688422BD143
:1075D0008A46029802F0B6FD0446504510D0014696
:1075E000284602F025FE2846FFF75AFCE0B9284657
:1075F00009F048FB2846FFF753FC0028BFD013E0F2
:1076000007F0D6FC0446504508D1304624A105F0C9
:10761000EFFA0421284609F001FCB0E701462846AC
:1076200002F006FE4FF00108B8B22246072107F02B
:107630006BFB07001BD0862F1ED005F0C9FF02464A
:1076400030462B462349009405F0E5FA3946284692
:1076500009F0E4FB0021484607F0D2F9B8F1000F29
:1076600002D0204602F0EEFD0AB0BDE8F08701210D
:10767000484607F0C5F9F7E71822174903A8FEF7AF
:1076800003FFADF80E5003A801F0DCFDEFE70000AA
:10769000A02E0020BC44030064440300A83803006B
:1076A000436F756C64206E6F7420616C6C6F6361E6
:1076B0007465206E657720706565725F6964206609
:1076C0006F7220696E636F6D696E6720626F6E64A2
:1076D0002E000000543903008C260300F8B506463E
:1076E0004FF000001500ADF8000015D009236A46E0
:1076F000304600F015F80446BDF80000064458B1C5
:1077000054B12846FEF7E4FEA04205D12246314698
:107710002846FEF7F2FE08B10020F8BD0120F8BDB2
:1077200070B588B182B10024158803E0065D641C41
:107730003444A4B2A54203D8061976789E4201D0FB
:107740008C42F3D38C4201D3002070BDA11C118068
:10775000005D401E80B270BD2DE9F0418AB0064642
:107760000020ADF814001346102088468DF8040060
:107770000D4606AA01A9184664DFA6B398BB9DF87A
:107780000400022804D0042807D0102839D10DE0C5
:1077900003208DF81000022003E005208DF8100072
:1077A00004208DF81100002404AF0FE007208DF8AD
:1077B00010000620F5E73B5D05AA41463046FFF77D
:1077C000AFFF641CE4B20546022C04D2BDF81400DD
:1077D0000028F0D003E0BDF81400002812D080B2D9
:1077E000064400240BE00CE030199DF8042006A9A3
:1077F000FEF783FE48B19DF80400204484B2AC42F9
:10780000F2D300200AB0BDE8F0810120FAE71CB5F0
:10781000002822D0002920D00288112A3DD0362A03
:1078200021D0382A1AD0392A17D10A460B888188E4
:107830008B4212D143899488A3420ED1C389012B74
:107840000BD1ADF8021001218DF80010007C8DF8ED
:10785000040093686946104698471CBD09888088D3
:107860008142FAD115E00A460B8881888B42F4D117
:1078700030F80A3F9488A3420BD1ADF802100221E0
:107880008DF8001080798DF80400936869461046E1
:107890009847BDE81C400AF007B80A8880888242F1
:1078A000DBD14FF6FF7008800020488088801CBD27
:1078B0007CB504462548264B0A78C01AC008042324
:1078C00003EB00403AB98A88A2F5C0530F3B02D1BE
:1078D0008A79012A04D0BDE87C401EA105F088B950
:1078E00000228DF800204A88ADF80220002242F6DE
:1078F00019250B7A14E000BF02EBC20601EB460625
:10790000F689AE420AD102EBC20201EB42010A8BB8
:10791000ADF80420C98AADF8061003E0521CD2B2BB
:107920009342E9D816A105F063F92088A0F57F41BC
:10793000FF3906D0608820B9A08810B90198C4F832
:107940000200A2686946204690477CBDCC440300F3
:1079500064440300426174746572792053657276E1
:1079600069636520646973636F7665727920666107
:10797000696C75726520617420706565722E2000D7
:10798000426174746572792053657276696365200B
:10799000646973636F7665726564206174207065D5
:1079A00065722E00054808B5C16800918168684677
:1079B00003F0C1FC0098FFF7F8F908BDC4310020BE
:1079C00010B5044600F09AF8002805D02146BDE81D
:1079D0001040024803F08BBC10BD0000D4310020E1
:1079E00070B515460E4604460AF06EFA002809D016
:1079F000054800EB840080692A463146BDE87040A6
:107A000001F020BE70BD0000C431002010B5044656
:107A100000F074F8002805D02146BDE81040024867
:107A200003F065BC10BD0000D831002070B50546DC
:107A3000002400F063F838B12946044803F057FCED
:107A400008B1022400E00124204670BDD03100209E
:107A500070B50546002400F051F838B129460448B5
:107A600003F045FC08B1022400E00124204670BD6B
:107A7000CC31002010B51821034803F013FC18285E
:107A800000D0C0B210BD0000C431002070B5054662
:107A90000C4608460AF018FA60B1284600F02EF8A5
:107AA00040B10548294600EB8400BDE8704018301D
:107AB00003F01DBC002070BDC431002070B5054628
:107AC00014460E4608460AF0FFF9002812D0284650
:107AD00000F014F800280DD00748294600EB860076
:107AE00018301CB1BDE8704003F00CBCBDE870401C
:107AF00003F0BDBB70BD0000C4310020142801D3C9
:107B0000002070470146014803F0F1BBC831002056
:107B100070B540B10C4D297839B1044608F07AFDB2
:107B200028B1002070BD0E2070BD082070BDE8682F
:107B3000062807D20549226801EB8001401C0A6033
:107B4000E860EEE7042070BDF42D00203C320020F8
:107B500040B1054900220123CA600B70C1E901024E
:107B6000104670470E207047F42D002070B50400B9
:107B70002DD000292BD020480078002827D020883D
:107B80000D46112815D0302804D0322807D03328CC
:107B90001ED109E0211D284606F002FD18E0211D36
:107BA000284606F079F913E0211D284606F072FBFD
:107BB0000EE0A088B5F8CA12884209D1002085F8E5
:107BC000C70285F8C8024FF6FF70A5F8CA0270BD5B
:107BD00095F8C8020028FAD020883028F7D34F281B
:107BE000F5D8A088B5F8CA128842F0D12846BDE879
:107BF000704001F0A3B90000F42D002048B1084AFC
:107C0000137843B1D26832B190F8C7222AB111205B
:107C100070470E2070470820704701F08FB90000B0
:107C2000F42D00203EB50446011D03885248534AF6
:107C30000425801AC208032000EB024005EB024233
:107C4000192B70D00ADCA3F11003092B6AD2DFE8EC
:107C500003F02A4569786969697B7D00212B51D041
:107C60000CDC1B2B49D01F2B5CD131F8040B75DFCA
:107C7000002857D042A240F219110FE03B2B53D0FD
:107C8000562B4FD1104642A104F0B2FFA088132119
:107C900076DF002846D03AA240F2351103B0BDE8A5
:107CA0003040FEF7B7BA40A104F0A2FFA1884148D6
:107CB000FFF7A4FF18B132A2F421FEF7ABFA0720B8
:107CC00000F05AFC10B12EA2F72113E0FFF76AFE74
:107CD000002827D1BDE83E4008F0D6BD0A7936A17C
:107CE00004F08AFF002000F047FC0028EED024A218
:107CF00040F20511FEF78EFAE8E70979022911D161
:107D000034A124E010463BA104F072FF0020009053
:107D1000A08869468FDF002804D019A240F22511FF
:107D2000FEF778FA3EBD17E0104637A104F060FF79
:107D3000A088132176DF0028F4D011A240F22D1183
:107D4000ACE7104636A102E03DA100E044A103B03B
:107D5000BDE8304004F04CBFA37A617B227BC3F3C3
:107D6000C0030093CDE90121617A227AC1F3800337
:107D7000434904F063FFD5E764440300644403000F
:107D80002E2E5C2E2E5C2E2E5C6D61696E2E630095
:107D900047415454205365727665722054696D656D
:107DA0006F75742E00000000436F6E6E656374651E
:107DB000642E00000E2B0020446973636F6E6E65A5
:107DC000637465642C20726561736F6E2030782552
:107DD000782E0000436F6E6E656374696F6E20527B
:107DE0006571756573742074696D6564206F757451
:107DF0002E0000005048592075706461746520722F
:107E00006571756573742E004741545420436C6945
:107E1000656E742054696D656F75742E00000000E6
:107E2000424C455F4741505F4556545F5345435F61
:107E3000504152414D535F524551554553540000F6
:107E4000424C455F4741505F4556545F4155544849
:107E50005F4B45595F524551554553540000000052
:107E6000424C455F4741505F4556545F4C45534334
:107E70005F44484B45595F524551554553540000A6
:107E80000C2B030010B51A4C0188606810290ED025
:107E900011292BD1401E606028D1FEF7B9FF0028C0
:107EA00024D02168002921D0BDE810400847D0B96E
:107EB00000210122084600F03DFB08B107280FD140
:107EC00007220221012000F035FB08B1072807D165
:107ED00004220221002000F02DFB20B1072802D04F
:107EE000216801B188476068401C606010BD0000D7
:107EF000EC2D00202DE9F04F0746858802883E488A
:107F0000012197B08346102A09D0112A4BD01A2A92
:107F10006ED1387AB1EB101F47D2012246E0364CC1
:107F2000083CA068C0430B9061680BA803F003FAFB
:107F30000B990CA800F0DEFD2C220CA96846FEF778
:107F4000A3FA0026E946A04610E000BF09EB460070
:107F50005FF00004B0F804A008EB84005146001D57
:107F600003F085F9641C1D2CF6D3761C0098B042F2
:107F7000ECD8142D07D317B0E321BDE8F04F1FA2B2
:107F80000420FEF747B92946584603F0BBF92946B5
:107F900008F1040003F0B6F9F87B012828D0164850
:107FA0002946001D15E029461AE000220221B1EB06
:107FB000101F01D2012600E000260F49083901F107
:107FC0001000041D294682B103F09CF936B1294600
:107FD000204617B0BDE8F04F03F094B9294620467B
:107FE00017B0BDE8F04F03F042B903F040F9F5E7F0
:107FF00017B0BDE8F08F0000CC3100202E2E5C2E93
:108000002E5C2E2E5C2E2E5C2E2E5C2E2E5C636F34
:108010006D706F6E656E74735C626C655C636F6DC2
:108020006D6F6E5C626C655F636F6E6E5F737461C3
:1080300074652E630000000010B504460748007800
:1080400000280AD0204601F07DFF204609F020F8E4
:108050002046BDE8104001F05BBC10BD302E002072
:1080600030B1018012B11168C0F8021000207047D1
:108070000E20704770B58AB00D46040027D035B386
:10808000144E96E80F008DE80F000DF122016846AE
:1080900062DF41F6FF01ADF82010002815D110363F
:1080A0000DF1100C96E80F008CE80F000DF1260181
:1080B00004A862DF2868A0604FF6FF7020800020CF
:1080C0006080A08008A8FFF723FD0AB070BD0E20D5
:1080D000FBE70000582A030070B5E8B10F4C028896
:1080E000438820680E4D00EB8001401C00F0070023
:1080F000206005EB810102204B81C881081D0861C9
:1081000000248C810120087208714C710A808870EB
:1081100009F018FC204670BD0E2070BDEC2F002029
:108120006057002010B58AB0002921D000281FD048
:108130000288112A27D0382A1CD0392A18D10B4698
:1081400009888288914213D142899C88A2420FD12A
:10815000ADF8021002218DF8001000F11001079116
:10816000807B8DF820009C6807AA69461846A047C6
:108170000AB010BD098880888142F9D10AB0BDE8F3
:10818000104009F0DFBB0A8880888242F0D14FF6A8
:10819000FF700880002048808880E9E730B50A78C1
:1081A00087B0002A35D18A88A2F5C053FF3B30D171
:1081B00001228DF800204A88ADF80220002242F604
:1081C000FF240B7A13E000BF02EBC20501EB45056B
:1081D000ED89A5420AD102EBC20201EB42010A8BF2
:1081E000ADF80420C98AADF8061002E0521C934293
:1081F000EAD80188A1F57F42FF3A06D0418821B92B
:10820000818811B90199C0F802108368002269467B
:10821000984707B030BD000008B505F0F5F820B16B
:108220000D4A40F27711FDF7F5FF002000906946F6
:10823000012004F037FF20B1074A40F27D11FDF71D
:10824000E9FF684604F0CAFF002804D0024A40F261
:108250008111FDF7DFFF08BDE0AD02000149085CB8
:108260007047000090240300084908B5085C00909E
:10827000684604F0F5F9D0F810050099C84010F0F0
:10828000010000D0012080F0010008BD902403000F
:108290002DE9FC410646C0074FF000050ED0104FF7
:1082A00000240122385D009500231146019504F059
:1082B00035F9641C042CF4D300F04EF8B0070DD54A
:1082C000074E0024361D0022305D03230095114621
:1082D000019504F023F9641C042CF4D3BDE8FC815F
:1082E0008C240300094908B5085C0090684604F036
:1082F000B7F9D0F80425009B0121994021EA020337
:10830000C0F808351140C0F80C1508BD8C240300D6
:108310000249085C012104F0FAB900008C24030032
:108320000249085C002104F0F2B900008C2403002B
:10833000084908B5085C0090684604F091F9D0F847
:1083400004050099C84010F0010000D0012080F021
:10835000010008BD8C24030010B500242046FFF75F
:10836000D7FF641C042CF9D310BD10B5002420469F
:10837000FFF7D6FF641C042CF9D310BD10B50246DC
:10838000064B4FF0FF3000215C5C944201D108465F
:1083900010BD491C0429F7D310BD00009024030030
:1083A00070B50C4E0C004FF0000530600BD0012072
:1083B00000F06AF808B1022004E0002000F064F840
:1083C00000B10B202070706810B9FEF721FD054642
:1083D000284670BDEC2D002010B5002000F006FAF4
:1083E00008B1062806D1012000F000FA08B10628DD
:1083F00000D1002010BD00002DE9F0470D46814658
:10840000FFF7BCFF0446042836D2DFF874801B480F
:108410001C4EA8F10C0725B3012D0ED0022D2BD137
:1084200004EB440030444578002D25D0B96800297C
:1084300022D02846BDE8F047084704EB4401755CAC
:108440000E44717849B10E4A4FF40041093A8068F0
:10845000FEF7C4FE08B987F80390B17808F8041055
:10846000E2E78068FEF7FEFE04EB4401314418F8B1
:1084700004008D78A842D7D0BDE8F087942403008B
:10848000E82D002098310020042801D2FFF7ECBE2F
:108490000020704710B5184C042808D0072814D0C5
:1084A0000A2827D1BDE81040002004F055BD132153
:1084B000A08876DF08281DD000281BD0BDE810401A
:1084C0000EA240F2D911FDF7A5BE6078002811D1A7
:1084D0000E480F49401AC008032101EB00400DA1CE
:1084E00004F086FB0120607003F0D8FBBDE810406B
:1084F00008F0CAB910BD0000082B00202E2E5C2EFB
:108500002E5C2E2E5C6D61696E2E63006444030048
:108510006444030057686974656C697374207465FA
:108520006D706F726172696C792064697361626CDD
:1085300065642E0070B50023042810D20D4D00EBA9
:108540004004012A02D101290CD00022094E00EB7F
:108550004000304461B1012906D0022906D007232A
:10856000184670BD0E30C2B22A55F9E74270F7E7DF
:108570008270F5E798310020044A01460020127904
:10858000D20702D0084600F04DB87047DC2D00201D
:1085900070B506461E480024C0E90161B00720D529
:1085A0000025012211462846FFF7C4FF6D1C044632
:1085B000042D02D2002CF4D013E094B940F266628C
:1085C00004211448FEF784FC04000AD1FEF76EFC77
:1085D000040006D10F48104A0021001FFEF7C0FD1D
:1085E0000446F00712D00120FFF752FE74B9094883
:1085F0000A4A00210C38FEF7B3FD040006D10548F5
:10860000074A01210838FEF7ABFD0446204670BD3D
:10861000DC2D0020A0240300B988020099A60200E6
:10862000996E02002DE9F05F6E4C054600266078D9
:10863000B34618B184F801B002F016F86A4F4FF44F
:108640007A694FF4C87A4FF00108182D69D2DFE833
:1086500005F00C1313384754696E727B727BC58426
:1086600084848484B3B6B9BCC5C501F0FDFF386805
:10867000FEF7F8FD06465CE00020FFF759FE0028F3
:108680004FF0000008D0FFF743FE022D02D14FF457
:10869000E16008E0484606E0FFF742FE022D01D106
:1086A000C82000E05046410CC0034FF4FA72801815
:1086B00041F10001257052000023FDF7A1FE0146A3
:1086C0002AE00020FFF734FE00284FF0000004D01D
:1086D000FFF71EFE4FF44870E5E7FFF721FEDFE7E6
:1086E0000020FFF725FE00284FF0000002D0FFF722
:1086F0000FFECFE7FFF714FED4E70020FFF718FEC8
:1087000000284FF0000002D0FFF702FE01E0FFF763
:1087100007FE257041F69A1100223868FEF75EFDCB
:10872000064646E00020FFF7DDFD257008E000204A
:1087300051E025703DE084F801800120FFF7D2FD73
:10874000002240F6CD41E8E784F801800120FFF7E0
:10875000C9FD00224FF48041DFE77868FEF782FD13
:108760000646D5F1110000D02EB10220FFF7D0FD52
:1087700084F802B01DE0012816D980B2C821484310
:10878000C117C90341EA5041C0034FF4FA7280187F
:1087900041F1000152000023FDF732FE01460022A4
:1087A0007868FEF71BFD06460220FFF7B9FD84F846
:1087B00002803046BDE8F09F01F056FFB9E701F0B6
:1087C00053FFB4E701F050FF04E001F04DFF00203B
:1087D000FFF7A6FD0120FFF7A3FDAAE7FFF7C5FD00
:1087E000A7E70000DC2D002094240300012109F0FC
:1087F00089BB00002DE9F8430546861C00208DF852
:10880000000090460F464FF001096846FEF7F0FD64
:108810001B4C20683860D4E90001401AA16804F2BA
:108820001C47081A0EE00121384602F07EFD02F0D6
:10883000C7F90146384602F078FDD4E90001401A34
:10884000A168081A401C8642EDD8B8F1000F03D089
:10885000052065F3891002E0062065F39F50A268A9
:108860002168114004EB8101C86020683044206019
:108870009DF80000FEF7E0FD4846BDE8F8830000E3
:10888000943E002030B482680468531C8360A15475
:10889000D0E901128A4202D330BC03F0DCBA30BC0A
:1088A00070470000034803C8814201D1012070478E
:1088B00000207047943E002000780221FFF79CBD05
:1088C0001CB5044601F0D4FC00236A46092106F0D9
:1088D000E5FA052805D10348012241792046FFF732
:1088E000EDF81CBD042E00201CB50021009142F6BD
:1088F000A621ADF8001001218DF80210034901AA4C
:10890000096801916946A0DF1CBD00003C250300F9
:1089100005494FF0FF32082841F8202002D30844CF
:1089200080F85820704700003C390020F0B54FF027
:10893000FF3512B10023082601E008230C260C4C59
:1089400005E000BF54F823707F1C04D05B1CB342C9
:10895000F8D32846F0BD26185DB286F8305044F8AA
:108960002310002AF5D1E11881F85800F1E7000042
:108970003C3900200249084490F93000704700005B
:108980003C39002008B5024690F8C6020B4600EBC1
:108990008001C1EB801002EB400092F8C52242B189
:1089A000521ED2B202EBC20100EB4102518A491CB5
:1089B00000E0C188ADF800100089ADF802006946FA
:1089C00018469DDF08BD70B504464FF6FF750A4690
:1089D0002846AC4209D14FF480742146104602F07B
:1089E00061FC80B2A0420BD070BDFF2CFCD82146A8
:1089F000104602F047FC90F0010F01D0204670BDF8
:108A0000284670BD70B5084C050009D010342168A7
:108A1000002907D008682060496828468847F6E79B
:108A20000834F4E770BD0000D8380020054A012161
:108A300020B1012805D19170FFF7E4BF51700020EB
:108A4000FAE77047D83800202DE9F05F26484168E2
:108A5000F1B3DFF898B00E688146DBF80040876814
:108A60008078E11B21F07F45ED1CB0B9DFF88080F4
:108A70004FF48030C8F84403C8F804031120FDF710
:108A80007BFE1120FDF783FE4FF0010AC8F800A01D
:108A90002F2004F0F9FD89F802A0B54200D2354636
:108AA000124BE8193C3320F07F401860DBF80010CF
:108AB0005A46091B21F07F41001B20F07F40C91C52
:108AC00081420FD9106818602F2004F0DDFD00E00E
:108AD00004E0BDE8F05F1120FDF764BEBDE8F05F83
:108AE00007F0BEBDBDE8F09F182F0020041501401F
:108AF0000010014073B58CB00646002000900D9820
:108B000080B100246D4621460DA802F0F0FB30B183
:108B1000009805EB400084800098401C0090641C85
:108B2000142CF0D32C2269463046FDF7ADFC0EB074
:108B300070BD0000F0B587B016460F4604461D46CE
:108B400018220B496846FDF79FFC0A488DF808700B
:108B5000ADF80240ADF80A608DF80C5001780022A3
:108B60002046FEF7ABFF684600F06CFB07B0F0BD97
:108B7000A4260300A02E0020FEF762B8F0B50C4634
:108B800006461E481E4987B0401AC708042000EB5D
:108B90000740334622461BA104F035F8002004901C
:108BA0000590ADF8104001900290ADF8124001AA76
:108BB00004A9304690DF05001DD004F009FD0346EE
:108BC000012000EB0740044632461A4904F01BF826
:108BD000BDF8042012B9BDF8060028B1BDF8063072
:108BE000204615A104F00FF8BDF808201AB1204660
:108BF000214904F001F807B02846F0BD8C44030079
:108C0000644403005570646174696E672064617424
:108C100061206C656E67746820746F202575206F05
:108C20006E20636F6E6E656374696F6E2030782599
:108C3000782E0000C8300300546865207265717595
:108C400065737465642054582F5258207061636BAB
:108C50006574206C656E67746820697320746F6F2B
:108C6000206C6F6E672062792025752F2575206F27
:108C700063746574732E00001431030010B504464C
:108C800001460548FFF78AFA21460348BDE810402F
:108C90000C30FEF70DBE00009C30002070B504467D
:108CA0000948012102F05CFBBFF35F8F002500281B
:108CB00008D1204601F0FEFE002803D1BFF35F8FEC
:108CC0000148056070BD0000102E00207FB50C46E5
:108CD00010B1012004B070BD2079002638B141F6F2
:108CE0001D5501281BD0022826D00F20F2E70220B4
:108CF000207102960396E0680190694601A807F08A
:108D0000EFFB50B102988188E18000882081BDF896
:108D10000010029807F062FCDCE70A20DAE70A4B51
:108D20006A460021A01D07F097FB38B106491839A3
:108D30008E61CE610A28CDD12846CBE702488188D2
:108D4000019807F04BFCF5E7442F00202DE9F8438C
:108D5000054690F8C6020F4600EB8001C1EB80107B
:108D600005EB400695F8C542914604EBC40006EBBE
:108D700040013279601C0A31904226D16B460022B4
:108D8000284601F02FFC18B310E0401EA04201D18C
:108D9000002004E004EBC40006EB40001C308046D9
:108DA00002466B46284601F01DFC30B100203870A9
:108DB000694648469EDFBDE8F88395F8C5024146FE
:108DC000401C641C85F8C502E4B23079A042DCD8AE
:108DD000012038700020EEE72DE9F0470025DFF88C
:108DE0008C803CE06068002100EBC50601203278F1
:108DF0009146FDF736FBD4E9062300EA020701EAB3
:108E0000030C57EA0C0728D082438B434846C4E939
:108E1000062304F0F7FC32788246914601200021B7
:108E2000FDF71FFBD4E9042300EA020401EA03076B
:108E30004A4650460021FDF714FB44404F403C4356
:108E40000BD17078012801D0012100E00021726867
:108E500081EA0A010AB1484690476D1CEDB298F8C4
:108E6000000044468542BDD3BDE8F087F82E0020BF
:108E70002DE9F047894690F8C612904601EB810231
:108E8000C2EB811100EB4107384607F0C3FB060037
:108E90002FD0194CA06806282BD2184D762205EB4E
:108EA000C0103946A0F80280001DFDF7EDFA00273A
:108EB000B9F1000F04D0A06805EBC010077004E002
:108EC000A168022005EBC1110870A06805EBC01174
:108ED000401CCE67A060E16888420AD1002604E009
:108EE00005EBC610C16F8847761CE0688642F7D351
:108EF000A760BDE8F0870000F42D00205432002068
:108F000070B50E4690F8C612154601EB8102C2EB11
:108F10008111A0B000EB410007F07CFB040009D0F8
:108F20007C2205496846FDF7AFFAADF80250684665
:108F30000196A04720B070BDC024030070B50E4656
:108F400004464FF43371FDF7B8FA1748A4F8CA6223
:108F50000025856084F8C952144884F8C65284F804
:108F6000C55200682060124812492288401AC00881
:108F7000042101EB004033460F4903F044FE224632
:108F8000012130469BDF0121112806D0002809D19C
:108F900084F8C71284F8C85203E084F8C71284F832
:108FA000C812002070BD0000F42D00203C320020CB
:108FB0006C44030064440300602C030010B50021DE
:108FC000024802F0CDF980F3100010BDB04200203D
:108FD0000E4910B50A784C780023A24212D0521CD8
:108FE000D2B20A70022A00D10B70084A0B780C32F8
:108FF00052F8232002608868104420F07F40886087
:10900000012010BD0360002010BD0000182F0020BB
:1090100013460A460021FFF78DBD00002DE9F843F5
:10902000104D0F4680461E4691466946286802F05C
:10903000F2F8040014D01C21FDF73FFA0120207142
:10904000C4F81490380BC4F80080C4E90260694683
:10905000286802F001F907F05FF90020BDE8F88305
:109060000420FBE7B027030010B503780022072B8C
:1090700006D2DFE803F005040610202930000A704C
:1090800010BD01230B7003898B818388CB81C0685D
:1090900088600A7410BD02220A7002898A8182885F
:1090A000CA81C2688A60807D062802D000200874C8
:1090B00010BD0120FBE703220A70C2888A81028961
:1090C000CA81C068886010BD04230B70C088888185
:1090D000CA818A6010BD0520087010BD70B5064DAC
:1090E0000646002455F8241009B130468847641C10
:1090F000042CF7D370BD00006C3B002030B5044653
:10910000006887B00D46806800281FD01821684687
:10911000FDF7D3F90195A0680590207910B10128D9
:1091200010D107E001208DF8000020690290E0686E
:10913000039005E002208DF80000E0680003029033
:1091400060690490206881686846884707B030BD30
:109150002DE9F04186B016460C00804629D0112C2E
:1091600027D0082C25D018216846FDF7A6F9ADF8C0
:109170000280404601F07CF8ADF804001B481C4911
:109180000027401AC5080D2C16D0204604F020FAFE
:109190000246012000EB05404346164903F033FD2B
:1091A00007208DF8000002948DF80C70684600F0DE
:1091B00057F806B0BDE8F081022000EB05404246BA
:1091C0000D4903F019FD03208DF8000026B1307819
:1091D000C00701D0012000E002208DF8080041F214
:1091E00001108DF80C70ADF80A00DFE7C4440300ED
:1091F00064440300743B0300643A030010B5044662
:10920000408801F035F8A080024801682046BDE89A
:10921000104008470C2E00202DE9F041074600249D
:10922000064E074D05E000BF56F824103846884723
:10923000641CE8788442F7DBBDE8F081EC3700205D
:10924000302E002010B50446408801F011F8A080AF
:10925000024801682046BDE8104008475826030030
:109260000149096808470000FC26030070B586B074
:10927000044618216846FDF720F9A0890125A0F5CC
:109280004040ADF804002078324E062835D2DFE8A1
:1092900000F0340303032E4EA08900F09EF930B98C
:1092A000E08943F6FE71A0F54040884225D8A07BB6
:1092B0008DF808002078032811D000208DF80900CF
:1092C000A0680390606860B109208DF800006068B4
:1092D00004908DF81450684605F032FD0DE0012031
:1092E000ECE708208DF800008DF81050F3E7A08916
:1092F00000F073F908B1E08930B17078002801D02E
:1093000005F06AFE06B070BD606840B10B208DF8B4
:109310000000606802908DF80C507570DBE70A2041
:109320008DF80000BDF8040005F0F4FEF5E7606874
:1093300058B114208DF80000606802908DF80C5030
:109340004FF6FF70ADF80400C5E713208DF800005C
:10935000F6E700001C2E002038B504460E480078C1
:10936000A8B1A4F57F40FF380FD0684606F006FF8D
:1093700078B10521017001210171C480684606F0B1
:109380000BFF06F0BBFF002038BD042038BD0220D3
:1093900038BD082038BD00004C2F00200C4808B50F
:1093A000007888B1684606F0E9FE78B106210170C0
:1093B000684606F0F1FE0748017809B10121017302
:1093C00006F09CFF002008BD022008BD082008BD53
:1093D0004C2F0020303C0020F0B587B014216846A7
:1093E000FDF76BF82B4C207818B16846FFF776FE36
:1093F0004EE0201D01F096FFB8BB4FF010204169F0
:109400000004026940694B1C01D100FB02F12248B3
:1094100000220161A1F54051C160204902F0B0FE77
:10942000002820D11F481C238C221D49006801F010
:10943000DFFE05F017FA051E14D0022812D000270F
:109440000126062D12D005A806F098FE88B10670F8
:109450000C2D18D2DFE805F0170F170F1716171687
:10946000171113110B2007B0F0BD11E026706760D3
:10947000BBE70820F7E7077105E0032100E00221C0
:10948000017100E0067105A806F086FE06F036FFC1
:109490000020E8E74C2F0020F82F0020C027030011
:1094A0007C3B00202827030038B5040014D069460F
:1094B00007F016F8A0B1BDF8000000EB80010948E4
:1094C00000EB8100C16849B1A17A39B1C168491E78
:1094D000C1600020A07238BD052038BD062038BD0F
:1094E0000A2038BD083C00201FB501A9684606F0D7
:1094F000B3FF04B010BD07B513460A466946002005
:1095000006F0AAFF0EBD07B513460A4600216846BD
:1095100006F0A2FF0EBD20B119B10068086000205E
:109520007047052070470000F8B50D46040018D0BC
:10953000BDB1694606F0D4FFA8B1BDF800000B49E3
:1095400000EB800001EB800001210C30666801F027
:10955000ECFE2E6060680C3068600120A072002074
:10956000F8BD0520F8BD0A20F8BD0000083C002029
:1095700018B10323002208F045BE052070470223DE
:10958000002208F03FBE0000084910B50A69042A0D
:109590000AD0074A096942F8210004480121103025
:1095A00001F0C3FE002010BD0C2010BD2C2F0020A8
:1095B0006C3B0020826883881A4003689A5C0A70BA
:1095C0008168491C81607047C26883881A400368BB
:1095D0009954C168491CC160704743F6FE71A0F5FB
:1095E0004040884201D8012070470020704710B5E4
:1095F00004460078182802D1FEF73CFA207010BD0E
:1096000010B504460078182802D1FEF733FA20700E
:1096100010BD000070B5134600220546112900D187
:109620000122074C33B12179FEF748FA0022617814
:10963000284600E06178BDE87040FEF73FBA0000C0
:10964000A82E0020F7B517460E0011D0009800256F
:1096500060B100242146684601F049FE18B1A0B26D
:109660003946B0476D1C641C142CF3D32846FEBD4C
:109670000020FEBD10B50446C0B2FDF78FFE2046A7
:1096800010BD406806F09ABD0D480E4B0A88C01AFE
:10969000C0080323A2F5206203EB0040773A09D00B
:1096A00002F6FD72B2F5604F08D10B794A8806A127
:1096B00003F0A9BA8B884A880FA1F9E77047000028
:1096C000644403006444030044617461206C656E6B
:1096D00067746820666F7220636F6E6E656374696D
:1096E0006F6E203078257820757064617465642011
:1096F000746F2025642E0000474154542041545477
:10970000204D5455206F6E20636F6E6E65637469D3
:109710006F6E2030782578206368616E67656420FD
:10972000746F2025642E000070B508B1012070BD53
:109730001B4C0025207B08B1257301E000F0A4F844
:10974000207808282AD2DFE800F02904080C102924
:109750001422BDE8704000F025B8BDE8704000F06C
:1097600081B8BDE8704000F063B8BDE8704000F01B
:109770003FB8062020706088094900EB8000283936
:1097800001EB80004068BDE8704005F04BB8072051
:1097900020706560BDE8704005F052B80F2070BDC4
:1097A000303C00201149F0B48A1C00200346A1F18E
:1097B00028050C18A67A4EB1A37200EB800405EBC5
:1097C0008404E66816B9247C012C0AD0401C80B2BF
:1097D0000228EED30B704B804B60F0BC41F61D505D
:1097E00070471080F0BC00F03DB80000303C002015
:1097F0000C48418801EB8102A0F1280101EB8201B4
:10980000CA6852B1052101700748022181800168B0
:1098100000230122054802F017BC042202704968A7
:10982000F6E70000303C0020542F0020F82F0020E5
:1098300038B50A49084803240B684268898803EB55
:10984000810153880470DB1C00201B0400909B0BDB
:10985000034802F075FD38BD303C0020542F002035
:10986000F82F0020074910B54888091D06F088FE2A
:1098700018B1BDE81040FFF7DBBFBDE81040FFF7AF
:10988000B7BF0000303C0020F0B51F481F4901253C
:10989000067802248B88A0F12802082E19D2DFE86E
:1098A00006F00418181B222F2F170189491C01816B
:1098B0000021418080F80C1001EB810312F8233065
:1098C00043B100234418491C89B2A3720229F3D37F
:1098D0000570F0BD0123F5E742685288D21C1A4496
:1098E0008A800470F0BD46880D6806EB860602EBA0
:1098F000860256680E60556013818C80062100E058
:1099000007210170F0BD0000303C0020542F0020E2
:109910002DE9F041044680882188394E86B00746FB
:10992000352937D0502923D0522902D054295DD16E
:1099300002E001F063F859E0182232496846FCF76A
:10994000A3FDADF80270384600F092FCADF80400BB
:1099500000F09CF9002231793846FEF7AFF800227A
:10996000F1783846FEF7AAF86846FFF747FC3DE075
:10997000207B01283AD1A07A012837D12089A0F58F
:109980002451023932D10121384601F08BF808F018
:1099900083FA2BE04FF0000842467179FEF78EF80B
:1099A000E288B2F5857F1DD017481849401AC008D3
:1099B000022101EB004512B1284615A10BE0628996
:1099C000012A03D0284621A103F016F9A289012A11
:1099D00004D028462CA103F00FF903E0A07B00B1CE
:1099E000012080464146384607F046FE00223549B0
:1099F000B078FDF7F5FF06B0BDE8F04107F048BAD2
:109A0000042E0020982503007444030064440300DE
:109A1000556E6578706563746564204741545420C1
:109A2000737461747573207768696C6520676574F9
:109A300074696E67204341522063686172207661C9
:109A40006C75653A20307825780000004D756C748F
:109A500069706C6520282564292043415220636881
:109A60006172616374657269737469637320666F90
:109A7000756E642C207573696E6720746865206646
:109A8000697273742E000000556E6578706563749A
:109A9000656420434152206368617261637465723A
:109AA00069737469632076616C7565206C656E6797
:109AB000746820282564292C2073746F7265203007
:109AC0002E0000005975020070B504460078002889
:109AD00014D1608800F092FF6588284600F098F95C
:109AE00028B107480122C1782846FDF7E7FF6088C2
:109AF000FEF7E6FEBDE8704008F0CEB970BD00008C
:109B0000042E002070B51A4C00252570FDF7B2FF19
:109B10006070FDF7AFFFA070FDF7ACFFE070FDF7E0
:109B2000A9FF2071FDF7A6FF607162780121182A54
:109B300012D0A278182A0FD0E278182A0CD02279F5
:109B4000182A09D0182807D004F10C000560BFF3CB
:109B50005F8F2170002070BD0648074A801AC00838
:109B600001EB0040054903F043F8032070BD0000FD
:109B7000042E00207444030064440300A82C030056
:109B80007CB504460078082837D1607A58BB207A23
:109B90001C4E4FF6FF75012811D0072802D0082867
:109BA0002BD121E0A08800F03BFA0446A84224D043
:109BB000012100F077FF2046FEF782FE1DE0A0881D
:109BC0006A46012104F0DEFF68B90198007850B1BF
:109BD000A08800F025FAA8420FD00122F178FDF705
:109BE0006DFF07F055F908E0F068012805D1BFF3D3
:109BF0005F8F044900200C310860BDE87C4008F00C
:109C00004BB90000042E00202DE9F04180460246A9
:109C100001200021FCF725FC1A4F05460E46786806
:109C2000FDF720FB00280CD1174CD4E90621104683
:109C30002A4001EA06031A4305D0A843B143C4E908
:109C40000601BDE8F081404603F0DCFD30B1D4E907
:109C5000040128433143C4E9040105E0D4E90410B8
:109C6000A943B043C4E90410D4E9060128433143B1
:109C7000C4E90601A1687868BDE8F0410022FDF75B
:109C8000ADBA000010270300F82E00201CB5054ACD
:109C9000D2E90212CDE900120022694605F038F936
:109CA0001CBD0000B425030003484FF6FF718180FE
:109CB0000121017000207047142E00202DE9FC4185
:109CC000804600F0D5FA002403250127A0F57F4146
:109CD0002646FF3908D06A46082104F053FF18B918
:109CE0000198841D8688056832462B4621464046E9
:109CF000B1DF042804D0082804D00B2808D002E0E3
:109D0000112000E00020002F00D10B20BDE8FC81D5
:109D10000027A80701D50125E6E7344303D0002436
:109D200026460325E0E7064806494246401AC00891
:109D3000012101EB0040044902F05EFFE5E700006D
:109D40007C44030064440300182F03002DE9FC4108
:109D5000804600F08DFAA0F57F410646FF390ED00F
:109D600001252A466D1C0027ADB26B4608213046FE
:109D700004F052FF040006D0072C33D033E043F246
:109D80000200BDE8FC81019903230A1D0B604046D7
:109D9000891DB2DF040004D00C2C09D0052C09D099
:109DA00009E032460821104604F0AEFF04461AE0EE
:109DB000012700E000240821304604F09BFF70B129
:109DC00003F006FC0346094809493246401AC00818
:109DD000012101EB0040074902F015FF0324002F89
:109DE000BFD100E00C242046CBE700007C440300F8
:109DF00064440300982E030004488088A0F57F4146
:109E0000FF3901D007F04EB870470000142E002033
:109E10000EB502A9019100F02BFA6A46012104F067
:109E2000B1FE08B100200EBD019800780EBD000003
:109E30002DE9F04107464FF6FF761048B3DF78B1C1
:109E400003F0C6FB02460E480E49401AC008012125
:109E500001EB00400C4902F0CFFE0320BDE8F08189
:109E6000064C43F20305A41E324661883846AFDF34
:109E7000A842F3D16088401C6080F5E7162E0020D0
:109E80007C440300644403004C2E0300428800EB32
:109E900082020C328A4201D9022070478188A1F5E2
:109EA0007F42FF3A03D0008808B1002070470120AC
:109EB0007047884204D20068401C01D001207047DE
:109EC000002070473EB5027802230C46B3EB520FD8
:109ED00017D1B0F80110ADF80010C1788DF802105C
:109EE0008188ADF8041080798DF8060002AA01A9D6
:109EF0002046FCF7A8FF032202A96846FCF7FDFAFA
:109F000008B100203EBD01203EBD000070B50D46E9
:109F10000446142810D2FDF7F1FD68B1084904EB9E
:109F2000840001EB4000D0F802102960C188A980AC
:109F3000007AA871002070BD43F2020070BD0000DD
:109F40005435002070B5018892B0102961D1011DEF
:109F50002C226846FCF798FA9DF804004FF6FF762D
:109F600003213446B1EB500F2BD004F08FFF9DF846
:109F700004006D4640080ED001280CD0022820D1E4
:109F800018E00D99281D1131FCF71DFF18B100BF15
:109F9000BDF82C4015E00CAA0BA9072004F04AFFDD
:109FA0000028EED10DE00D99281D491CFFF78AFF0E
:109FB0000028EDD10CAA0BA9072004F03BFF0028D4
:109FC000F1D1BDF80000B44200EB8001124820F846
:109FD000114000EB41000199C0F80210BDF80810D3
:109FE000C1809DF80A10017213D0BDF80000ADF8D1
:109FF0002E000020ADF83040084E8DF82C000BAD3F
:10A00000044600BF56F8241028468847641C022CDA
:10A01000F8D312B070BD000054350020C8250300ED
:10A020002DE9F0414FF6FF760546B04213D00B4FB5
:10A03000002400BF04EB840037F81000A84206D1CA
:10A040002046FDF75BFD10B12046BDE8F081641CA1
:10A05000A4B2142CEED33046F7E7000054350020AC
:10A060002DE9F043CFB00F46060022D00FB35020A9
:10A07000ADF83401E846CDF830D1B82114A8FCF78A
:10A080001CFA002043AA14A9C0EBC00303EB001381
:10A090000B4442F82030401C0828F5D32548264AB6
:10A0A0000024801AC0080222C14602EB00458846FF
:10A0B00038E00022114610466FDF4FB0BDE8F08354
:10A0C00050216846FCF7F9F936F814004DAB4BAA5D
:10A0D000072104F0E3FE052810D007280ED09DF8D4
:10A0E0001100400812D0012810D036F8142013496E
:10A0F000284602F081FD43F20220DEE736F8142004
:10A1000028460F4902F078FD0520D6E7C4EBC400CD
:10A1100000EB041101EB0800172209F10101FCF723
:10A12000B3F9641CBC42CBD3FAB2002143A86FDF61
:10A13000C3E700008444030064440300902F03003D
:10A14000183003003EB50C46054604F09FFE0BE0B8
:10A15000BDF80000A04207D02846029900F00EF892
:10A1600010B1BDF800003EBD01AA6946072004F009
:10A1700061FE0028ECD14FF6FF703EBD2DE9F041A5
:10A180000C46054600F1110701F111061022491C89
:10A19000401CFCF7B2F948B9681C00F049FA28B134
:10A1A000601C00F045FA08B1012400E000243146AB
:10A1B0003846FCF708FE3B780222B2EB530F0CD076
:10A1C0000321B1EB530F08D03378B2EB530F04D017
:10A1D000B1EB530F01D0012100E00021084201D171
:10A1E0008C4302D00120BDE8F0810020FBE701880C
:10A1F00011B9421892780AB101207047491C082908
:10A20000F7D30020704710B50C460346FFF7EFFF69
:10A2100000280AD018882188884205D10822A11C6C
:10A22000981CFCF76AF908B1002010BD012010BD90
:10A23000142804D2024A00EB800022F81010704764
:10A240005435002070B50546FFF7EAFE044628465F
:10A2500004F09CFC002808D1142C06D2034B04EB1C
:10A2600084024FF6FF7123F8121070BD54350020A0
:10A2700010B50446142808D2FDF740FC28B1044963
:10A2800004EB840031F8100010BD4FF6FF7010BDD4
:10A29000543500203EB5044604F0F8FD0EE0019967
:10A2A00020464631FFF7AFFF28B9019920462A31F1
:10A2B000FFF7A9FF10B1BDF808003EBD6A4602A92C
:10A2C000072004F0B7FD0028E9D14FF6FF703EBD2E
:10A2D0007CB514460A000A49097802D015688D42F7
:10A2E00003D323B11D688D4201D204207CBDCDE98A
:10A2F000004313460246034804F094FF7CBD00006F
:10A300001A2E00201C36002070B50C4606469AB066
:10A3100010211848FCF7D1F8174800252EB324B3B4
:10A320000470620031461348FCF7AEF8382102A8E9
:10A330001895FCF7C2F8009518AB02AA21463046E2
:10A34000019504F06FFF00280DD110AA0DF108014E
:10A35000C0EBC0030B4442F82030401C0828F7D360
:10A36000E1B210466EDF1AB070BD057000210846DC
:10A370006EDFF8E71C3600201A2E002010B50A49BF
:10A3800041600A4800F0CEFF58B903F089F8074948
:10A390001C238C22087404488C39001F006800F0CC
:10A3A00027FF002010BD0000B4270300DC3C002084
:10A3B0002DE9F0412D4F002518B17D600120BDE849
:10A3C000F0810879012258B1294E01280CD0274C80
:10A3D0004FF002080834022821D0032842D128E097
:10A3E0000A7104F02DFA3BE05FF0000000EB800101
:10A3F00016F82110022908D0401C80B20228F5D39B
:10A400003A707D6041F61D50D9E700EB800006F8F8
:10A41000205006EB8000406804F004FA20E00D7143
:10A42000A4F80480002301221248216801F00CFEE8
:10A4300016E00D71206804F0F5F90D492368283104
:10A44000498801EB810206EB8201D1F804C0C4F80F
:10A4500000C04B60A3880B81A4F8048006F822504A
:10A460000028ACD07D600E20A9E700004C2F002012
:10A47000083C0020F82F00202DE9FC5F0E008346E9
:10A48000DDE90C47C6F1000098469246814600D4AB
:10A490000846012503E000BF90FBFAF06D1C504513
:10A4A000FADAA84500D9454624B1002E01DB780729
:10A4B00000D5641EB80702D5B8F1000F0AD0F8071E
:10A4C00008D13CB1A54205D220215846641EFEF7B2
:10A4D000D9F9F6E7002E02DA4E462D2102E0780780
:10A4E00003D52B215846FEF7CDF907F003000228CB
:10A4F0000BD1B8F1000F08D13CB1A54205D23021F3
:10A500005846641EFEF7BEF9F6E7CDE9004743461C
:10A5100052463146584607F065FCBDE8FC9F0000F6
:10A5200070B50D46044600684FF4887103F070F86A
:10A530004FF49071206803F06BF84FF4927120682B
:10A5400003F066F84FF4A271206803F061F8206808
:10A550001249C0F804132068690740F30730090E58
:10A56000002806DA00F00F0000F1E02080F8141D4A
:10A5700003E000F1E02080F800142068012140F39E
:10A58000073000F01F0291404009800000F1E020F8
:10A59000C0F88012C0F8001170BD00001003020066
:10A5A000024600201268530713D502F00300012869
:10A5B00002D002280CD105E0C2F383100B68801C86
:10A5C000184404E00223086803EB92521044086028
:10A5D000012070470248007A002800D0012070470F
:10A5E000DC3C002010B509892AB1D088491C814281
:10A5F00018D1002010BD90F8C62202EB8204C4EBF3
:10A60000821200EB420212899142F2D0491C198059
:10A6100090F8C61201EB8102C2EB811100EB410000
:10A62000008902E01980D088401E5880012010BDAA
:10A630000021425C0AB101207047491C1029F8D35F
:10A640000020704790F84000C0F3C100012803D0FB
:10A65000032801D00020704701207047800701D0F7
:10A6600000207047012070470A4810B5807860B11B
:10A67000002401E0022C06D02046FDF749FE641CB0
:10A68000042CF7D310BD0324F6E7BDE81040FDF716
:10A6900063BE0000DC2D002003480179C90702D009
:10A6A0000078FDF7BFBF7047DC2D0020F721018047
:10A6B00017214180002101714171FB2181711B2112
:10A6C000C17170472DE9FE4F2E4F984692460D00FE
:10A6D000814601D000260DE0684600F05FFD6A4625
:10A6E0000021484604F0A6F93878009E10B99DF87C
:10A6F000090098B152463146484606F03DFE0446F0
:10A70000014600224846FEF785FF0D2C37D008DCB5
:10A71000A4B3082C33D00B2C09D130E00520BDE8C0
:10A72000FE8F112C1ED0A4F54050023827D02046B1
:10A7300002F04EFF0246144814494B46401AC00826
:10A74000012101EB0040124902F05DFA5FF00305C0
:10A75000B8F1000F04D0324621464846FEF7F8FC17
:10A760002846DCE72A46F9784846FDF7A7F952461D
:10A77000B9784846FDF7A2F90025E9E7FFE7254645
:10A78000E6E70000A82E0020C44403006444030050
:10A790001C3B03007EDF042800D11120704700001D
:10A7A00070B50D001446064617D01648C1783046DD
:10A7B000FDF784F93046FFF75BFD0146A0F57F40C9
:10A7C000FF3800D074B129463046FFF7E3FF044656
:10A7D0002878C0070BD001220AE0BDE870400021B4
:10A7E000FFF7D8BF304600F00FF8044605E002221C
:10A7F0002CB10021304606F015FA204670BD01212B
:10A80000F8E70000A02E00207CB50E4605466A46FB
:10A810000721304604F0B6F9040013D0052C1DD0F2
:10A82000112C2BD002F0D4FE0246194819493346A8
:10A83000401AC008012101EB0040174902F0E3F97A
:10A8400003241BE0019C94F84400183410F001002C
:10A8500001D0019C34340CB110B106E011240DE09C
:10A8600004F11200FFF7C3FC38B1224604F11201D3
:10A87000284685DF040008D000E00B2400210022D8
:10A88000284606F0CFF920467CBD0121F7E70000FD
:10A89000BC44030064440300AC39030070B50E46A9
:10A8A0000C49154604460978FDF7F0F800280FD04A
:10A8B000204604F065F800282A463146204603D099
:10A8C000BDE8704004F062B8BDE87040FEF7A0BB80
:10A8D00070BD0000A02E002070B5094D0646A97875
:10A8E000FDF7D4F80446E9783046FDF7CFF8014685
:10A8F00022463046BDE870400123FFF7E3BE00006A
:10A90000A82E00202DE9F047394E002780463D460D
:10A91000DFF8E090D6F804A057E003D00446D0F862
:10A920001C8035E099F8002002EB4201521CD2B2A3
:10A9300089F8002009EBC10199F80230091D9A42FB
:10A9400001D189F8005048680A780446012A12D0DB
:10A95000022A02D0032A3BD108E006F017FF00B11B
:10A960000127257434E00574C06900E07068002890
:10A97000F9D170602CE0207C50BB88686060C868AA
:10A98000A0600869E0604869A061F07800B1656086
:10A990006268B168184B501A20F07F40984202D28A
:10A9A000A168084406E0881AA16820F07F4081422F
:10A9B00002D9081A206000E0256065600120A560CA
:10A9C00020742046E56106F0C3FEB8F10000A4D172
:10A9D00099F8001099F801008142A3D117B9716864
:10A9E000514502D00120BDE8F0870020FBE70000C0
:10A9F000182F0020383A0020FFFF7F00F0B587B005
:10AA00000546002718216846FBF757FDA5F57F404E
:10AA1000ADF80250FF3825D02846FFF74FF9040063
:10AA200022D01B481B49401AC6080B2C22D0112CDF
:10AA30001ED0A4F5405002380ED0204602F0C8FDCA
:10AA40000246012000EB06402B46134902F0DBF8DA
:10AA50002146284606F0CEF910483A468178284625
:10AA6000FDF72CF807B0F0BD0E208DF800000BE0CC
:10AA70000127F1E70F208DF80000022000EB0640CF
:10AA80002A46074902F0B8F86846FEF7B7FBE3E745
:10AA90007444030064440300782D0300042E002056
:10AAA000CC2D03000A4602494978FDF707B800009B
:10AAB000042E00202DE9F041002786B080463E4656
:10AAC000FFF744F9040022D0112C22D01B481C4966
:10AAD000401AC508862C1ED0A4F5405002380ED06E
:10AAE000204602F075FD0246012000EB054043467A
:10AAF00014A102F088F82146404606F07BF9394659
:10AB00004046FFF7CFFF06B03046BDE8F081012692
:10AB1000F5E70127F3E718221A496846FBF7B4FC6A
:10AB20000220ADF8028000EB0540424616A102F07B
:10AB300063F86846FEF762FBE1E700007444030037
:10AB4000644403006773636D5F6C6F63616C5F6483
:10AB5000625F63616368655F75706461746528290D
:10AB60002072657475726E656420257320666F723D
:10AB700020636F6E6E5F68616E646C653A20256459
:10AB80000000000068250300466C6173682066754C
:10AB90006C6C2E20436F756C64206E6F7420737420
:10ABA0006F7265206461746120666F7220636F6EDE
:10ABB0006E5F68616E646C653A2025640000000079
:10ABC0002DE9FF410026234800F0A9FB2148001F82
:10ABD000074600F0A4FB204C60680090A56800E0E8
:10ABE00000986946284004EB80000C30FFF7D8FC41
:10ABF0000028F5D101AA009901EA050304EB8303BB
:10AC0000491CDB6842F82030401C00910228F2D336
:10AC1000019800F0030001280BD0022810D1019800
:10AC2000032101EB90500099BDF80A6001EB900000
:10AC300005E00198BDF80A60C0F383100844009055
:10AC4000384600F069FB08B10098606004B03046F7
:10AC5000BDE8F081AC420020943E00201FB55B4966
:10AC60008022A1F11000FCF75EFA20B158A24FF447
:10AC70006571FBF7CFFAFCF787FA20B158A24FF4C1
:10AC80005371FBF7C7FA02F053F920B154A240F216
:10AC90000731FBF7BFFA56490320FDF779FC20B1D5
:10ACA0004FA240F2EE21FBF7B5FA69460020FDF70E
:10ACB00077FB20B14AA240F2F121FBF7ABFA9DF8F5
:10ACC0000000022864D000254FF40041002002F06B
:10ACD00019F820B142A24FF43F71FBF79BFA01F043
:10ACE0000BFEFDF799FA39484249983000F0ADFB68
:10ACF00020B13BA240F25531FBF78CFA04F050FA38
:10AD00003D48FCF725FF20B135A240F27921FBF741
:10AD100081FA3A4800902D4869468030FDF7AAF93B
:10AD200020B12FA240F26221FBF774FA06F0E2FE96
:10AD300005F044FD25498022A1F11000FCF7F3F94C
:10AD400020B123A240F2A631FBF764FA2C492D482A
:10AD50001E4A081AC108032000EB01400446103ABD
:10AD600029A101F049FF20462AA101F041FF36A0A8
:10AD7000FBF73CFF75B1204640A101F039FF05F01B
:10AD8000F7F848B116A240F2B511FBF743FA03E019
:10AD9000012599E705F078FD01F0BCFD0028FBD105
:10ADA00003A8FCF76FFA28B99DF80C00BB2801D165
:10ADB00005F07AFF054802A91038FCF7A9F9002828
:10ADC000EAD19DF80800FCF7E9FAE5E71C3000201D
:10ADD0002E2E5C2E2E5C2E2E5C6D61696E2E630015
:10ADE0002E2E5C2E2E5C2E2E5C6D61696E2E630005
:10ADF00095840200899602007D8C02003DAF02001E
:10AE000064440300644403004669666F2049643A61
:10AE1000202570005175617465726E696F6E204FE8
:10AE20007269656E746174696F6E20636F6C6C65B6
:10AE300063746F72206578616D706C6520737461E6
:10AE4000727465642E0000005175617465726E69DC
:10AE50006F6E204F7269656E746174696F6E2063E6
:10AE60006F6C6C6563746F72206578616D706C6572
:10AE700020737461727465642E0A0D0045726173EB
:10AE80006520626F6E647321000000002DE9F047B9
:10AE9000C5881E1DB6FBF5F78946B6FBF5F10446DD
:10AEA00005FB176C407916686843DDF820A0F71899
:10AEB000001F874200D9C61A166001E02468491EA7
:10AEC0000029FBD1A5EB0C078846B74216D818E03D
:10AED00004EB0C00001D09EB0803BAF1000F3A4621
:10AEE00002D00146184600E01946FBF7CDFA246867
:10AEF000F61B4FF0000CB844B54201D9374600E0CC
:10AF00002F46002EE4D1BDE8F087000030B50246A0
:10AF100051B101F015FF0021074C08E034F8213051
:10AF20001568AB4202D11160002030BD491C81423E
:10AF3000F4D3052030BD0000000000002DE9F041F1
:10AF40000C4606460B784C484C49401AC708012B62
:10AF50002BD0022B7ED10320154600EB074048A1E1
:10AF600001F046FE052000EB07400446EE2248A112
:10AF700001F042FEEE214848FCF7E5F820B147A277
:10AF800040F20E21FBF746F92A79204640A101F054
:10AF900033FE29794048FCF7D6F820B13FA240F2B1
:10AFA0001221FBF737F900263AE0042000EB0740B6
:10AFB0003EA101F01DFE6188221D3046FDF750F8CC
:10AFC00020B136A24FF4FB71FBF724F96088002111
:10AFD00004F050FA082805D020B130A24FF4FE71D9
:10AFE000FBF718F93046FDF777F8002841D0BDE8A7
:10AFF000F0412AA240F20121FBF70CB9286824A1F4
:10B00000825D204601F0F8FD2868815D2248FCF74A
:10B010009AF820B121A24FF40671FBF7FBF8761CD9
:10B020002879B042EADC20460A2219A101F0E4FDA9
:10B030000A211948FCF787F820B118A240F21E2116
:10B04000FBF7E8F820460D2211A101F0D5FD0D21F6
:10B05000114800E00DE0FCF776F820B10FA240F2B5
:10B060002221FBF7D7F82046BDE8F0411AA101F0F4
:10B07000BFBDBDE8F08100006444030064440300E8
:10B0800053657269616C205061636B65743A0000AE
:10B0900030782578200000000C3000202E2E5C2E09
:10B0A0002E5C2E2E5C6D61696E2E6300517561748D
:10B0B00065726E696F6E204F7269656E7461746936
:10B0C0006F6E207365727669636520646973636F60
:10B0D00076657265642E00000A0D0000FEB5064616
:10B0E000808817460D4600282ED0194919482A781D
:10B0F000081AC108032000EB014417A1204601F003
:10B100007BFD6A78204618A101F076FDAA782046DA
:10B1100019A101F071FDA87840B1204619A101F0F4
:10B1200067FDAA782046E91C01F00EFD184A07CAFF
:10B130008DE80700B088ADF80200ADF80670029502
:10B1400030886946A3DFFEBD43F20300FEBD000068
:10B150005445030064440300507265616D626C6580
:10B160003A20307825780000436F6D6D616E643A47
:10B1700020307825780000004C656E6774683A20AE
:10B1800025640000417267756D656E74733A000046
:10B19000782A0300BFF35F8F00F0A9B8034A0021AB
:10B1A0009268C0E90021816070470000A82E00204D
:10B1B00070B54FF6FF750E46A84201D1002000E0A1
:10B1C000401C84B208E02146304600F090F808B1F7
:10B1D000204670BD641CA4B2FF2CF4D9284670BD73
:10B1E00010B5FBF770F808B1002010BD112010BD9C
:10B1F00010B531B1B2FBF3F403FB14241CB10920E8
:10B2000010BD0E2010BD016000214160816082816F
:10B21000C381084610BD70B50C460546FBF708F81B
:10B22000002802D021882868084470BD10B50A881B
:10B2300049888A4203D1FBF73DF8012010BD002068
:10B2400010BD70B50C460546FBF717F8002802D074
:10B2500061882868084470BD10B50A8849888A4208
:10B2600003D1FBF701F8012010BD002010BD01F053
:10B270001F0301229A40D243490900EB8100114685
:10B2800000F059B80A4601F01F030121994010B59A
:10B2900052090C4600EB820000F05DF8204000D01F
:10B2A000012010BD2DE9F04180460D460024481EC6
:10B2B000012101EB501716E058F82400C04390FA22
:10B2C000A0F0B0FA80F020280CD200EB4416AE4279
:10B2D00008D231464046FFF7D5FF0028ECD1304672
:10B2E000BDE8F081641CA742E6D82846F8E74A0981
:10B2F00050F8220001F01F0201219140084000D0C7
:10B300000120704701F01F0301229A40490900EB18
:10B310008100114600F029B8002100F017B8012182
:10B3200000F023B8012100F016B808B56A46FBF713
:10B3300016F8009808BD08B56A46FAF7F6FF0098B7
:10B3400008BD08B56A46FBF70AF808BD08B56A46A5
:10B35000FAF7EBFF08BD08B56A46FAF7D9FF08BD52
:10B3600008B56A46FAF7C8FF08BD08B56A46FAF795
:10B37000CFFF009808BD08B56A46FAF7FDFF0098B0
:10B3800008BD38B5044600258DF800506846FCF726
:10B390002FF821686268086890420ED9401E086044
:10B3A0000178238AE26801FB0325227A2168101ABA
:10B3B000C0B20A79824200D208719DF80000FCF701
:10B3C0003BF8284638BD38B5054600208DF800000A
:10B3D0000C466846FCF70CF8E868298A201AB0FB8E
:10B3E000F1F12A681068431C136001709DF8000099
:10B3F000FCF722F838BD10B530B1017A4268036815
:10B40000891AC9B21A6006E00E2010BD03681A68D6
:10B41000541C1C601170491EC9B2F7D2006800218B
:10B420000171084610BDC20800F007030120895CC5
:10B4300098400840704710B5C20800F00703885CC8
:10B4400001249C402043885410BD10B560B10161B7
:10B45000F72120F8021B20F8021BFB2100F8021B39
:10B46000FFF724F9002010BD0E2010BD70B58588AF
:10B470000C46002D4FD1018824291FD006DC10294D
:10B4800009D011290CD0232921D11CE03A290BD055
:10B4900055291CD10DE00146204602F0AFFD16E013
:10B4A000A01DFFF703F912E00146204603F022F841
:10B4B0000DE00146204602F077FF08E001462046F5
:10B4C00002F020FE03E00146204602F0A5FEA07A2D
:10B4D000002820D0E1882846A5DF0F490F4A012621
:10B4E000891ACD0858B1112815D002F071F802461A
:10B4F00006EB0540BDE8704009A101F07DBB0023CB
:10B50000A372E6720420E28800EB0540BDE87040BB
:10B51000104901F078BB70BD8C4403006444030003
:10B5200073645F626C655F67617474635F657863A1
:10B5300068616E67655F6D74755F7265717565735F
:10B540007428292072657475726E65642025732EC7
:10B5500000000000803003002DE9FC4100F12205CD
:10B56000EC1D0E46207810B10420BDE8FC810027B8
:10B57000C7EBC700284406223146401CFAF7BDFF3E
:10B580000028F2D07F1C17F0FF07F1D00020694699
:10B59000C0F10502B25C0A54401CC0B20628F7D3C1
:10B5A000084600F05FF843F20221884201D10846C4
:10B5B000DBE72178C1EBC1016A5C60F347026A54A2
:10B5C00000202278315CC2EBC2022A440244401CB3
:10B5D000C0B251700628F4D320781449C0EBC000E3
:10B5E000285C42081048401AC108042000EB0140C2
:10B5F00006460FA101F000FB0027207817A1C0EB41
:10B60000C000284438444278304601F0F5FA7F1CE7
:10B61000FFB2062FF1D3304611A101F0E9FA2078EC
:10B62000401C20700020A0E7944403006444030001
:10B6300046696C74657220736574206F6E20616456
:10B64000647265737320747970652025692C20619C
:10B650006464726573732030780000002578000000
:10B660000A0D00000078800908D0012808D00228BF
:10B6700003D0032806D043F202207047032070470E
:10B6800000207047012070472DE9F041044600F189
:10B69000400600F1360790F83E5090F8340086B02E
:10B6A00001F10208002825D08BDF14216846FAF743
:10B6B00004FF2B463A46314640468CDF05460F488C
:10B6C0000F49401AC108042000EB01460DA1304685
:10B6D00001F08EFA06208DF8000030462A460CA1B3
:10B6E000019501F089FA002D04D0216D002901D0C7
:10B6F0006846884706B0BDE8F08100009444030026
:10B7000064440300436F6E6E656374696E67000086
:10B71000436F6E6E656374696F6E207374617475C8
:10B72000733A2025640000004FF4C8718187062118
:10B73000C1861821018700214187704710F8401FFA
:10B74000A02242805022828021F018010022C28073
:10B7500041F00401017001214170704738B132B1EC
:10B7600039B1022908D0032909D0072070470E20DB
:10B770007047114600F074B81146FFF7EDBE114650
:10B7800000F08EBA40B1212100220A542A210A5425
:10B7900080F83120104670470E20704730B51546AE
:10B7A0000B46040002D0980702D009E00E2030BDFD
:10B7B000580705D4D80603D4180701D4072030BD94
:10B7C0002046FFF7DFFF99074FF0010001D584F80D
:10B7D0002A00D90701D084F82100590701D584F83F
:10B7E000310084F83250002030BD70B50D460400A1
:10B7F00012D034212265FAF760FEFDB1287984F871
:10B800003400287B84F83E00296839B10E2204F107
:10B810004000FAF739FE04E00E2070BD2046FFF725
:10B820008DFFA86830B10168C4F836104068C4F8CC
:10B830003A000CE02046FFF777FF08E02046FFF7CC
:10B840007DFF2046FFF770FF002084F8340004F1EC
:10B85000540060671F20A4F87800002070BD00002D
:10B860002DE9F041064600F120050F460846FAF79B
:10B870002FFE10F0FF0001D0202802D90C20BDE8D7
:10B88000F081287808B10420F9E7002406EB441081
:10B890003946FAF724FE0028F1D0641C14F0FF04A6
:10B8A000F4D03846FAF714FE02462878394606EBFB
:10B8B0004013401C28701846FAF7E6FD0648074971
:10B8C0003A46401AC008042101EB004004A101F0EF
:10B8D00093F90020D3E7000094440300644403007C
:10B8E000416464696E672066696C746572206F6E6E
:10B8F000202573206E616D65000000002DE9F04F7A
:10B900008BB00D46044600273E4614216846FAF7E0
:10B91000D4FD04F1400004902046FEF793FE0100A0
:10B9200004F17400059010D002208DF800000195FC
:10B93000216D68468847002005998ADF2946204600
:10B94000FFF7A2FE0BB0BDE8F08F94F8320006902E
:10B9500094F82A0094F82110089194F831104FF0CF
:10B9600000090791E0B1012704F1220B94F829A006
:10B97000002012E0C8EBC80202EB0B00AB780278A3
:10B980005208B2EB530F05D10622E91C401CFAF70E
:10B99000B4FD78B108F10100C0B280465045E9D34A
:10B9A000089810B394F820A0B5F81CB04FF0000828
:10B9B0007F1C1FE09DF808004FF0010940F00200D5
:10B9C0008DF80800761CEBE704EB48125946A8698D
:10B9D000FBF784FE50B19DF80800761C40F0010092
:10B9E000F6B28DF808004FF0010905E008F10100FA
:10B9F00000F0FF08D045E7D3079848B304F12C00C6
:10BA0000099094F83200079094F830B04FF0000A93
:10BA1000A88BD0467F1C089014E00998089900EB89
:10BA20008802A869FBF798FE30B10AF1010000F026
:10BA3000FF0A079868B101E0079838B908F10100DA
:10BA400000F0FF08D845E8D3079810B1DA4503D0D5
:10BA50000CE0BAF1000F09D09DF80800761C40F008
:10BA60000400F6B28DF808004FF001090195069820
:10BA700008B1BE4203D0069939EA010007D0002080
:10BA80008DF8000029462046FFF7FEFD02E0032066
:10BA90008DF80000216D09B168468847002005999E
:10BAA0008ADF4FE7F0B50D46014601F108020C1D93
:10BAB00028460988403585B010293ED01B291FD063
:10BAC0001D2917D020294BD1064614216846241D74
:10BAD000FAF7F3FC306D002842D005208DF8000005
