:020000040000FA
:10000000484A0020150300001D0300001F030000E4
:10001000210300002303000025030000000000006E
:1000200000000000000000000000000027030000A6
:1000300029030000000000002B0300002D03000036
:100040002F0300002F030000CD0700002F03000046
:100050002F0300002F0300002F0300002F030000D8
:100060002F0300002F0300002F0300002F030000C8
:100070002F0300002F0300002F0300002F030000B8
:100080002F030000FD0300002F0300002F030000DA
:10009000750500002F0300002F0300002F03000050
:1000A0002F0300002F0300002F0300002F03000088
:1000B0002F0300002F0300000000000000000000DC
:1000C0002F0300002F0300002F0300002F03000068
:1000D0002F0300002F0300002F0300002F03000058
:1000E0002F030000D50300002F03000000000000D4
:1000F000000000002F030000000000002F0300009C
:1001000000000000000000000000000000000000EF
:1001100000000000000000000000000000000000DF
:1001200000000000000000000000000000000000CF
:1001300000000000000000000000000000000000BF
:1001400000000000000000000000000000000000AF
:10015000000000000000000000000000000000009F
:10016000000000000000000000000000000000008F
:10017000000000000000000000000000000000007F
:10018000000000000000000000000000000000006F
:10019000000000000000000000000000000000005F
:1001A000000000000000000000000000000000004F
:1001B000000000000000000000000000000000003F
:1001C000000000000000000000000000000000002F
:1001D000000000000000000000000000000000001F
:1001E000000000000000000000000000000000000F
:1001F00000000000000000000000000000000000FF
:10020000DFF80CD000F0D4F800480047490C00009B
:10021000484A002000B583B002900091019244F258
:10022000010071466A4600F04FFB03B000BD0000BC
:1002300030B4044654E8000F0D4644E80053002B48
:10024000F8D1156030BC704730B4044654E8000F54
:1002500040EA010544E80053002BF7D1156030BC9B
:10026000704730B4044654E8000F00EA010544E842
:100270000053002BF7D1156030BC704730B40446F2
:1002800054E8000F80EA010544E80053002BF7D141
:10029000156030BC704730B4044654E8000F00EBE2
:1002A000010544E80053002BF7D1156030BC7047BE
:1002B00030B4044654E8000FA0EB010544E80053B5
:1002C000002BF7D1156030BC704770B404464FF076
:1002D000000054E8006F0D68AE4207BF44E80023F9
:1002E000012044E800630E60002B1CBF0020F0E7F3
:1002F00070BC704730B4044654E8000F88422CBFED
:10030000451A054644E80053002BF5D1156030BC72
:10031000704700000648804706480047FEE7FEE7B2
:10032000FEE7FEE7FEE7FEE7FEE7FEE7FEE7FEE7A5
:10033000790500000102000000487047482F0000C6
:1003400040EA01039B0703D009E008C9121F08C057
:10035000042AFAD203E011F8013B00F8013B521ED7
:10036000F9D27047D2B201E000F8012B491EFBD24E
:1003700070470022F6E710B513460A4604461946B0
:10038000FFF7F0FF204610BD421C10F8011B0029AA
:10039000FBD1801A704730B504460020034600E0C8
:1003A0005B1C934203D2E05CCD5C401BF8D030BDB7
:1003B000064C074D06E0E06840F0010394E80700B2
:1003C00098471034AC42F6D3FFF71EFFA433000069
:1003D000C43300000749D1F80001002808BF704766
:1003E000002205484271C1F800210268816800209E
:1003F0001047000000900240840000202DE9F041E9
:1004000021484FF00008C0F84081C0F84481C0F88E
:100410004881C0F84C81C0F80081C0F804811B4FAE
:100420007C68002C08BFBDE8F081002618480068F1
:10043000B968401A20F07F452068A8420CD82146B0
:100440002D1A0644E469087C20B181F8108088697F
:1004500049698847002CEFD139787878814206D1F4
:10046000401CC0B27870022808BF87F80180094894
:10047000797840F821604FF0E0214FF48010C1F806
:100480000002BDE8F0810000001001400C000020D7
:10049000041501401800002000F09EB92DE9F0413C
:1004A0001546334A00EB400002EBC00000F118048F
:1004B000C06A20B1012828D002284ED053E020691C
:1004C000E668B04288BF801B02D8A3689A1B10441C
:1004D000401EA84247D3A0688846871BBD4206D26B
:1004E00060682A463044FFF72BFF701925E06068EA
:1004F0003A463044FFF724FFEE1B08EB0701324673
:100500006068FFF71DFFE6602EE02069E768B842EB
:1005100088BFC01B02D8A368DA1B1044401EA84243
:1005200038BF05468846A068C61BAE4207D960683A
:100530002A463844FFF704FF7819E06014E0606849
:1005400032463844FFF7FCFEAF1B08EB06013A4683
:100550006068FFF7F5FEE76006E02A46204600F0F7
:100560006FF9054600E000252846BDE8F08100004F
:100570007807002002F0DEB910B44FF0805100225D
:100580008B00D1F83001C3F80C21C3F810216D4B5A
:100590001A606D4B1B68DFF8B4C1CCF800306C4BAF
:1005A0001B680CF1040CCCF800306A4B1B680CF192
:1005B000040CCCF80030684B1B680CF1040CCCF830
:1005C0000030664B1B680CF1040CCCF80030644B17
:1005D0001B680CF1040CCCF80030624B1B68DFF890
:1005E00088C1CCF80030614B1B680CF1040CCCF8CE
:1005F00000305F4B1B680CF1040CCCF800305D4BF5
:100600001B680CF1040CCCF800305B4B1B680CF140
:10061000040CCCF80030594B1B680CF1040CCCF8DE
:100620000030574B1B68DFF85CC1CCF80030564BEC
:100630001B680CF1040CCCF80030544B1B680CF117
:10064000040CCCF80030524B1B680CF1040CCCF8B5
:100650000030504B1B680CF1040CCCF80030012426
:10066000082804BFD1F83431002B12D0082804BF69
:10067000D1F83431002B0FD0082804BFD1F8343121
:10068000002B0CD0082804BFD1F83431002B0DD03A
:1006900010E0424B40481860414BFB201860414835
:1006A00091F85832016863F3030101603E494FF449
:1006B000007008603D48016811F0010F1CBF6FF029
:1006C000010101603A48016841F470010160BFF323
:1006D0004F8FBFF36F8F4FF01023D3F8000210F04D
:1006E000004F04BFD3F8040210F0004F24D0DFF80D
:1006F000C4C0CCF80040304801680029FCD0122466
:10070000C3F8004201680029FCD0C3F80442016824
:100710000029FCD0CCF8002001680029FCD0BFF3F0
:100720004F8F26480168264A01F4E06111430160B9
:10073000BFF34F8F00BFFDE723492248086010BC7C
:1007400070470000380500400404001020C5004038
:10075000080400100C040010100400101404001011
:10076000180400101C04001040C5004020040010B4
:1007700024040010280400102C0400103004001081
:100780003404001060C50040380400103C04001020
:100790004004001044040010488103008C560040BF
:1007A00018F50040E40E004040960240000400406E
:1007B00088ED00E004E5014000E401400CED00E0BC
:1007C0000400FA050090D003800000200148006872
:1007D000004700000000002010B5124C02202061EC
:1007E000606111A0A06104F17800E0614FF4007035
:1007F00020620020A06260620BA1A164E06204F5A7
:100800001E71E1641021A06521656065E06509A0A5
:1008100009A10068C4F80700204600F03DF8202038
:10082000A07110BD780700205465726D696E616C0F
:100830000000000052545400534547474552000001
:100840002DE9F047C4681746894606464FF0000870
:100850003069A0428FBF001B201AB168081A451EDC
:10086000B068001BA84298BF0546BD4228BF3D4660
:1008700070682A4620444946FFF762FDB0687F1B36
:100880002C44A844A944A04208BF0024F460002FCF
:10089000DED14046BDE8F0870A6802608B8883801D
:1008A00091F806C080F806C0704702E008C8121F21
:1008B00008C1002AFAD170477047002001E001C149
:1008C000121F002AFBD17047F0B583B014460E46C4
:1008D000074672B601F03CF800F006FE0028FBD196
:1008E0006FF480403B181D491D484FF00102A1EBF9
:1008F00000004FEAD00042EA00451BD0012B12D085
:100900002846324617A100F02DFF1C48006810F061
:10091000010F00D000BE224603B031463846BDE884
:10092000F04000F059B82388284615A1626800F00D
:1009300020FFEAE7A06801F0F7F90346D4E90001D7
:10094000CDE900100296284614A1A26800F01BFF12
:1009500028461CA100F002FFD7E70000EC3300009E
:10096000D4330000554E4B4E4F574E204641554C08
:10097000542061742030782530385800F0ED00E0C4
:10098000415353455254494F4E204641494C4544EA
:100990002061742025733A25750000004552524F9E
:1009A00052202575205B25735D2061742025733AE4
:1009B00025750D0A50432061743A2030782530386F
:1009C00078000000456E64206F66206572726F7259
:1009D000207265706F72740081B001238DF8003051
:1009E0009DF80030164B186059609A606FF4804192
:1009F000401809D0012811D1DA60D86800889861C0
:100A0000D8684068D86109E01A611869806858613F
:100A100018690068986118694068D8611868586852
:100A20009868D868186958699869D86972B600BF1B
:100A30009DF800000028FBD162B601B070470000AD
:100A40009000002072B602480168491C016070479E
:100A50000800002003490868401E086018BF70475E
:100A600062B67047080000202DE9F84F8046871CC9
:100A70000120009092460D460020FFF7E3FF3F4C17
:100A80004FF0020920682860D4E90001401AA168EB
:100A9000081A401C874288BF4FF0030B56D901212A
:100AA00004F21C4000F0DBF9002504F5836000F03F
:100AB000CFF904F2144000F0CBF9D4E901010DE0C4
:100AC00002F00303012B04BFC2F38312921C04D073
:100AD000022B08BF09EB925200D1104400EA010238
:100AE00004EB8202D26812F0040FE9D100EA01029D
:100AF000431C04EB820203EA0100D26804EB80008D
:100B00005E1CC06802F00301012907D0022909D147
:100B1000050C0BEB925006EB900603E0050CC2F3BC
:100B20008310064404F2144000F08CF9002818BF2A
:100B30006660294604F21C4000F091F9D4E90001F6
:100B4000401AA168081A401C8742A8D8BAF1000FC1
:100B500019BF052068F38910062068F39F50A2682A
:100B60002168114004EB8101C8602068384420608E
:100B70000020FFF76FFF0098BDE8F88F54030020B6
:100B800070B5144C00256068401CC4E90105B0F53F
:100B9000804F98BF70BDA07C01280FD0022804BFF1
:100BA000A57470BD0C480D49BDE87040401AC008DE
:100BB000012141EA00400A4900F0D0BD002122682D
:100BC00001209047A5742268BDE8704000210220F2
:100BD00010470000342A0020EC330000D43300001A
:100BE000B4270000F8B54AF6AA20ADF800004FF48B
:100BF00080511148FFF7BDFB104D114C0026AE602F
:100C0000267068680103304601F040F920B10D4AB2
:100C100040F29D11FFF7FEFA20780028FCD02670E4
:100C20000549A868BDF800200144801C0A80A8601E
:100C300001202874F8BD0000340A0020342A002066
:100C40007C0000208C24000092B04FF40041002072
:100C500000F03CFE18B12DA24B21FFF7DBFA00F0AB
:100C600033FC2E482E490324401AC00844EA0040B1
:100C70002CA100F073FD00BF00F036FC0028FBD172
:100C80003648109010A801F089FB01208DF83A0039
:100C90008DF83B408DF83C400DA801F095FD0024F7
:100CA0000A250B260C274FF00D084FF00E094FF0C8
:100CB0000F0A4FF0100B00BFADF818B01120ADF8BF
:100CC0001A001220ADF80C80ADF81C00ADF80E90A3
:100CD0001320ADF812500890ADF810A01420ADF814
:100CE00014600990ADF8167015200A9016200B902C
:100CF00063200190684601F09BFA641CB4F5FA6F1A
:100D0000DADB01F00BFE01F01BFCFEE72E2E5C2E61
:100D10002E5C2E2E5C6D61696E2E6300EC3300003C
:100D2000D4330000515350492077726974652061B3
:100D30006E642072656164206578616D706C6520F9
:100D40007573696E672032346269742061646472FD
:100D5000657373696E67206D6F646500610D0000D7
:100D6000174ADFF860C000B5A2EB0C020323D208DB
:100D70008DB043EA0242062824BF0DB000BDDFE873
:100D800000F003090C12151B10460FA100F0E6FC41
:100D90000DB000BD104612A101E0104615A100F0F3
:100DA000DDFC0DB000BD104619A1F8E734226846FD
:100DB000FFF7C6FA0DB000BD10461BA1EFE700001B
:100DC000EC330000D43300004D656D6F72792073F1
:100DD000657373696F6E20737461727465642E003D
:100DE000466C617368204D656D6F72792046756C35
:100DF0006C2E00004D656D6F727920736573736999
:100E00006F6E207465726D696E617465642E00008A
:100E10004D656D6F72792073747265616D207374A6
:100E200061727465642E00004D656D6F7279207378
:100E3000747265616D207465726D696E617465644C
:100E40002E00000008B500216A46FFF70AFA08BD27
:100E500008B501216A46FFF7F7F9009808BD08B503
:100E60006A46FFF718FA009808BD08B56A46FFF70A
:100E7000DFF908BD08B56A46FFF71AFA009808BD01
:100E800070B5044600252846FFF7DCFD206862683F
:100E9000016891420ED9491E01600878238AE268F0
:100EA00000FB0325227A2068511AC9B202799142C7
:100EB00088BF01710020FFF7CDFD284670BD70B5D9
:100EC00005460C460020FFF7BDFDE868298A201A78
:100ED000B0FBF1F029680A68531C0B601070BDE884
:100EE00070400020FFF7B6BD002804BF0E207047F9
:100EF000027A41680368521AD2B21960511EC9B20F
:100F000009D30268136803F1010CC2F800C019701C
:100F1000491EC9B2F5D20068002101710846704728
:100F20000FB408B50399002904BF01B05DF814FBA4
:100F300004AA00926A4600F011F801B05DF814FBB3
:100F40008268002A08BF704710B504460168D4E9DA
:100F5000040398470020A06010BD0000002908BFCE
:100F600070472DE9F04FDFF8DCA385B091460E46BF
:100F700004464FF0000B00BF16F8011BA9B125294C
:100F800004BF002001221CD0A268236802F1010CDA
:100F90002046C4F808C09954D0E901128A4228BFFB
:100FA000FFF7CEFF30780028E6D1207B002804BF71
:100FB00005B0BDE8F08F204605B0BDE8F04FFFF763
:100FC000BFBF31782B2904BF40F00400761C0AD043
:100FD0002D2908BF40F0010004D0302908BF40F09F
:100FE000020002D1761C002AEBD100252A290CD060
:100FF0003178A1F130020A2A0FD205EB850201EB0C
:101000004202A2F13005761CF0E7D9F800100A1D63
:10101000C9F800200968761C0D44317800232E2978
:1010200008BF761C0CD13178A1F130020A2A07D210
:1010300003EB830201EB4201A1F13003761CF2E7DE
:101040006C2914BF682916F8011FF9D069292BD023
:101050000ADA252900F0648158297BD063290ED053
:10106000642921D000F06CB9702900F02B8173291C
:1010700071D0752970D078296CD000F061B9D9F899
:101080000000011DC9F80010A2680178236802F170
:10109000010C2046C4F808C09954D0E901128A42D4
:1010A000C0F04E8100F04AB9D9F8001007460A1D79
:1010B000C9F800200968CDE902130029B4BF4842ED
:1010C00008464FF001080A2809DB00BF8AFB001020
:1010D0008110A1EBE07008F101080A28F6DA184641
:1010E000434588BF804635B102980028A8BF17F055
:1010F000040F18BF6D1E17F0020F00D0BBB117F020
:10110000010F14D19DB1A84511D2A168236801F146
:10111000010C20462022C4F808C05A54D0E901121C
:101120006D1E8A4228BFFFF70BFF002DEBD10298FE
:10113000002812DA40420290A168236801F1010CF4
:1011400020462D22C4F808C05A54D0E901128A4220
:1011500015D312E044E050E037E017F0040F0ED052
:10116000A168236801F1010C20462B22C4F808C0B5
:101170005A54D0E90112914201D8FFF7E1FE07F07D
:101180000300022804BF0398002814D19DB1A8458C
:1011900011D2A168236801F1010C20463022C4F865
:1011A00008C05A54D0E901126D1E8A4228BFFFF7C9
:1011B000C7FE002DEBD1CDE90057DDE902130A226D
:1011C000204600BF01F030FDBAE0D9F800100A1D3A
:1011D000C9F800200968CDE900500A222046F1E74D
:1011E000D9F800100A1DC9F800200968CDE900509F
:1011F0001022204601F018FDA2E0D9F800104FF0AF
:1012000000080A1DC9F800200F6810F0010F2AD04D
:10121000397821B3A268236802F1010C2046C4F892
:1012200008C09954D0E901127F1C08F101088A42D4
:1012300028BFFFF785FE39780029EBD10FE0A268BF
:10124000236802F1010C20462021C4F808C09954FB
:10125000D0E901126D1E8A4228BFFFF771FE454595
:101260006ED975B3EBE7A7B13846FFF78DF8804626
:101270000FE0A168236801F1010C20462022C4F888
:1012800008C05A54D0E901126D1E8A4228BFFFF7E8
:1012900057FE454501D9002DEBD1397889B1A268B7
:1012A000236802F1010C2046C4F808C09954D0E923
:1012B00001127F1C8A4228BFFFF742FE39780029BD
:1012C000EDD13DE0D9F80000011DC9F80010A26879
:1012D0000568236802F1010C20463021C4F808C0DB
:1012E0009954D0E901128A4228BFFFF729FE20460F
:1012F000A268236802F1010C7821C4F808C099544F
:10130000D0E901128A4228BFFFF71AFE0820CDE972
:10131000000B034610222946204601F085FC0FE011
:10132000A268236802F1010C20462521C4F808C0F8
:101330009954D0E901128A4202D300BFFFF700FEA0
:10134000761C2FE667666666DFF860C010B4034659
:10135000DCF81044002021000DD0C9680A798242CF
:1013600006D1401C0A28F6DB10BC4FF0FF30704756
:1013700009680029F1D1B0F1FF3F04BF10BC7047EC
:10138000D9680871DCF8101449B1C968DA680968CD
:101390001160DCF81014C9680B6010BC7047CCF801
:1013A0001034DA680021116010BC7047540300202B
:1013B0007047FFF771B8704708B5034A00924023A1
:1013C000024A00F005F808BDDD240000BC01002041
:1013D0002DE9F04194B01D4616460F460846DDF84B
:1013E000688000F0C9FB0024CDE90C48CDE9086510
:1013F0000A942346082202A938460B9400F0EDFB1C
:1014000004980590BDF80C00ADF81800BDF80E006A
:10141000ADF81A008DF81D400298082600F0030070
:10142000012802D0022818D031E002983346850AFC
:10143000C0F3C2008DF81C0002980EA9C0F38314FB
:10144000A200384600F0C9FB08A8009005AB224670
:101450000EA9284600F094FA19E00298840DC0F312
:10146000C2008DF81C00082C34BF254608253346E1
:101470002A460EA9384600F0B0FB2E44641B08AB88
:1014800005AA29460EA800F08DF9002CEBD13846AC
:1014900000F078FB14B0BDE8F0810000094A012992
:1014A00002EBC00004BF02207047022904BF0420E1
:1014B0007047032904BF00797047042914BF002036
:1014C00040797047D433000010B5FFF772FF042154
:1014D0000348FFF739FF03490120487110BD0000A0
:1014E000C4330000240000202DE9F047924F84B05F
:1014F000D7E9000181424FF0000004BF04B0BDE80D
:10150000F087C7F81804BFF34F8FD7E9010400EA4A
:1015100004013B6807EB81014FF00209C96811F033
:10152000040F10D001F00302012A04BFC1F383119C
:10153000891C04D0022A08BF09EB915100D108444C
:10154000D7F81814A9B100EA040107EB8101401C87
:10155000C968009100EA0401451C07EB810100986D
:10156000C96800F00300019102280ED0012860D064
:10157000C1E0834284BF00EA040107EB8101CDD8BA
:101580007B6004B00020BDE8F087009850214FEA4E
:101590009058B1EB905F8CBFC2464FF0500A6AF38F
:1015A0009F5000900AF10801644800F09BFA060081
:1015B0007DD000F0E1FA002308226946304600F0B1
:1015C0005BFB05EA0401601A8000001D824522D9F8
:1015D00040B107EB8101C4B207F10C09AAEB00008E
:1015E0000C3106E04FF0000907F10C010AF0FF048E
:1015F000484600F0FF0A08232246304600F03CFB34
:1016000004F10803B9F1000F0ED0524649463046A6
:1016100000F032FB08E007EB810000F10C01082329
:101620005246304600F028FB08F1030005EB900518
:101630003AE00098C0F38310062828BF06200099DE
:1016400060F38911C1F38310801C009181003B4835
:1016500000F048FA06004ED000F08EFA002308226F
:101660006946304600F008FB00984FF0080AC0F3C6
:1016700083104FF00008002816D900BF05EA0400C7
:1016800007EB800000F10C015346042230466D1C2C
:1016900000F0F2FA009808F10108C0F383100AF193
:1016A000040A4045EAD816B1D7F8104400E022E019
:1016B000D7F8180418B1304600F064FA31E05CB194
:1016C000E068407920B1216820460A683146904799
:1016D000E0680468002CF3D1304600F053FA002093
:1016E000FFF7B0F9D7F81804002808BF7D60002084
:1016F000FFF7B0F915E0D7F810443CB12168204657
:1017000089688847E0680468002CF7D10C480D49C7
:101710000023401AC00849EA00400BA11A4601F014
:1017200093F8D7E9000181420CBF0120002080F02E
:10173000010004B0BDE8F08754030020FC33000032
:10174000EC330000D43300004261636B656E647358
:1017500020666C75736865640000000000231A46FB
:1017600001F072B808B5012300926A4601F06CF8E6
:1017700008BD00B583B0CDE9002302236A4601F01D
:1017800063F803B000BD30B585B0DDE90845DDF88C
:1017900028C08DE83C1005236A4601F055F805B0D5
:1017A00030BD0000082988BF70472DE9F84F8046FA
:1017B00093F80C9000201E461873D38815460F46E8
:1017C00043B13648009000F1080200F110013046A4
:1017D000FFF7A6FB297ADFF8C8A0052917D0687A99
:1017E00040B1A888FFF75AFE5AF820202D4930460C
:1017F000FFF796FBA888002100F088F8297A2A4A8A
:101800000346304652F821202849FFF789FB00247F
:10181000BC4206D218F8042025A13046FFF780FB11
:1018200003E025A13046FFF77BFB641C082CEFD3B7
:1018300022A13046FFF774FB0024BC4210D218F8F6
:1018400004B0FEF779FD006810F80B0010F03E0FB1
:1018500014BF5A462E221AA13046FFF761FB03E05F
:1018600018A13046FFF75CFB641C082CE5D3287AEE
:1018700005281CBF687A002805D00A493046DAF8E6
:101880000020FFF74DFB10493046FFF749FB30467B
:10189000FFF756FB86F80C90BDE8F88FA01A000001
:1018A00058000020CC1A000044000020D41A000088
:1018B0002025303278000000202020007C0000002D
:1018C0002563000020000000E01A00000C4810B55D
:1018D000FF218160002101604160C0F81814C0F848
:1018E0001414012180F82014064800F049F900285A
:1018F00018BF10BD044800F008FA002010BD000019
:1019000054030020FC330000982E000010B40D4C4E
:1019100069B10D494FF00002091BC90818BFDFF873
:101920002CC00BD03CF82230834204D1104654F82E
:10193000300010BC7047521C8A42F3D310BC002008
:1019400070470000D4330000FC33000000000000AA
:1019500070B50A480125D0F8104480F82054002CB6
:1019600008BF70BDE0684571216820464968884716
:10197000E0680468002CF5D170BD0000540300201D
:101980002DE9F04784B082460C9E00201D4696F853
:101990000C803073DB8817460C4633B140A00090B2
:1019A00041A243A13046FFF7BBFA297ADFF818912C
:1019B000052917D0687A40B1A888FFF76FFD59F85C
:1019C000202042A13046FFF7ABFAA8880021FFF79C
:1019D0009DFF297A3E4A0346304652F821203DA118
:1019E000FFF79EFA072F43D2DFE807F004090F162E
:1019F0001F2A370051463046FFF792FA38E0514629
:101A000030462268FFF78CFA32E0D4E900235146D1
:101A10003046FFF785FA2BE0A0680090D4E9002358
:101A200051463046FFF77CFA22E0D4E90201CDE9C5
:101A30000001D4E9002351463046FFF771FA17E060
:101A4000D4E902012269CDE900010292D4E9002320
:101A500051463046FFF764FA0AE004F108000FC867
:101A60008DE80F00D4E9002351463046FFF758FABD
:101A7000287A05280BD0687A28B114A13046D9F805
:101A80000020FFF74DFA16A13046FFF749FA30461D
:101A9000FFF756FA86F80C8004B0BDE8F087000026
:101AA0001B5B306D000000001B5B313B33316D0070
:101AB00025734C6F67732064726F707065642028A3
:101AC00025642925730D0A005800002025730000A5
:101AD000440000203C25733E2025733A200000007E
:101AE0000D0A00002DE9F0410646008A051F48193D
:101AF000C01CB0FBF5F0C7B23046FFF7C1F90400D7
:101B000008BFBDE8F0810020207101206071E580F0
:101B1000B7F1010825464FF0000726600CD030468B
:101B2000FFF7AEF958B161797F1C491C61712860DB
:101B3000054606604745F2D32046BDE8F081657949
:101B40002146681E09D010F0010F18BF0C6840082C
:101B500003D02268401E1468FBD127680024002DA2
:101B600007D938460E68FFF7AAF9641C3146A5422A
:101B7000F7D80020BDE8F0810121001DFFF76FB903
:101B8000FFF7B2B92DE9F04104460121001DFFF72E
:101B900071F910F0FF0F18BFBDE8F0812646657996
:101BA000681E09D010F0010F18BF3468400803D038
:101BB0002168401E0C68FBD1276800243146002DA7
:101BC00098BFBDE8F08138460E68FFF778F9641CCD
:101BD0003146A542F7D8BDE8F0812DE9F047C78826
:101BE0008846191D05464079B1FBF7F47843A0F10A
:101BF000040CB1FBF7F007FB1411D4184FF00109E6
:101C000064458CBFACEB0304144670B1B0F1004FD7
:101C10002ED2002809DD10F0010F18BF2D684010EA
:101C200003D02A68401E1568FBD17E1A4FF0000AC7
:101C3000A64288BF2646002C08BFBDE8F08708EB07
:101C40000A036818001DB9F1000F32461ABF014699
:101C500018461946FEF774FB00212D68A41BB244F8
:101C6000A7428CBF26463E46002CE8D1BDE8F0874F
:101C70002D68401EFCD1D8E72DE9F047C78888467B
:101C8000191D05464079B1FBF7F47843A0F1040C27
:101C9000B1FBF7F007FB1411D41864458CBFACEB13
:101CA0000304144670B1B0F1004F2AD2002809DDB8
:101CB00010F0010F18BF2D68401003D02A68401E95
:101CC0001568FBD17E1A4FF00009A64288BF264650
:101CD000002C08BFBDE8F08708EB090029440B1D64
:101CE000014632461846FEF72BFB00212D68A41B47
:101CF000B144A7428CBF26463E46002CECD1BDE83D
:101D0000F0872D68401EFCD1DCE7826800219160DD
:101D100082681161826851618268D1608268516015
:101D200080680160704700000E4901F58C7399428C
:101D300016D25A1AD21002EBD272521001EBC20222
:101D4000D2F800C0844538BF02F1080188BF1346AD
:101D500004D15068002818BF704701E09942E8D3C9
:101D600001487047542D0000402D00002DE9F04738
:101D7000054643481446407900281CBF1120BDE8A1
:101D8000F08700273F4EC6F80071002918BF687819
:101D900024D000230A2821D2DFE800F020201C19DB
:101DA00016130E0B0805C87943EA0063887943EAE5
:101DB0000043487943EA002308791843C6F83C06F3
:101DC0000023C87843EA0063887843EA00434878F0
:101DD00043EA002308781843C6F838060120C6F8FD
:101DE00008032888A9782A7940EA0130E97849036C
:101DF00041EA82310843697940EAC130C6F83406C5
:101E0000DFF884904FF06408D6F80001A0B1C6F85E
:101E100000710120C6F8040374B36978D6F83C0653
:101E2000062918D0072914D0082910D0092904BF81
:101E3000020EE2710BD00FE049F001014FF4207067
:101E40008847B8F10108DFD10D20BDE8F087020C0A
:101E5000A271020A62712071D6F8380606290BD2E7
:101E6000DFE801F00A0A09070503010EE170010C21
:101E7000A170010A617020700020BDE8F0870000A9
:101E80008400002000900240202D00000F4AC2F87C
:101E90001C15C2F820050E48417900291CBF1120ED
:101EA00070470021C2F8001103680121002B1CBFFC
:101EB0004171C2F804130748016003D1D2F8000150
:101EC0000028FBD04FF00000704700000090024057
:101ED000840000200C900240524B93F804C0BCF1E7
:101EE000000F1CBF082070472DE9F04190F804C096
:101EF0000025BCF1FF0F1CBF4479FF2C7DD08479F5
:101F0000FF2C1CBFC479FF2C7ED0474CC4F824C5DD
:101F100090F805C0BCF1FF0F08BF4FF0FF3CC4F8BC
:101F200028C590F806C0BCF1FF0F08BF4FF0FF3C7A
:101F3000C4F830C590F807C0BCF1FF0F08BF4FF0E0
:101F4000FF3CC4F834C590F808C0BCF1FF0F08BFCF
:101F50004FF0FF3CC4F838C590F809C0BCF1FF0F42
:101F600008BF4FF0FF3CC4F83CC506684FF0010CB9
:101F7000C4F84065867AC77A46EAC706077B46EA10
:101F80008716477B002F18BF012746EAC716C4F8FB
:101F90004465D4F80066877B26F0FF0626F07F466E
:101FA0003E43C77B002F18BF012746EA0766077C20
:101FB00046EA4766477C46EA0776C4F800665D71E4
:101FC0009A6019600122C4F8082351B1807C174936
:101FD000400181F8000416495002C1F88002C1F89E
:101FE0000001144883F804C0C0F800C0C4F80051D0
:101FF000C4F800C06425104E00E005E0D4F80001EC
:1020000028B10020BDE8F0810720BDE8F08146F04E
:1020100001014FF4207088476D1EEDD10D20BDE801
:10202000F0810000840000200090024029E000E0E0
:1020300004E000E000950240202D000010B400F004
:1020400060430024B3F1005F1EBF102010BC704736
:102050004FF0010C114BC3F80425C3F80805C3F871
:102060000C150F48417900291EBF112010BC704784
:10207000C3F80041016800291CBF80F805C0C3F8FF
:1020800004C30848C0F800C004D100BFD3F8000161
:102090000028FBD010BC4FF00000704700900240B9
:1020A000840000200490024010B400F0604300243B
:1020B000B3F1005F1EBF102010BC70474FF0010C41
:1020C000114BC3F81025C3F81405C3F818150F48B1
:1020D000417900291EBF112010BC7047C3F8004190
:1020E000016800291CBF80F805C0C3F804C3084874
:1020F000C0F800C004D100BFD3F800010028FBD015
:1021000010BC4FF000007047009002408400002097
:102110000890024001490120087070477C000020AF
:102120002DE9F041304D0026A5F50053297C51B131
:10213000D5F808C04FF6FF720CEB03010A600CF1F2
:102140000401A9602E74D5E902120B440146184619
:10215000FEF7F6F8D5E902100144C0F58050A960F9
:1021600081423ED968684FF4805102031F48FFF74F
:102170009BFF20B11E4A4FF4DD71FEF74BF81D4C5A
:1021800020780028FCD026701B481C496A68401A39
:10219000C708032040EA074019A1FFF7E3FA4FF40C
:1021A00080511D48FEF7E5F868684FF4805102033E
:1021B0001948FFF743FF20780028FCD02670164905
:1021C0004FF48052A1F58050FEF7E5F828B10220C7
:1021D00040EA074011A1FFF7C1FAFEF7D1FCFEF774
:1021E00001FD0020BDE8F081342A0020340A0020DF
:1021F0008C2400007C000020EC330000D43300006D
:10220000426C6F636B2025642057726974652043AC
:102210006F6D706C65746500341A002044617461E0
:1022200020696E636F6E73697374656E740000006D
:102230002DE9F041504D0026A5F500512A7C42B110
:10224000AB68426803EB010CCCF800201A1DAA60B1
:102250002E746A7C22B1012A0FD0022A3CD043E0BE
:10226000AA68036A11440B60436A4B60836A8B60FF
:10227000C06AC86002F110002CE0AA68D0F820C043
:1022800053181032C3F800C0D0F824C0C3F804C0FB
:10229000D0F828C0C3F808C0D0F82CC0C3F80CC0D0
:1022A0005318D0F812C0C3F800C0B0F816C0A3F895
:1022B00004C0921D5318D0F80CC0C3F800C0B0F889
:1022C00010C0921DA3F804C0114483690B60808B79
:1022D0008880901DA86007E0AA68836911440B609C
:1022E000808B8880901DA860D5E90201C1F58051DE
:1022F00088423ED968684FF4805102031F48FFF7B7
:10230000D3FE20B11E4A4FF4DD71FDF783FF1D4C53
:1023100020780028FCD026701B481C496A68401AA7
:10232000C708032040EA07401949FFF71BFA4FF49A
:1023300080511848FEF71DF868684FF48051020379
:102340001448FFF77BFE20780028FCD02670114946
:102350004FF48052A1F58050FEF71DF828B10220FD
:1023600040EA07400C49FFF7F9F9FEF709FCFEF7D0
:1023700039FC0020BDE8F081342A0020340A002016
:102380008C2400007C000020EC330000D4330000DB
:1023900000220000341A00201C22000030B52C4C12
:1023A000054604F10C0089B090E80F100DF1080EFD
:1023B0008EE80F100022274902A8FFF78DFD18B103
:1023C00025A23F21FDF726FF2F4829680022016042
:1023D0000021817440208DF81C00D4E90101CDE971
:1023E000000111466846FFF7C1FC20B127A240F268
:1023F0006D11FDF70FFF99208DF8000000221146A6
:102400006846FFF7B3FC20B120A24FF4B971FDF785
:1024100001FF01208DF8000002208DF8010000224C
:1024200007A96846FFF7A2FC20B118A24FF4BC71BF
:10243000FDF7F0FE21482249401AC008032141EA75
:10244000004020A1FFF78AF909B0002030BD00004C
:10245000A42E0000152100002E2E5C2E2E5C2E2EA8
:102460005C2E2E5C2E2E5C2E2E5C7364735C73646B
:10247000735F6D656D6F72795C7364735F6D656DAD
:102480006F72792E63000000342A00202E2E5C2EFD
:102490002E5C2E2E5C2E2E5C2E2E5C2E2E5C7364FB
:1024A000735C7364735F6D656D6F72795C73647375
:1024B0005F6D656D6F72792E63000000EC33000074
:1024C000D4330000534453204D656D6F7279204919
:1024D0006E697469616C697A65640000002A08BFDE
:1024E00070472DE9F0470025DFF84CA0134F144644
:1024F000884603264FF0010908EB0501224600201B
:10250000FDF7CCFF0544241A58B93878002808BFD5
:10251000BDE8F0874AF001014FF47A408847761E03
:1025200005D087F80090002CE6D1BDE8F0870020A8
:102530003870BDE8F0870000902E000020000020D9
:102540002DE9F04F8F4C85B002200027A074C4E91C
:10255000010768463A460C21FFF770FD18B18A4A18
:102560005921FDF757FEDFF8249200BF99F80000CB
:102570000028FBD089F80070226869460020904747
:102580008348844A0321101AC00841EA0048824E59
:10259000824D01214AF6AA2A41EA004B4FF48051AC
:1025A0007D48FDF7E6FE60684FF4805102037A48EB
:1025B000FFF744FD99F800000028FBD089F800706F
:1025C000A0688119801C0988ADF80C10A06088B241
:1025D000504506D0002122680520904705B0BDE88F
:1025E000F08F40466EA16268FFF7BCF8A0688119C1
:1025F000001D09686960A06095F8300040F008008F
:1026000085F83000607C20B101282ED0022875D0DA
:1026100099E095F8300040F01001A0688219103060
:1026200013682B6253686B629368AB62D268EA628C
:10263000A06041F0010085F830002268574904206D
:1026400090472F606F60AF60EF602F616F61AF6187
:10265000EF612F626F62AF62EF622F63D4E9020114
:10266000C1F580518842D4D96DE0A16895F8300059
:102670008B1940F01002D3F800C0C5F820C0D3F881
:1026800004C0C5F824C0D3F808C0C5F828C0D8686D
:10269000E86201F1100042F001018219801D136807
:1026A000C5F812309288EA828219801D1368EB60A7
:1026B00092882A828219801D1368AB619288AA834E
:1026C000A06041F0060085F83000226833490420FC
:1026D00090472F606F60AF60EF602F616F61AF61F7
:1026E000EF612F626F62AF62EF622F63D4E9020184
:1026F000C1F580518842B8D925E0FFE7A16895F877
:1027000030008A19891D1368AB619288AA83A16081
:1027100040F0140085F830002268204904209047DA
:102720002F606F60AF60EF602F616F61AF61EF612D
:102730002F626F62AF62EF622F63D4E90201C1F5CD
:1027400080518842DAD96068401CC4E90107B0F5BD
:10275000804F7FF623AFA07C012809D0022808BF54
:10276000A7743FF41BAF584612A1FEF7F7FF15E719
:102770000021226801209047A774002122680220CE
:1027800090470BE7342A00208C2400007C000020B6
:10279000D4330000EC330000341A0020000A00207B
:1027A00053747265616D696E6720626C6F636B2034
:1027B00025640000556E6578706563746564205209
:1027C0006573756C740000002DE9F0411A4D01210C
:1027D0001A4AA97402210026C5E901168179697493
:1027E000174C515CE9602E74818007462670314693
:1027F0003046FFF74BFB18B1124A6521FDF70AFD81
:1028000021780029FCD0267000220C213846FFF7E1
:102810004BFC18B10B4A6921FDF7FCFC207800281D
:10282000FCD02670FEF7DEF900212A6808469047A2
:102830000020BDE8F0810000342A0020A42E000012
:102840007C0000208C2400002DE9F84F324D924688
:10285000884607461E46012269461846AC68FEF7C0
:1028600003F900284CD0DDF8009009F102012EB3E5
:102870000020AAF1040216F0010F07D001EA0403B8
:1028800005EB830352F8040FD86001205FEA560C71
:1028900014D00B1803EA040B05EB8B0B5B1CD2F86E
:1028A00004A02340CBF80CA005EB830352F808AF3B
:1028B000801CC3F80CA0BCF1010CEAD14FEA174A06
:1028C000002105F21C40FEF7D0FA09F10101214078
:1028D00080F3100005EB81014AEA0040C86009EA74
:1028E000040005EB8000C16867F3C50166F3891138
:1028F00068F39F2121F00301491C21F00401C1600C
:1029000095F82004002808BFBDE8F88FFEF7ECFD1D
:102910000028FBD1BDE8F88F54030020044810B50F
:1029200000218174026802209047002010BD000041
:10293000342A00202DE9F04F83B0DFF8CC824FF02D
:102940000009CDF80090D8E9011498F8000098F833
:1029500001204E46904231D0401CC0B288F80000A1
:10296000022808BF88F80060A84898F8002050F8AE
:102970002220101920F07F400023C8F80800D9B1A8
:10298000D8F804000168914202D9891A016013E065
:102990000660C569C8F80450521A0B44C76801465E
:1029A00047B104EB030A2AF07F4AC0E901A7C1F846
:1029B0001C908146002DE3D101200090D8F804003E
:1029C0004FF0000A01909EE09148027802EB42012C
:1029D000521CD2B2027000EBC1018378091D9A42E9
:1029E00008BF067048680A780446012A40D0022AC7
:1029F00002D0032A7AD130E0D8F804703D465FEA6D
:102A0000050B28D0854204D02F46ED69002DF9D161
:102A100021E005B3AF4211D1DBF81C00C8F8040077
:102A200060B97C4901208860C8F8086088F8030014
:102A3000794840F001014FF43C6088472968E86913
:102A4000F86110B1026811440160D8F804008345B0
:102A500018BF4FF0010A26745CE0D8F80400002883
:102A600058D00674C0690100FBD1C8F8041051E0C9
:102A7000207C00284ED188686060C868A060086922
:102A8000E0604869A06198F80300002818BF6660FC
:102A90006268D8F80810614B501A20F07F409842C5
:102AA0003CBFA168084408D3881AA16820F07F4081
:102AB00081428CBF081A266000D920606660012020
:102AC000A6602074E661D8F80400002808BFC8F8A2
:102AD000044018D021680268914288BF03460AD892
:102AE000511A0160E061C8F804400CE012E00346AE
:102AF000C069891A20B102688A42F8D3521A02606A
:102B00002160E061DC61B9F1000F1CBF4C46D9F8CF
:102B10001C90BDD13E480178407881427FF454AF8B
:102B2000BAF1000F07D1D8F804100198814204BF10
:102B30000098002863D04FF48030D8F80410470084
:102B40004FF0E029F1B3D1F800A035490C68D8F86E
:102B500008B0A4EB0B0121F07F41CD1C98F80210C6
:102B600099B92C49C1F84403C1F80403C9F880722B
:102B7000C9F8007101200860274840F001014FF4B6
:102B80003C608847012088F80200554538BF55460B
:102B900005EB0B00234A20F07F401060204B1968A2
:102BA000001B091B21F07F4120F07F40C91C81429E
:102BB00025D918681060184840F001014FF43C60B6
:102BC000884700E002E0C9F8007218E00124C9F863
:102BD0008071104DC5F84803C5F808036C600E4FAE
:102BE0004FF43C6047F001018847AC6047F00101B9
:102BF0004FF43C60C8F80860884788F8026088F89D
:102C0000036003B0BDE8F08F0C0000201800002026
:102C1000B000002000100140702E0000FFFF7F0078
:102C200004150140401501402DE9F05F9146DDE9B2
:102C30000A6A04469B460D4608464FF0010849457E
:102C400006D300BFB0FBF9F008F101084845F9D2FE
:102C5000C34588BF98461AF0010F1AD1CEB11AF0B9
:102C6000020F04D0BBF1000F08BF302700D020278F
:102C7000B0450ED2A16822684B1C2046A360575471
:102C8000D0E90112761E8A4228BFFEF759F9002EBC
:102C9000EED10127BBF1010F96BFB5FBF7F0ABF109
:102CA000010B484528BF07FB09F7F3D2DFF86CB0EA
:102CB000B5FBF7F101FB1755A26823681BF801105B
:102CC00002F1010C2046C4F808C09954D0E9011261
:102CD0008A4228BFFEF734F9B7FBF9F7002FE7D196
:102CE0001AF0010F14BF002EBDE8F09F464598BFB3
:102CF000BDE8F09F2046A268236802F1010C202164
:102D0000C4F808C09954D0E90112761E8A4228BF3F
:102D1000FEF716F9002EE9D1BDE8F09F2E2D000038
:102D20000338FDD870470000050200000000303174
:102D30003233343536373839414243444546000052
:102D4000556E6B6E6F776E206572726F7220636F57
:102D50006465000000000000B032000001000000C7
:102D60007031000002000000642F0000030000002A
:102D7000E4310000040000003832000005000000CB
:102D80001831000006000000B43000000700000009
:102D900020320000080000002C3100000900000073
:102DA000903100000A000000983200000B00000083
:102DB0004C2F00000C000000443100000D0000000A
:102DC000E83200000E000000103200000F0000008A
:102DD0004C320000100000008032000011000000A2
:102DE000FC32000080000000CC30000081000000B8
:102DF0000830000082000000C82F0000830000009F
:102E0000A82F000084000000E42F000085000000CF
:102E1000F030000086000000F83100009000000053
:102E20009430000091000000882F00009200000004
:102E30005831000000820000603200000182000072
:102E4000AC31000002820000C831000000840000A4
:102E50002430000001840000BC3200000284000025
:102E60006C300000038400004830000000000000C7
:102E70000338FDD870470000B9130000B7130000F5
:102E8000B11300000000000000000000000000007E
:102E90000338FDD870470000BC0200207F0000000E
:102EA0003C03002010280C00660101010101000014
:102EB000000000000F0D141620180403000001008C
:102EC000000F06000040404040404040404041412B
:102ED00041414140404040404040404040404040EF
:102EE0004040404040050202020202020202020289
:102EF0000202020202202020202020202020200286
:102F00000202020202029090909090901010101015
:102F100010101010101010101010101010101010B1
:102F20000202020202028888888888880808080845
:102F30000808080808080808080808080808080811
:102F40000202020240000000C52E00004E52465F01
:102F50004552524F525F494E56414C49445F44419D
:102F6000544100004E52465F4552524F525F534FFC
:102F700046544445564943455F4E4F545F454E4184
:102F8000424C4544000000004E52465F4552524FAD
:102F9000525F464541545552455F4E4F545F454E32
:102FA00041424C45440000004E52465F4552524F4C
:102FB000525F4D555445585F554E4C4F434B5F46FD
:102FC00041494C45440000004E52465F4552524F25
:102FD000525F4D555445585F4C4F434B5F464149F6
:102FE0004C4544004E52465F4552524F525F4D553C
:102FF0005445585F434F4E445F494E49545F4641E4
:10300000494C4544000000004E52465F4552524F25
:10301000525F4D555445585F494E49545F464149AA
:103020004C4544004E52465F4552524F525F424C0F
:10303000455F495053505F52585F504B545F545254
:10304000554E4341544544004E52465F4552524FFF
:10305000525F424C455F495053505F504545525F67
:1030600052454A4543544544000000004E52465FD5
:103070004552524F525F424C455F495053505F4C4E
:10308000494E4B5F444953434F4E4E45435445448C
:10309000000000004E52465F4552524F525F415071
:1030A000495F4E4F545F494D504C454D454E544538
:1030B000440000004E52465F4552524F525F4E4F01
:1030C000545F535550504F52544544004E52465F42
:1030D0004552524F525F4D4F44554C455F4E4F54F1
:1030E0005F494E495449414C495A4544000000004B
:1030F0004E52465F4552524F525F4D4F44554C45DC
:103100005F414C52454144595F494E495449414CF5
:10311000495A4544000000004E52465F4552524F06
:10312000525F4E4F545F464F554E44004E52465FDD
:103130004552524F525F494E56414C49445F535499
:10314000415445004E52465F4552524F525F4441F2
:1031500054415F53495A45004E52465F4552524FC3
:10316000525F494F5F50454E44494E4700000000B2
:103170004E52465F4552524F525F5356435F48414D
:103180004E444C45525F4D495353494E4700000051
:103190004E52465F4552524F525F494E56414C493E
:1031A000445F4C454E475448000000004E52465F75
:1031B0004552524F525F4452565F5457495F4552F1
:1031C000525F414E41434B004E52465F4552524F73
:1031D000525F4452565F5457495F4552525F444EC6
:1031E00041434B004E52465F4552524F525F494E4B
:1031F0005445524E414C00004E52465F4552524F8C
:10320000525F53544F524147455F46554C4C000066
:103210004E52465F4552524F525F4E554C4C000045
:103220004E52465F4552524F525F494E56414C49AD
:10323000445F504152414D004E52465F4552524FFD
:10324000525F4E4F5F4D454D000000004E52465FAD
:103250004552524F525F464F5242494444454E00F8
:103260004E52465F4552524F525F4452565F54573A
:10327000495F4552525F4F56455252554E0000002D
:103280004E52465F4552524F525F494E56414C494D
:10329000445F4144445200004E52465F4552524FF3
:1032A000525F494E56414C49445F464C414753009A
:1032B0004E52465F53554343455353004E52465F6B
:1032C0004552524F525F424C455F495053505F4305
:1032D00048414E4E454C5F414C52454144595F4533
:1032E00058495354530000004E52465F4552524FC6
:1032F000525F54494D454F55540000004E52465FB1
:103300004552524F525F4255535900007761726ED9
:10331000696E670064656275670000001B5B313B86
:1033200033306D001B5B306D000000001B5B313BD8
:1033300033316D001B5B313B33326D001B5B313B26
:1033400033336D001B5B313B33346D001B5B313B12
:1033500033356D001B5B313B33366D001B5B313BFE
:1033600033376D00696E666F000000006572726F22
:1033700072000000505253005541525400000000AA
:1033800055415254450000007274745F6C6F675F62
:103390006261636B656E6400617070007364735F7B
:1033A000636C6B00103400000000002084000000FB
:1033B000AA0800009434000084000020C4490000E2
:1033C000BA080000782E00000000000088330000DA
:1033D0002400002074330000000000007833000057
:1033E000000000008033000000000000983300005F
:1033F000000003039C3300000000000034000020A4
:103400002C00002034000020FC01002018000000E7
:1034100000000000000000000000000000000000AC
:10342000000000000000000000000000000000009C
:103430000000000000000000FF000000000000008D
:10344000000000000000000000000000000000007C
:1034500000000000000000006C3300000C3300008E
:103460006433000014330000243300001C330000D8
:103470002C330000343300003C33000044330000A0
:103480004C330000543300005C33000000000000A7
:043490000090D003D5
:0400000500000201F4
:00000001FF
