:020000040002F8
:10600000E8820120DD630200E5630200E76302002D
:10601000E9630200EB630200ED6302000000000090
:10602000000000000000000000000000EF6302001C
:10603000F163020000000000F3630200F563020058
:10604000E5670200F7630200F96A0200F5680200E2
:10605000F7630200F7630200A9650200F76302001C
:10606000F7630200F7630200F7630200F7630200C0
:10607000F7630200F7630200F7630200F7630200B0
:10608000F763020071680200F7630200F763020021
:1060900005690200F763020009690200F763020064
:1060A000F7630200F7630200F7630200F763020080
:1060B000F7630200F7630200000000000000000028
:1060C000F7630200F7630200F7630200F763020060
:1060D000F7630200F7630200F7630200F763020050
:1060E000F76302003D680200F76302000000000051
:1060F00000000000F763020000000000F7630200E8
:10610000000000000000000000000000000000008F
:10611000000000000000000000000000000000007F
:10612000000000000000000000000000000000006F
:10613000000000000000000000000000000000005F
:10614000000000000000000000000000000000004F
:10615000000000000000000000000000000000003F
:10616000000000000000000000000000000000002F
:10617000000000000000000000000000000000001F
:10618000000000000000000000000000000000000F
:1061900000000000000000000000000000000000FF
:1061A00000000000000000000000000000000000EF
:1061B00000000000000000000000000000000000DF
:1061C00000000000000000000000000000000000CF
:1061D00000000000000000000000000000000000BF
:1061E00000000000000000000000000000000000AF
:1061F000000000000000000000000000000000009F
:10620000DFF80CD000F092F90048004715C10200F9
:10621000E882012030B450E8012F93B2C4892344AE
:106220008489A34228BF1B1B0489A34202BFBFF37A
:106230002F8F002007E0C3EA020340E80134002C5E
:10624000E9D14FF001000A6030BC704750E8012FDF
:10625000C2EA024240E801210029F7D1704730B478
:1062600050E8022F1FFAA2F3C488A34202BFBFF373
:106270002F8F00200DE0C48923448489A34228BFC6
:106280001B1BC2EA034340E80234002CE8D14FF064
:1062900001000A6030BC704750E8022FC2EA224277
:1062A00040E802210029F7D17047034653E8022F46
:1062B000D988B2EB324F4FF0000017BF92B241EADB
:1062C000014142EA014104E05A68B2EB324F08BF93
:1062D000012043E80212002AE8D1704700B583B0DC
:1062E00002900091019244F2010071466A4600F06A
:1062F000E3FD03B000BD000030B4044654E8000FD5
:106300000D4644E80053002BF8D1156030BC7047AF
:1063100030B4044654E8000F40EA010544E8005355
:10632000002BF7D1156030BC704730B4044654E8F8
:10633000000F00EA010544E80053002BF7D1156077
:1063400030BC704730B4044654E8000F80EA0105C1
:1063500044E80053002BF7D1156030BC704730B4CF
:10636000044654E8000F00EB010544E80053002BFD
:10637000F7D1156030BC704730B4044654E8000FC4
:10638000A0EB010544E80053002BF7D1156030BCA9
:10639000704770B404464FF0000054E8006F0D6879
:1063A000AE4207BF44E80023012044E800630E60CA
:1063B000002B1CBF0020F0E770BC704730B40446CF
:1063C00054E8000F88422CBF451A054644E80053A4
:1063D000002BF5D1156030BC70470000064880479F
:1063E00006480047FEE7FEE7FEE7FEE7FEE7FEE7BA
:1063F000FEE7FEE7FEE7FEE70D690200016202002C
:106400002DE9F05F0546002092469B4688460646E9
:10641000814640241BE0284641464746224600F07C
:1064200074F853465A46C01A914110D31146184683
:10643000224600F016F82D1A67EB01084F46224657
:106440000120002100F00DF817EB00094E41201E3D
:10645000A4F10104DFDC484631462A464346BDE844
:10646000F09F202A04DB203A00FA02F10020704756
:106470009140C2F1200320FA03F319439040704782
:1064800000487047C855030040EA01039B0703D04A
:1064900009E008C9121F08C0042AFAD203E011F863
:1064A000013B00F8013B521EF9D27047D2B201E025
:1064B00000F8012B491EFBD270470022F6E710B509
:1064C00013460A4604461946FFF7F0FF204610BD62
:1064D000421C10F8011B0029FBD1801A704730B50F
:1064E00004460020034600E05B1C934203D2E05CBC
:1064F000CD5C401BF8D030BD034611F8012B00F8ED
:10650000012B002AF9D118467047202A04DB203AD3
:1065100021FA02F00021704721FA02F3D040C2F1C3
:10652000200291400843194670470000064C074D71
:1065300006E0E06840F0010394E807009847103453
:10654000AC42F6D3FFF760FE5C6903007C69030090
:1065500070B58C1810F8015B15F0070301D110F825
:10656000013B2A1106D110F8012B03E010F8016B52
:1065700001F8016B5B1EF9D12B0705D40023521ED5
:106580000DD401F8013BFAE710F8013BCB1A921C3D
:1065900003E013F8015B01F8015B521EF9D5A1423B
:1065A000D8D3002070BD00002DE9F04F00268DB03B
:1065B000DFF8A081B14604964FF480750124374678
:1065C0000596284607F0A8FE38B1D8F80403204203
:1065D00003D0284607F096FE26432D1D64007F1C3D
:1065E000ADB2082FEDD34FF4BE74204607F094FEF1
:1065F00048B1204607F086FE46F0004604AA022174
:10660000002007F069FE544C16F0FF0F15D001274B
:10661000002537420DD008EB8501D1F81005D1F8DF
:106620001015C0F3052054F82520C1F3014102B133
:1066300090477F006D1C082DEBD3002E7EDA0020E2
:10664000CDF82890411E0DF1100B07AACDF82C9023
:1066500042F82010401C91460228F9D300252E460E
:10666000A11911F8607F91F9000027F0C008401CC3
:1066700040D007A9404607F010F940B34FEA971AF7
:10668000404602F037FE54F820701FB1BAF1030FF4
:1066900003D006E0BAF1030F2CD10AA9404607F057
:1066A00004F902A8CDF8088007F0D2FD029900EBAA
:1066B0008100D0F8000704A9C0F3014002904046D1
:1066C00007F0EBF80028029802D0022802D011E06F
:1066D00003280FD1BAF1030F08D10298022833D052
:1066E0000221404607F084FD6D1CEDB217B1514602
:1066F0004046B847761C042EB2D3002D21D001AA03
:106700000221002007F0E8FD00205A460DF10401A7
:1067100052F8206051F82030B34217D000200AAE62
:106720004FEA090351F8207042F8207056F82070A3
:1067300043F82070401C0228F4D300E001E0002D53
:106740008CD10DB0BDE8F08F0321CAE7401C0228B0
:10675000DED3F6E700600040AC15012000F01F0218
:10676000012191404009800000F1E020C0F8801232
:10677000704700F01F02012191404009800000F1A4
:10678000E020C0F80011704700F01F020121914085
:106790004009800000F1E020C0F80012704749076E
:1067A000090E002806DA00F00F0000F1E02080F862
:1067B000141D704700F1E02080F8001470470000BD
:1067C000BFF34F8F05480168054A01F4E0611143AA
:1067D0000160BFF34F8F00BFFDE700000CED00E04C
:1067E0000400FA0570B54FF48076304607F0EEF8F5
:1067F000114CB50560B1304607F0EFF80120C5F83F
:106800000803607920B90120607121680020884761
:106810004FF48276304607F0D9F800280AD0304687
:1068200007F0DBF80220C5F808032168BDE87040D6
:106830000120084770BD0000900C012010B50A4CE3
:106840004FF48071204608F01DF900280AD007484F
:1068500000214171C4F8001102688168BDE8104050
:106860000020104710BD0000009002405416012087
:1068700007480021C0F84011C0F84411C0F8481181
:10688000C0F84C11C0F80011C0F804110CF00CBD98
:106890000010014000F036B970B50E46144900EB07
:1068A000400001EBC0051446E86A183520B1012804
:1068B0000FD0022805D113E0284600F057F9A04276
:1068C00001D2002411E022463146284600F086F924
:1068D0000BE0284600F04AF9A042F4D20446F2E761
:1068E0003146284600F04DF90446204670BD0000B0
:1068F000201F0120014902480CF082BD181601201A
:10690000003000400CF01EBC08F0C6BA70B54FF065
:10691000805000228300D0F83011C3F80C21C3F856
:106920001021674B1A60674B1B68674C2360654BEF
:106930001B1D1B68241D2360624B08331B68241D2C
:106940002360604B0C331B68241D23605D4B1033A8
:106950001B68241D23605B4B14331B68241D2360BC
:10696000584B18331B68584C20342360554B1C334C
:106970001B68241D2360534B20331B68241D236098
:10698000504B24331B68241D23604E4B28331B6857
:10699000241D23604B4B2C331B68241D2360494B63
:1069A00030331B68484C40342360464B34331B68FB
:1069B000241D2360434B38331B68241D2360414B47
:1069C0003C331B68241D23603E4B40331B68241D51
:1069D00023600124082902D1D0F8343113B10829E9
:1069E00004D006E03A4B3949196005E0D0F834315B
:1069F00013B1082904D006E0364BFB21196005E0ED
:106A0000D0F8343113B1082908D00EE090F858328C
:106A10003148016863F30301016002E0D0F83431CA
:106A20001BB92E494FF4007008602D480168C90752
:106A300002D06FF0010101602A48016841F4700141
:106A40000160BFF34F8FBFF36F8F4FF01021D1F86C
:106A50000C02254BC507254811D01C600468002C8A
:106A6000FCD0D1F80C4224F00104C1F80C420168BA
:106A70000029FCD01A6001680029FCD01AE0D1F886
:106A80000052002D03DBD1F80452002D14DA1C60F3
:106A90000468002CFCD01224C1F800420568002DC7
:106AA000FCD0C1F8044201680029FCD01A600168DA
:106AB0000029FCD0FFF784FE0E490D48086070BD28
:106AC000380500400404001020C500404881030040
:106AD0008C56004018F50040E40E004040960240FD
:106AE0000004004088ED00E004E5014000E40140BE
:106AF0000090D003D00D012001480068004700003D
:106B0000980C012010B5124C02202061606111A088
:106B1000A06104F17800E0614FF400702062002071
:106B2000A06260620BA1A164E06204F51E71E164E1
:106B30001021A065C4E91410E06509A1E01DFFF76C
:106B4000DBFC08A12046FFF7D7FC2020A07110BD78
:106B5000201F01205465726D696E616C0000000099
:106B60005254540053454747455200000269C168DA
:106B70008A4203D88068401A104400E0501A401E30
:106B800070472DE9F047C4681746894606464FF01E
:106B900000083069A04201D9051B02E0B168201A43
:106BA0000D1AB0686D1E001BA84200D80546BD42F4
:106BB00000D33D4670682A4620444946FFF764FCEE
:106BC000B0687F1B2C44A844A944A04200D10024F3
:106BD000F460002FDDD14046BDE8F0872DE9F0419B
:106BE00004468846D4E90207C51BE168606816467A
:106BF0000844B54206D94146FFF746FCB819E060A3
:106C0000BDE8F0812A464146FFF73EFC761B08EBC3
:106C1000050132466068FFF737FCE660F0E702E006
:106C200008C8121F08C1002AFAD170477047002017
:106C300001E001C1121F002AFBD170470121202869
:106C400003DA81400548014003E0402802DA203899
:106C5000814009B10120704700207047FC06FFBD4C
:106C600010B560B159B102780B785208B2EB530FEE
:106C700005D10622401C491CFFF731FC08B1002059
:106C800010BD012010BD800701D0002070470120F9
:106C90007047C3688B4206D811440069491E81427F
:106CA00001D8012070470020704710B50122022151
:106CB000002002F0D3F808B1072810D107220221E2
:106CC000012002F0CBF808B1072808D100210A22E0
:106CD000084602F0C3F808B1072800D1002010BD13
:106CE00000B5ABB0AC216846FFF7E7FB02208DF89A
:106CF000000001208DF8020006218DF80310032109
:106D0000ADF810108DF87C000C496420059122909C
:106D100044F2506023900A4829906946094800F0DF
:106D20004DFE20B1084A40F20531FFF7D7FA0121A4
:106D3000044800F040FE2BB000BD0000A80B01206D
:106D400021F70200680E0120A46D020010B580B189
:106D50000E480F49401AC008032101EB00400DA165
:106D600007F0C4FC0AF03EF800280ED00DA28B21DB
:106D700007E003210F4800F0DDFE002805D009A23E
:106D80009D21BDE81040FFF7A9BA10BD8C69030032
:106D90008C690300457261736520626F6E647321B4
:106DA000000000002E2E5C2E2E5C2E2E5C6D616984
:106DB0006E2E6300680E012070B58CB015460E462D
:106DC00000236C46C3F10F01415CE1545B1C102BA6
:106DD000F8D30D2104F11000FFF76FFB0020C0F184
:106DE0000F02315C2244401C11740328F7D368461B
:106DF00046DF0020C0F10F01214491F820102954F2
:106E0000401C0328F6D30CB070BD022001F05EBF19
:106E10000149C97801F06AB8100C012070B500244E
:106E2000064D06E06868012110F8340008F042F9C8
:106E3000641C28788442F5D3002070BDA00C01208A
:106E4000F8B515460C460646052A01D20720F8BDBE
:106E500008F028FA18B908F0EBF90028F7D1124920
:106E600000224E600C708D60C1E90422C1E9062247
:106E70000E4D0DE006EBC4002968009181788DF875
:106E8000011000780A4A694608F060F90028DED14E
:106E9000641EE4B2EED2BDE8F84004480021054A81
:106EA000001D00F017B90000A00C012020430300D2
:106EB000E5B20200959B0200FEB515460E46074658
:106EC00072B607F0C9FC00BF07F0F6FA0028FBD144
:106ED0002249234A0120891AC90800EB0144012FE5
:106EE00023D06FF48050381822D0B0F5405F24D002
:106EF0006FF44051C84206D12B88204619A16A6818
:106F000007F0FFFB04E0204632461DA107F0F2FB2C
:106F100021480068C00700D000BE2A4603B03146B1
:106F20003846BDE8F04000F079B820461BA101E0EA
:106F3000204622A107F0DAFBEAE7A86808F056F835
:106F40000346D5E90001CDE900100296204624A1B0
:106F5000AA6807F0E7FB20462BA1EBE7446A030091
:106F60008C690300415353455254494F4E204641CA
:106F7000494C45442061742025733A257500000072
:106F8000554E4B4E4F574E204641554C5420617440
:106F90002030782530385800F0ED00E0534F46544B
:106FA0004445564943453A20415353455254494F6D
:106FB0004E204641494C454400000000534F465482
:106FC0004445564943453A20494E56414C49442090
:106FD0004D454D4F52592041434345535300000006
:106FE0004552524F52202575205B25735D206174F8
:106FF0002025733A25750D0A50432061743A2030DC
:107000007825303878000000456E64206F66206572
:1070100072726F72207265706F72740008B501230E
:107020008DF800309DF80030144B186059609A605C
:107030006FF48041401807D001280FD1DA60D8687A
:1070400000889861D86807E01A61186980685861FB
:1070500018690068986118694068D86118685868AC
:107060009868D868186958699869D86972B600BF75
:107070009DF800000028FBD162B608BD80160120F3
:1070800010B50E4C03E0401C00E00020207020787A
:107090006178814210D022786188E068A36802FBA1
:1070A000010003EBC20153F8322089889047207811
:1070B000A1888842E9DAE6E710BD0000C00C012093
:1070C000401A20F07F407047014800687047000078
:1070D00004150140084B9B7823B12AB120B1006808
:1070E000037C1BB1082070470720704700230374FE
:1070F0004174426118467047A016012070B50AF02D
:107100006DFA104800240B21047044700E4D8170FC
:1071100014206C602C706C70FFF720FB062114208B
:10712000FFF73DFB1420FFF724FB0848046006210D
:107130001120FFF734FB0548001F0068A8600020FD
:1071400070BD0000A0160120D00C012008150140E0
:107150002DE9FC47DFF8789099F8023073B368B3F3
:10716000052902D20720BDE8FC87436933B3437C7D
:10717000012B25D0002704460025884616468DF8A9
:107180000050684600F038F801A80CF01FFCC8B1A8
:10719000012101700F4944600968C0E90218C0E983
:1071A00004769DF8040089F801009DF8000000F0C5
:1071B00047F81420FFF7E8FA2846D4E70820D2E77A
:1071C0000F46D8E704259DF8000000F039F8F3E7F2
:1071D000A0160120041501400649897839B130B163
:1071E000416921B10021017402210CF039B8082055
:1071F00070470000A016012030B5EFF3108172B681
:107200000D4A9468012324B10370002900D162B6AD
:1072100030BD93604FF0E023D3F88051074C2540F8
:107220001560C3F88041D3F8844154605A17C3F8FD
:10723000842100220270E8E7AC170120FC06FFBDA4
:107240000B498A68002A11D000280FD1EFF3108073
:1072500072B60B684FF0E022C2F800314B68C2F8FA
:10726000043100228A60002800D162B67047000015
:10727000AC17012004F01EBE2DE9FC5F04464FF060
:1072800008084FF00109694604F0BCF902004F48B4
:107290004F49A0EB01004FEAD0014FF0020000EB94
:1072A00001450AD0104607F0A1FE024628462346B3
:1072B000484907F026FABDE8FC9FDFF81CB1DBF86F
:1072C0000000FFF789FF28B107F090FE024628462C
:1072D00042A177E0FFF7F8FE484E3168FFF7F0FE75
:1072E00000F03EFA0446FFF7EFFEDFF814A1002796
:1072F000C6F8000007EB87000AEB8006B07C58B3A5
:107300000622711C0DF10100FFF7E9F818BB307C73
:107310004FF47A6101FA00F2B2F57A4F00DA401CBC
:10732000307400228140C817B260C20342EA514261
:10733000C8034FF4FA71401842F100014FF47A7219
:107340000023FFF75DF8F060A04200D8044601205A
:1073500070744FF0000900E0B8467F1C082FC9D3B5
:10736000B9F1000F1FD0B8F1080F18D208EB88014F
:107370000AEB810000990160BDF8041081809DF83E
:10738000061081710021017481604FF40031C160E9
:107390008C4200D30C4601214174817403E019A191
:1073A000284607F0A3F9601C85D022461146DBF879
:1073B0000000FFF7CDFE0028F6D007F017FE0246CA
:1073C0001AA1284607F096F975E70000DC6903006A
:1073D0008C6903007C5E0300DC4203006170705F17
:1073E00074696D65725F73746F702829207265749B
:1073F00075726E656420257300000000300C01205A
:10740000F81401204E6F20737061636520746F2043
:10741000626C61636B6C69737420616E6F74686514
:107420007220706565722049440000006170705FD1
:1074300074696D65725F7374617274282920726556
:107440007475726E6564202573000000024A002185
:107450000248FFF73FBE0000ED760200DC42030069
:107460002DE9FC410446694604F0CCF870B107F000
:10747000BDFD0246124813492346401AC0080221A6
:1074800001EB0040104907F03CF911E00F4E0024D9
:107490004FEA0D0704EB840006EB8005A87C50B191
:1074A0000622691C781CFFF71AF820B9687C10B115
:1074B0000120BDE8FC81641C082CEBD30020F8E718
:1074C000DC6903008C6903007C5E0300F814012072
:1074D0002DE9F047814605884A484FF000088AB0F8
:1074E00001784246284600F019FD99F8050040074A
:1074F00001D4002176E005F58077B8B201AB012216
:10750000072108F035FE04003F48404A4FF00101D2
:10751000A0EB02004FEAD00001EB00460AD0204663
:1075200007F064FD024630462B46394907F0E9F87A
:10753000214629E0284604F0A5F94FF6FF710446DC
:1075400088422BD18A46029804F006F90446504539
:1075500010D00146284604F075F92846FFF758FC7C
:10756000E0B928460AF062FF2846FFF751FC0028E0
:10757000BFD013E008F0C8FF0446504508D130469C
:1075800024A107F0B3F8042128460AF07DFFB0E7F4
:107590000146284604F056F94FF00108B8B22246D9
:1075A000072108F05DFE07001BD0862F1ED007F0D4
:1075B0001DFD024630462B462349009407F0A9F8EA
:1075C000394628460AF060FF0021484608F0C4FC0E
:1075D000B8F1000F02D0204604F03EF90AB0BDE831
:1075E000F0870121484608F0B7FCF7E71822174951
:1075F00003A8FEF749FFADF80E5003A803F01CF8EE
:10760000EFE70000100C0120CC6903008C69030037
:10761000205E0300436F756C64206E6F7420616C94
:107620006C6F63617465206E657720706565725F4D
:10763000696420666F7220696E636F6D696E672082
:10764000626F6E642E000000CC5E03008042030077
:1076500070B5044690B0087B0D468DF838002021A7
:1076600005A8FEF72AFF42F61920ADF81400012004
:10767000ADF81800ADF81A000EA80790617C9DF8CF
:107680002100A21D61F3041040F002008DF82100DA
:10769000A87B8DF82700687B8DF82500A08805A9B8
:1076A00001F084FE00281CD1A968E1B10FA801F007
:1076B000A7FA064614216846FEF7FFFE42F60810B8
:1076C000ADF80000E87B8DF806000FA8ADF80A6061
:1076D000ADF80E600490E08804F10E02694602F0F5
:1076E00003FA10B070BD0020E081FAE710B500F099
:1076F00037F80446FFF7E8FC0D490860601C16D017
:107700000C48224611460068FFF722FD00280ED0E3
:1077100007F06CFC024608480849BDE81040401AD2
:10772000C008022101EB004005A106F0E3BF10BD37
:10773000300C0120DC420300DC6903008C6903008B
:107740006170705F74696D65725F737461727428C3
:10775000292072657475726E6564202573000000BF
:10776000F0B5044600221C4E4FF0FF3013464FF494
:10777000A02500BF02EB820106EB81018F7C27B3BD
:107780004F7C7FB1CF68A74205D93F1BCF608742AE
:107790001BD8384619E04B740F7CD7B1A84214D3DC
:1077A000284612E00F7CA7B18F6827448F60AF4254
:1077B00006D30F7C7F1E0F748F68A7F5A0278F60FC
:1077C000C7F5A021814200D80846521C082AD1D30F
:1077D000F0BD8B74F9E70000F81401202DE9FC4797
:1077E000002517880646158090F82D001446894616
:1077F00030B13A462146484600F0BAFB051E09D191
:10780000B0784FF00C0A18B32088C846001DB84263
:1078100002D95046BDE8FC87684679DF0028F9D1D7
:107820002088032108F8001020881921401C80B20C
:10783000208008F800102088401C80B2208000EBD7
:107840000801BDF800000BF0F3FF218808442080F8
:10785000F0780222C8B1218896F9033001F1030CB7
:107860004846BC45D5D8425421884FF0010C491CEC
:1078700089B2218000F801C02188491C89B2218089
:1078800009F801302088401C20807068B8B1218838
:1078900090F9003001F1030C4846BC45B9D8425478
:1078A00021880A22491C89B2218042542188491C1E
:1078B00089B2218009F801302088401C208030895D
:1078C00050B1CDE900474B460622022106F10800DF
:1078D0000CF094F8051E9DD1308A50B1CDE90047D7
:1078E0004B460722032106F110000CF087F8051E15
:1078F00090D1308B50B1CDE900474B461522142171
:1079000006F118000CF07AF8051E83D1306A30B108
:107910003B462246494601F008FF051EDBD1706A4E
:1079200030B13B462246494604F0F2FC051ED2D156
:1079300096F82C0038B13B462246494630460AF0BC
:1079400083FE051EC7D1307838B13B4622464946F2
:10795000304605F009FE051EBDD128465AE718B588
:1079600004460020ADF8000013466A46204600F0A9
:1079700006F8002802D0BDF80000204418BD70B5FC
:1079800088B182B10024158803E0065D641C34448C
:10799000A4B2A54203D8061976789E4201D08C4243
:1079A000F3D38C4201D3002070BDA11C1180005D77
:1079B000401E80B270BD80F8301070472DE9F0474E
:1079C0000E00044606D02CB196F87A000025012856
:1079D00003D006E00E20BDE8F08796F89800012855
:1079E00021D04FF00109A5702C2206F17801201D4D
:1079F000FEF74AFD84F83050D6F8A4006063D6F84C
:107A0000A800A0634FF6FF70A4F8480204F50D70BB
:107A1000C4F84402C4F84A52A4F84E5284F85052B2
:107A2000207810B104E00720D5E7FF2084F8540047
:107A300004F15501C4F8341294F82400EE274FF0F5
:107A40001F0801281FD0A4F8388200BF04F50E7269
:107A50003046FFF7C3FE0028BDD116F13C0F18D009
:107A600004F24311C4F83C1294F8240001280DD00C
:107A7000A4F8408204F5107206F13C00FFF7AEFE58
:107A80000028A8D109E0A4F83872DFE7A4F8407212
:107A9000F0E7C4F83C52A4F8405284F85190208B8F
:107AA000A4F8480084F83C90256484F8505060693C
:107AB00060644E4604F13C02002104F1540072DF80
:107AC000002888D1267086E710B50288102A1BD0BE
:107AD000112A20D0262A1DD1007A0C46012801D077
:107AE000022817D1A0780521401CB0FBF1F201FB60
:107AF0001201204600F01EF800280BD0A16B0029CF
:107B000008D0BDE810400847C27B012A02D1808816
:107B1000A1F8480210BD0C46002184F8521280885A
:107B2000B4F848128842F5D120790028F2D1012119
:107B3000DFE770472DE9F05F044600780F4698B103
:107B4000A7700025C4F84A52A4F84E5284F8505247
:107B5000A079012608B1012F09D0E07980B1012F69
:107B600005D0022F03D00BE00820BDE8F09F616B29
:107B700021B184F851620820884701E084F851520D
:107B800004F24B2100200A5C0AB1304603E0401C9D
:107B90000628F8D300204FF002084FF0030B012F06
:107BA00006D0022F0CD0032F0FD0042F15D110E0D8
:107BB000A17929B194F8241011B908B130460DE02B
:107BC000E17911B108B1404608E0207A08B1584681
:107BD00004E0607A08B1042000E02846A070616BE0
:107BE00041B1032801D0042804D1607910B194F880
:107BF0005202A0B184F8535204F13C001821074608
:107C0000FEF75BFC04F12C0084F83C60814608F030
:107C1000B3FD58B194F82C0084F8510008E084F8C2
:107C2000545284F8536207208847E5E784F851608E
:107C300094F8240050B1484608F09EFD20B194F815
:107C4000280084F8520001E084F8526084F8505013
:107C5000A27804F24A2104F50D794FF0060A052AAC
:107C600062D2DFE802F07A030F22410084F831602B
:107C7000C4F84452C4E9101584F83C808020A4F86C
:107C8000480053E084F8318094F82420384612B13B
:107C90000722027001E080F800B0228A8281C4F8D5
:107CA00044524160E168B96040E06069B860208B8F
:107CB000B88194F824003D4610B184F83CA001E05E
:107CC00084F83C6020460BF06FFE50B185F81480BC
:107CD0000421204602F084FE30BB052184F83110D7
:107CE00020E084F831B01DE0E069B860208CB881F4
:107CF00094F824003D4610B184F83CA001E084F8DB
:107D00003C6020460BF050FE48B185F814800421F9
:107D1000204602F065FE38B984F831A002E0042064
:107D200084F83100C4F84492A07878B13A4604F15E
:107D30005400D4F8441272DF00287FF416AF94F890
:107D4000301094F8540073DF0028F6D1616B11B144
:107D500094F831008847002007E784F83150F5E7B0
:107D600038B50D46040018D0BDB1286820602879C8
:107D70006074FF20207401208DF8020041F60F008E
:107D8000ADF80000221D69460120A8DF002803D1BC
:107D900029462046FFF75CFC38BD0E2038BD38B5BB
:107DA000002924D0002822D00288502A1FD105465D
:107DB000487C0C4600281AD0E9886289A81D9142A7
:107DC00015D14189022912D1216800290FD00C3028
:107DD00000F012FF08B1002000E001208DF8000043
:107DE000A888ADF80200226869462046904738BD51
:107DF00070B5040012D001461C221448FEF744FB63
:107E00001248134D0560206850B17ADF002806D172
:107E10002068016829604068686005E00E2070BD38
:107E20000B487BDF0028FAD108484FF6FF71143861
:107E3000084A20F8041B0549343901600021FFF786
:107E400049F90028EBD0032070BD0000601101202B
:107E5000CC0B0120413903000149496801F046BCBF
:107E60007C11012010B5044600F078F8002805D0F8
:107E70002146BDE81040024805F073BC10BD00006B
:107E80008C11012070B515460E4604460BF098FD86
:107E9000002809D0054800EB840080692A46314655
:107EA000BDE8704002F0C8BD70BD00007C1101202B
:107EB00070B50546002400F051F838B12946044851
:107EC00005F04FFC08B1022400E00124204670BDFB
:107ED0008811012010B51821034805F01DFC182851
:107EE00000D0C0B210BD00007C11012070B5054665
:107EF0000C4608460BF064FD60B1284600F02EF8F1
:107F000040B10548294600EB8400BDE870401830B8
:107F100005F027BC002070BD7C11012070B505461E
:107F200014460E4608460BF04BFD002812D028469A
:107F300000F014F800280DD00748294600EB860011
:107F400018301CB1BDE8704005F016BCBDE87040AB
:107F500005F0C7BB70BD00007C110120142801D3BF
:107F6000002070470146014805F0FBBB801101204D
:107F70007CB5054608880C460930904201D90C2092
:107F80007CBD68466DDF0028FAD12188082068543E
:107F900020881B21401C80B2208029542088401C4E
:107FA00080B220802844DDF801100160BDF8051082
:107FB00081802088801D80B220809DF800104908B3
:107FC00000D0012129542088401C208000207CBD45
:107FD0001FB5044601208DF8060041F60A00ADF8F1
:107FE0000400494A01A90120A8DF00287DD1228888
:107FF0005AB14548801C009094F83C3042F6292044
:10800000616801F07FF900287BD122895AB13E488E
:108010000A30009094F83C3042F62420E16801F0E8
:1080200071F900286DD1228A5AB137481230009078
:1080300094F83C3042F62520616901F063F900288C
:108040005FD1228B5AB130481A30009094F83C30FE
:1080500042F62720E16901F055F9002851D1228C20
:108060005AB129482230009094F83C3042F626203C
:10807000616A01F047F9002843D1228D5AB12248A4
:108080002A30009094F83C3042F62820E16A01F052
:1080900039F9002835D1216B79B102A80BF00CF821
:1080A000194808223230009094F83C3002A942F678
:1080B000232001F027F9002823D1606B60B1124919
:1080C0003A3100910279016894F83C3042F62A2056
:1080D00001F018F9002814D1A16B89B102A808F0A9
:1080E000F1FE09484230009000E00AE094F83C308C
:1080F000072202A942F6502001F004F9002800D11D
:10810000002004B010BD0000340C0120FEB5044670
:1081100001883948394A374E801AC00803220025A1
:10812000B71D02EB0040192954D00ADCA1F110015F
:1081300009291BD2DFE801F00D1B1A1A1A1A1A4678
:10814000480021291CD03B2926D056292DD057295B
:108150000CD1072000F0A4FE20B129A24FF41B711E
:10816000FEF7BCF8A088B08001207870FEBD227AAE
:1081700027A106F0BFFA4FF6FF70B0807D70FEBDFC
:108180000095A08869468FDF0028F8D01CA240F235
:108190008321FEF7A3F8FEBDA088132176DF002817
:1081A000F9D017A240F28B2107E0A088132176DFD7
:1081B0000028F0D012A240F2932103B0BDE8F040B5
:1081C000FEF78CB819A100E020A103B0BDE8F04093
:1081D00006F08CBAA37A617B227BC3F3C0030093C1
:1081E000CDE90121617A227AC1F380031F4906F0AB
:1081F00099FAFEBDA00B01208C6903008C69030075
:108200002E2E5C2E2E5C2E2E5C6D61696E2E630010
:10821000446973636F6E6E65637465642C20726568
:1082200061736F6E2025642E00000000424C455F94
:108230004741505F4556545F415554485F4B45593F
:108240005F5245515545535400000000424C455F74
:108250004741505F4556545F4C4553435F44484B3C
:1082600045595F524551554553540000CC550300C4
:1082700010B51A4C0188606810290ED011292BD135
:10828000401E606028D1FEF710FD002824D0216830
:10829000002921D0BDE810400847D0B900210122B3
:1082A000084600F0DBFD08B107280FD107220221A4
:1082B000012000F0D3FD08B1072807D104220221D4
:1082C000002000F0CBFD20B1072802D0216801B1C9
:1082D00088476068401C606010BD0000C40B01202E
:1082E0002DE9F04701883B4E40F2F3194FF6FF7538
:1082F00010291BD011293ED0122954D0502946D123
:10830000C188F289841D914241D1618902293ED1FF
:108310008688304603F0D6FB050038D004F10C0007
:1083200000F06AFCA8B3294630464EE0C17B87883E
:10833000044601292BD1A846284603F0C3FB0500BB
:1083400017D02F8000202872234843464A460168F0
:10835000C5F80A104068C5F80E0004F1100105F1D7
:108360000A0003F02FFC6872F08900280FD129461B
:108370002AE0042013E0808803F0A4FB040006D068
:108380006068FEF729FF08B10AF062F82580BDE8B1
:10839000F087FFE76868FEF71FFF0028F7D0BDE809
:1083A000F0470AF055B887880646384603F08AFB3E
:1083B0000400ECD02B464A4606F1080104F10A00FD
:1083C00003F000FC607221463846BDE8F04701F03A
:1083D000FFB9000060110120CC0B01202DE9F04F06
:1083E0000746858802883E48012197B08346102AB7
:1083F00009D0112A4BD01A2A6ED1387AB1EB101F4E
:1084000047D2012246E0364C083CA068C0430B909E
:1084100061680BA805F0C9F90B990CA801F066F981
:108420002C220CA96846FEF72FF80026E946A04644
:1084300010E000BF09EB46005FF00004B0F804A0B4
:1084400008EB84005146001D05F04BF9641C1D2CFF
:10845000F6D3761C0098B042ECD8142D07D317B091
:10846000E321BDE8F04F1FA20420FDF737BF2946E6
:10847000584605F081F9294608F1040005F07CF919
:10848000F87B012828D016482946001D15E029460A
:108490001AE000220221B1EB101F01D2012600E0F8
:1084A00000260F49083901F11000041D294682B148
:1084B00005F062F936B12946204617B0BDE8F04F05
:1084C00005F05AB92946204617B0BDE8F04F05F02F
:1084D00008B905F006F9F5E717B0BDE8F08F000020
:1084E000841101202E2E5C2E2E5C2E2E5C2E2E5CF6
:1084F0002E2E5C2E2E5C636F6D706F6E656E7473C6
:108500005C626C655C636F6D6D6F6E5C626C655F09
:10851000636F6E6E5F73746174652E63000000009C
:1085200010B504460748007800280AD0204603F01A
:1085300085F820460AF07EFA2046BDE8104002F099
:1085400029BC10BD000C012030B587B0054600895C
:10855000ADF8080001208DF80A00CC2300208DF82A
:1085600000308DF80110ADF80C008DF8030001907B
:10857000104811498DF80220401AC108022000EB72
:1085800001440EA1204606F0B1F89DF801202046D6
:1085900010A106F0AFF89DF80220204611A106F0C8
:1085A000A9F802A9684601F0D7FE288D02A9AEDF1E
:1085B00007B030BD746A03008C690300436F6D6DB2
:1085C000616E64204572726F7220526573706F6EB7
:1085D00073653A0009436F6D6D616E643A203078BF
:1085E000257800000945727220436F64653A203097
:1085F00078257800F8B50446427860486049401A0A
:10860000C608032000EB06405EA106F073F8607810
:10861000654F0146BD1F20380B287CD2DFE800F0F3
:1086200006101E2BA5A5345E6B879400A07818B1A8
:1086300003225E48FFF788FF002361781A4645E071
:10864000A07818B103225948FFF77EFF09F0B8F966
:10865000554B28709B1F6178012237E0A0780128D4
:1086600003D003225148FFF76FFF6068007828703D
:1086700009F0D4FAE0E7A07818B103224B48FFF7DD
:1086800063FF09F0DFF9D7E7A078012803D00322C0
:108690004648FFF759FF606800786870684602F046
:1086A00011FE6878032805D9617802223F48FFF758
:1086B0004BFF00E03870687802280BD0032809D0FF
:1086C000012009F0E7FA61786B460422374800F090
:1086D0007DF8F8BD684609F0E3F8F4E7A07818B132
:1086E00003223248FFF730FF0020387009F0D2FA39
:1086F00009F04AF9A0E7A07818B103222B48FFF748
:1087000023FF2B4800224FF4A4710068FEF720FDE0
:1087100030B1284A00E028E040F2A731FDF7DEFD45
:10872000684609F0DBF80200CDD0617819E0A07846
:10873000012803D003221D48FFF706FF6068007878
:10874000A87009F0A5FC09E0A07818B10322174829
:10875000FFF7FAFE0AF09CFC09F026F90200E4D1CA
:108760006AE71248FFF7F0FEF8BD022000EB064072
:1087700011A105F0BBFF61780A22F2E78C690300C2
:108780008C6903004D6F74696F6E20436F6D6D616E
:108790006E64204576656E742E204F70636F64653D
:1087A0003A20307825780000A60B0120100E012019
:1087B00004410300A46D0200556E68616E646C652F
:1087C0006420436F6D6D616E6400000030B587B04A
:1087D00005460089ADF80800CC2401208DF8004042
:1087E0008DF80A008DF8011000208DF80320ADF8F7
:1087F0000C008DF80200134813490193401AC10878
:10880000032000EB014411A1204605F06FFF9DF805
:108810000120204610A105F06DFF9DF802202046A2
:1088200011A105F067FF9DF80320204612A105F075
:1088300061FF02A9684601F08FFD288D02A9AEDF15
:1088400007B030BD746A03008C6903005265737011
:108850006F6E73653A00000009436F6D6D616E6461
:108860003A203078257800000945727220436F6401
:10887000653A203078257800094C656E6774683A4F
:10888000202564002DE9F0470C460746018D6E480F
:108890006E4B0025C01A0126C008A1F57F428AB0A0
:1088A000FF3A7DD0A846CDF81480CDF81880CDF8D9
:1088B0001C8014216846CDF82080FDF7FEFD388924
:1088C000ADF814008DF81660604B5F4EADF818805F
:1088D00094F83000A6EB0303DFF874814FF0040135
:1088E0004FEAD3030207E9464FF0AA0A01EB034619
:1088F00020D581061ED58DF800A000F028008DF847
:10890000010098F800008DF80200401C88F8000073
:108910006068CDF803000720ADF8240009A8CDE970
:108920000709388D05A9AEDF05007DD1304649A184
:1089300005F0DCFE94F83000810728D58DF800A002
:1089400000F022008DF8010098F800008DF8020078
:10895000401C88F80000D4F81200CDF80300E08A2B
:10896000ADF80700E068CDF80900208AADF80D00E9
:108970000F20ADF8240009A8CDE90709388D05A915
:10898000AEDF05005CD1304639A105F0AFFE94F8AA
:108990003000410723D58DF800A000F0240000E04E
:1089A00047E08DF8010098F800008DF80200401CA7
:1089B00088F80000A069CDF80300A08BADF807008F
:1089C0000920ADF8240009A8CDE90709388D05A9CB
:1089D000AEDF050034D130462BA105F087FE94F8B8
:1089E0003000C1072BD08DF800A000F021008DF8D9
:1089F000010098F800008DF80200401C88F8000083
:108A000004F1200110220DF10300FDF73DFD1320BC
:108A1000ADF8240009A8CDE90709388D05A9AEDF16
:108A200005000DD1304600E00AE01EA105F05EFE13
:108A300005E006EB004023A105F058FE0825284676
:108A40000AB0BDE8F0870000746A03008C69030077
:108A5000BC0D012054696D657374616D70206E6F7B
:108A600074696669636174696F6E2053656E640032
:108A7000494D55206E6F74696669636174696F6EE4
:108A80002053656E64000000436F6D706173732046
:108A90006E6F74696669636174696F6E2053656E89
:108AA000640000005175617465726E696F6E206EAE
:108AB0006F74696669636174696F6E2053656E6473
:108AC000000000004E52465F4552524F525F494EE1
:108AD00056414C49445F53544154450030B585B02C
:108AE0000D46040037D0ADB34FF6FF7020852868DF
:108AF000206028796071002084F82A00174B142028
:108B000084F82B000FCB8DE80F0004F12C01684690
:108B100062DF00281CD194F82C008DF8120041F679
:108B2000FF00ADF81000A21D04A90120A8DF20B1AC
:108B30000B4A40F24511FDF7D1FB2946204600F0D3
:108B40008DFE20B1064A40F24911FDF7C7FB002017
:108B500005B030BDFFE70E20FAE70000DC5403004B
:108B60007867030070B50288102A1CD0112A1CD027
:108B7000502A1DD10D46841D0E480F49401AC008C9
:108B8000042101EB00400DA105F0B0FD2088A9896A
:108B900088420DD0298988420AD121462846BDE85D
:108BA000704007F051B8808801E04FF6FF700885EB
:108BB00070BD0000746A03008C6903005772697409
:108BC00065204576656E742E00000000028D4B888E
:108BD0009A4207D10988A1F52062773A02D114217F
:108BE00080F82B10704770B504460D460846FDF717
:108BF0006FFC2080656070BD007800F00100704758
:108C00000A780270497841700220704708B506F072
:108C100009F920B10D4A4FF42F71FDF75FFB0020D9
:108C200000906946012005F04BFF20B1074A4FF440
:108C30003171FDF753FB684605F0DEFF002804D0D4
:108C4000024A4FF43271FDF749FB08BDA46D0200E2
:108C5000084908B5085C0090684605F0EBFAD0F8C2
:108C600010050099C84010F0010000D0012080F0EC
:108C7000010008BD184103002DE9FC410646C0076C
:108C80004FF000050ED0104F00240122385D0095F2
:108C900000231146019505F05FFA641C042CF4D3FF
:108CA00000F04CF8B0070DD5074E0024361D002209
:108CB000305D032300951146019505F04DFA641CC3
:108CC000042CF4D3BDE8FC8114410300094908B524
:108CD000085C0090684605F0ADFAD0F80425009BCA
:108CE0000121994021EA0203C0F808351140C0F87B
:108CF0000C1508BD144103000249085C002105F071
:108D0000D8BA0000144103000249085C012105F0B3
:108D1000D0BA000014410300074908B5085C009070
:108D2000684605F087FAD0F804050099C84010F0AD
:108D3000010000D0012008BD1441030010B500243B
:108D40002046FFF7D9FF641C042CF9D310BD10B5E1
:108D500000242046FFF7D8FF641C042CF9D310BD73
:108D600010B50246064B4FF0FF3000215C5C944288
:108D700001D1084610BD491C0429F7D310BD0000DD
:108D80001841030070B50C4E0C004FF00005306028
:108D90000BD0012000F05AF808B1022004E00020B6
:108DA00000F054F800B10B202070706810B9FDF786
:108DB0007CFF0546284670BDC40B01202DE9F04715
:108DC0000D468146FFF7CCFF0446042836D2DFF873
:108DD00074801B481C4EA8F10C0725B3012D0ED042
:108DE000022D2BD104EB440030444578002D25D0D2
:108DF000B968002922D02846BDE8F047084704EBAF
:108E00004401755C0E44717849B10E4A4FF400413B
:108E1000093A8068FEF79CF908B987F80390B178A1
:108E200008F80410E2E78068FEF7D6F904EB440185
:108E3000314418F804008D78A842D7D0BDE8F087F7
:108E40001C410300C00B012000110120042801D2A5
:108E5000FFF7FEBE002070477047000070B500238A
:108E6000042810D20D4D00EB4004012A02D1012943
:108E70000CD00022094E00EB4000304461B10129C2
:108E800006D0022906D00723184670BD0E30C2B2A4
:108E90002A55F9E74270F7E78270F5E700110120E3
:108EA000044A014600201279D20702D0084600F099
:108EB0004DB87047B40B012070B506461E4800241B
:108EC000C0E90161B00720D50025012211462846DE
:108ED000FFF7C4FF6D1C0446042D02D2002CF4D011
:108EE00013E094B940F2666204211448FDF7A8FF2C
:108EF00004000AD1FDF792FF040006D10F48104A82
:108F00000021001FFEF7E6F80446F00712D001200A
:108F1000FFF7B2FE74B909480A4A00210C38FEF77F
:108F2000D9F8040006D10548074A01210838FEF7A0
:108F3000D1F80446204670BDB40B0120284103003F
:108F4000D991020059BC02000B6E02002DE9F05FBE
:108F50006E4C054600266078B34618B184F801B01F
:108F600002F062FE6A4F4FF47A694FF4C87A4FF00C
:108F70000108182D69D2DFE805F00C1313384754A7
:108F8000696E727B727BC58484848484B3B6B9BCF9
:108F9000C5C502F049FE3868FEF71EF906465CE0DA
:108FA0000020FFF7B9FE00284FF0000008D0FFF7BF
:108FB000A3FE022D02D14FF4E16008E0484606E02E
:108FC000FFF7A2FE022D01D1C82000E05046410C5F
:108FD000C0034FF4FA72801841F10001257052006D
:108FE0000023FDF70DFA01462AE00020FFF794FE6A
:108FF00000284FF0000004D0FFF77EFE4FF44870C9
:10900000E5E7FFF781FEDFE70020FFF785FE002898
:109010004FF0000002D0FFF76FFECFE7FFF774FEBE
:10902000D4E70020FFF778FE00284FF0000002D0C0
:10903000FFF762FE01E0FFF767FE257041F69A1127
:1090400000223868FEF784F8064646E00020FFF765
:109050003DFE257008E0002051E025703DE084F8D9
:1090600001800120FFF732FE002240F6CD41E8E703
:1090700084F801800120FFF729FE00224FF480418F
:10908000DFE77868FEF7A8F80646D5F1110000D0B2
:109090002EB10220FFF730FE84F802B01DE0012857
:1090A00016D980B2C8214843C117C90341EA5041CB
:1090B000C0034FF4FA72801841F1000152000023FE
:1090C000FDF79EF9014600227868FEF741F8064652
:1090D0000220FFF719FE84F802803046BDE8F09FB9
:1090E00002F0A2FDB9E702F09FFDB4E702F09CFD9B
:1090F00004E002F099FD0020FFF706FE0120FFF7D3
:1091000003FEAAE7FFF723FEA7E70000B40B012048
:109110001C4103002DE9F8430546861C00208DF80C
:10912000000090460F464FF001096846FEF764F8CC
:109130001B4C20683860D4E90001401AA16804F291
:109140001C47081A0EE00121384604F028FB02F003
:1091500093FF0146384604F022FBD4E90001401A8F
:10916000A168081A401C8642EDD8B8F1000F03D060
:10917000052065F3891002E0062065F39F50A26880
:109180002168114004EB8101C860206830442060F0
:109190009DF80000FEF754F84846BDE8F88300004B
:1091A000FC1A012030B482680468531C8360A15407
:1091B000D0E901128A4202D330BC04F092BC30BC28
:1091C00070470000034803C8814201D10120704765
:1091D00000207047FC1A012000780221FFF7EEBD45
:1091E00070B5164D044634211448FDF766F913484E
:1091F00008F07CFDB5F91220A1681144A160B5F911
:109200001420E1681144E160B5F916202169114488
:109210002161B5F90C20616911446161B5F90E2035
:10922000A1691144A161B5F91020E1691144E1611E
:109230006168491C61600028D5D170BD4C220120B5
:109240001CB5044602F01EFB00236A46092107F004
:10925000D1F8052805D10348012241792046FEF7BF
:109260005DFE1CBDD40B01201CB50021009142F60F
:10927000A621ADF8001001218DF80210034901AAC2
:10928000096801916946A0DF1CBD00004841030048
:1092900005494FF0FF32082841F8202002D3084446
:1092A00080F8582070470000AC150120F0B54FF051
:1092B000FF3512B10023082601E008230C260C4CD0
:1092C00005E000BF54F823707F1C04D05B1CB34240
:1092D000F8D32846F0BD26185DB286F8305044F821
:1092E0002310002AF5D1E11881F85800F1E70000B9
:1092F000AC1501200249084490F930007047000085
:10930000AC1501202DE9F04188B01E46DDF838800B
:1093100014460D00074604D113A284210020FCF757
:10932000DDFF24B910A285210020FCF7D7FF202102
:109330006846FDF7C2F89DF80D00ADF8044040F016
:1093400002008DF80D001848ADF80070ADF8064029
:1093500002958DF8116042466946008800F026F8B3
:1093600008B0BDE8F08100002E2E5C2E2E5C2E2E63
:109370005C2E2E5C2E2E5C2E2E5C636F6D706F6EDD
:10938000656E74735C626C655C626C655F7365725C
:1093900076696365735C626C655F6469735C626C5B
:1093A000655F6469732E6300340C01202DE9F0437E
:1093B0008146887891B090460C4600B901208DF81E
:1093C0003E002088ADF83C0000250095607C694691
:1093D00009F03AFA6E46A07C711C09F035FAE07B80
:1093E00000289DF8020002D040F0080001E020F0C3
:1093F00008008DF80200217C11B140F0100001E05E
:1094000020F010008DF80200217B11B140F0010026
:1094100001E020F001008DF80200217D09B1022158
:1094200000E0012161F342008DF802001C2102A836
:10943000FDF743F8607BC10601D4800617D50E9571
:109440000EAFE07C791C09F0FFF99DF83800079712
:1094500020F00F00401C20F0F00010308DF8380094
:109460009DF83A0020F00600801C8DF83A00607BE1
:109470008DF80800A07B8DF80900142109A8FDF7DC
:109480001CF80FA8CDE90906A088ADF83000A06847
:1094900020B1E088ADF82C00A0680D90A06998B3C9
:1094A00001950088ADF81000A06901AD01A94088C0
:1094B000ADF81200A069406806950390A069007B92
:1094C00009F0C2F9A069691C407B09F0BDF9A069E7
:1094D000807A00289DF8060002D040F0080001E0E4
:1094E00020F008008DF80600A169C97A11B140F09A
:1094F000100001E020F010008DF80600A169097A43
:1095000019B140F0010002E00DE020F001008DF8FB
:109510000600A169897B09B1022100E0012161F304
:1095200042008DF80600E06900B10590434609AAA3
:1095300002A94846AADF11B0BDE8F08370B5044621
:109540004FF6FF750A462846AC4209D14FF48074A5
:109550002146104604F0E0F880B2A0420BD070BD66
:10956000FF2CFCD82146104604F0C6F890F0010FFD
:1095700001D0204670BD284670BD000070B5084C73
:10958000050009D010342168002907D00868206040
:10959000496828468847F6E70834F4E770BD0000BC
:1095A00098150120054A012120B1012805D19170AB
:1095B000FFF7E4BF51700020FAE7704798150120CB
:1095C0002DE9F05F26484168F1B3DFF898B00E68E6
:1095D0008146DBF8004087688078E11B21F07F45F9
:1095E000ED1CB0B9DFF880804FF48030C8F8440338
:1095F000C8F804031120FDF7B1F81120FDF7B9F800
:109600004FF0010AC8F800A02F2005F04BFD89F8A3
:1096100002A0B54200D23546124BE8193C3320F087
:109620007F401860DBF800105A46091B21F07F418B
:10963000001B20F07F40C91C81420FD910681860C0
:109640002F2005F02FFD00E004E0BDE8F05F1120C1
:10965000FDF79AB8BDE8F05F07F0C0BFBDE8F09F26
:10966000D00C0120041501400010014001490120E7
:1096700008727047802201200EB51A4940208DF8EB
:109680000800D1E90201CDE9000100221146684637
:1096900005F038FE20B1144A4FF4C871FCF71EFEE5
:1096A00099208DF8000000221146684605F02AFE38
:1096B00020B10D4A40F29511FCF710FE01208DF803
:1096C000000002208DF80100002202A9684605F082
:1096D00019FE002804D0044A40F29B11FCF7FEFD5D
:1096E0000EBD0000205503005419030073B58CB063
:1096F0000646002000900D9880B100246D4621465A
:109700000DA804F02EF830B1009805EB40008480DD
:109710000098401C0090641C142CF0D32C22694645
:109720003046FCF7B1FE0EB070BD2DE9F041178850
:109730000646B81D14460D46984202D90C20BDE8D5
:10974000F0813188072206290AD34FF4486C4FF67E
:10975000FF73614501D9994202D17088062801D270
:109760001046ECE7604501D99842F9D1994203D0FF
:10977000984201D08142F3D80520E8552088122173
:10978000401C80B2208029542088401C80B2208058
:10979000411930880AF04CF82188084480B22080B2
:1097A000411970880AF044F821880844208000207C
:1097B000C5E7000002A24FF4CE71FCF78FBD000098
:1097C0002E2E5C2E2E5C2E2E5C6D61696E2E63003B
:1097D00038B54A7A0F4B62B100220A7259690029E2
:1097E00006D001228DF80020ADF8020068468847B7
:1097F00038BD0A7A62B19B684C6802461946204619
:10980000FDF7A6FC0028F3D0BDE8384008F020BEE4
:109810005B68F1E760110120F0B587B016460F468E
:1098200004461D4618220B496846FCF72DFE0A48DF
:109830008DF80870ADF80240ADF80A608DF80C5054
:10984000017800222046FEF769FB684600F0F4FE2E
:1098500007B0F0BD98420300100C012070B598B01D
:109860000024054607949DF81C000E4620F00F00CA
:10987000401C20F0F00010308DF81C00087B8DF8A3
:109880001D009DF81E001C2120F00600801C8DF894
:109890001E006846FCF711FE9DF80000254B20F0E5
:1098A000020040F018008DF8000007A8CDE9044040
:1098B0000194039406940FCB0DF1340C8CE80F0047
:1098C00005F12C010DA862DF002830D195F82C009D
:1098D0008DF84A0042F6FF20ADF848001194707BE5
:1098E0008DF84400B07B8DF845009DF846001421AA
:1098F00020F00600801C20F0080040F011008DF8D8
:10990000460008A8FCF7D9FD12A8089011A80990F4
:109910001420ADF82800ADF82C0013A8ADF82A40AB
:109920000C90E88805F1080308AA6946AADF18B078
:1099300070BD0000CC540300F0B50C4606461E482E
:109940001E4987B0401AC708042000EB0740334681
:1099500022461BA104F0D5FE002004900590ADF82E
:10996000104001900290ADF8124001AA04A93046BF
:1099700090DF05001DD005F039FB0346012000EB08
:109980000740044632461A4904F0BBFEBDF80420E5
:1099900012B9BDF8060028B1BDF80630204615A161
:1099A00004F0AFFEBDF808201AB12046214904F0AA
:1099B000A1FE07B02846F0BDAC6903008C69030026
:1099C0005570646174696E672064617461206C65B0
:1099D0006E67746820746F202575206F6E20636F2A
:1099E0006E6E656374696F6E20307825782E000086
:1099F0005459030054686520726571756573746508
:109A0000642054582F5258207061636B6574206C29
:109A1000656E67746820697320746F6F206C6F6E59
:109A2000672062792025752F2575206F6374657412
:109A3000732E0000A059030070B5044609480121A7
:109A400003F0C8FEBFF35F8F0025002808D1204631
:109A500002F08CFA002803D1BFF35F8F0148056044
:109A600070BD0000E00B01207FB50C4610B1012055
:109A700004B070BD2079002638B141F61D5501288B
:109A80001BD0022826D00F20F2E702202071029678
:109A90000396E0680190694601A807F0F3FC50B115
:109AA00002988188E18000882081BDF8001002982A
:109AB00007F066FDDCE70A20DAE70A4B6A46002178
:109AC000A01D07F09BFC38B1064918398E61CE61A4
:109AD0000A28CDD12846CBE702488188019807F0B3
:109AE0004FFDF5E7FC0C0120F0B587B00C460746AA
:109AF0001646142101A8FCF7E0FCA07800B901206B
:109B00008DF81A002088ADF8180006A80190A079F9
:109B1000694608F099FE6D46E079691C08F094FEEC
:109B2000E07800289DF8020002D040F0080001E033
:109B300020F008008DF80200217911B140F01000EA
:109B400001E020F010008DF80200617911B140F0C1
:109B5000010001E020F001008DF80200217A09B136
:109B6000022100E0012161F342008DF8020002951C
:109B70006089ADF80C00A089ADF80E00E089ADF861
:109B8000100020690590324601A93846ABDF07B0C6
:109B9000F0BD00002DE9F0470025DFF88C803CE0A7
:109BA0006068002100EBC506012032789146FCF781
:109BB00058FCD4E9062300EA020701EA030C57EA3D
:109BC0000C0728D082438B434846C4E9062305F09E
:109BD00027FB32788246914601200021FCF741FCA8
:109BE000D4E9042300EA020401EA03074A46504686
:109BF0000021FCF736FC44404F403C430BD17078C9
:109C0000012801D0012100E00021726881EA0A01E7
:109C10000AB1484690476D1CEDB298F800004446E2
:109C20008542BDD3BDE8F087A00C012008B560B126
:109C300020208DF8000028208DF8010030208DF8BC
:109C4000020038208DF8030004E0A32204216846B6
:109C5000FCF72CFC6A46042140F69E2003F056FCDB
:109C600003F078F808BD00003EB5044602208DF8E8
:109C70000000CA208DF80100E3208DF802000920C1
:109C80008DF803006A460421682003F03FFCA320FE
:109C90008DF80000610609D5C0218DF80110C8219A
:109CA0008DF80210C2218DF8031005E08DF8010037
:109CB0008DF802008DF8030014F4C07F09D0C42190
:109CC0008DF80410CC218DF80510C6218DF80610F2
:109CD00005E08DF804008DF805008DF806008DF87C
:109CE00008008DF807008DF809006A460A2140F641
:109CF000A72003F00BFCA0074FF0D80503D02020CD
:109D00008DF8000001E08DF800506A46012140F610
:109D1000B62003F0FBFBA00601D5012000E00020E7
:109D200000F08EF814F4C07F1ED0E0050AD5B220F2
:109D30008DF800008B208DF80100B6208DF8020010
:109D40009B2009E0B0208DF8000080208DF80100F4
:109D5000B4208DF8020090208DF803006A4604219B
:109D600040F6A22003F0D2FBE1074FF40B6022D0B3
:109D7000F8218DF800106A46012103F0C7FBFA2193
:109D8000072000F0EFF9072000F0BAF9012000F0F9
:109D9000D7F9642000F096FA4FF4FA7000F0A2FAB6
:109DA000C821254800F074F9282000F089F90A201C
:109DB00000F096F905E08DF800506A46012103F0A5
:109DC000A5FBA00703D5D9208DF8000001E08DF890
:109DD00000506A46012140F23D7003F097FB600796
:109DE00001D5012000E0002000F048F8E00601D590
:109DF000012000E00020FFF719FF104D44F008009B
:109E0000688102F0A7FF0020A873600601D5062034
:109E1000A87314F4C07F02D0A87B801DA87314F02F
:109E2000140F02D0A87B1030A873A00702D0A87B23
:109E3000001DA87300203EBD09E3CA02A82101202D
:109E40000EB54FF4976310B106A107C901E008A24F
:109E500007CA8DE807006A460921184603F056FB39
:109E60000EBD0000B8AAB38DB4980D355D0000009A
:109E7000B8AAAAAAB088C3C5C700000008B560B1D7
:109E8000C0208DF80000C2208DF80100C4208DF89C
:109E90000200C6208DF8030004E08B2204216846EE
:109EA000FCF704FB6A46042140F6982003F02EFBE1
:109EB00002F050FF08BD0000C8234FF48062024941
:109EC00040F6F63002F0D2BD864803002DE9FF4F80
:109ED00089B01746DDE9165200244D4E884681466A
:109EE0002C80A246B07B694602F0C2FE4FF0FF3BD9
:109EF00018B158460DB0BDE8F08F708910F0140FFE
:109F00003ED0009909BA21F0FF029DF803100A43E0
:109F10003A6001999DF8073009BA21F0FF01194311
:109F20007960029B9DF80B401BBA23F0FF0323438B
:109F3000BB60039C121424BA24F0FF0C9DF80F4060
:109F400009144CEA040C1024C7F80CC01B144FEA87
:109F50002C4712FB02F211FB012113FB03F217FB4A
:109F600007221144A1F17061B1F1007F04D902F020
:109F7000F1FEA5F800A0BCE7298841F48071298092
:109F80004206694611D50A19A41D13885BBAA8F8C0
:109F9000003053885BBAA8F80230928852BAA8F809
:109FA00004202A8842F008022A8010F4C07F11D0D1
:109FB0000A19A41D13885BBAA9F8003053885BBA4C
:109FC000A9F80230928852BAA9F804202A8842F0EF
:109FD00070022A80800716D00C44E07800F0C0059B
:109FE00000F03F016078C00706D0C80801F0070103
:109FF0003268491C02B190476078000703D5716848
:10A0000009B1A80988470C9807F06EFB002071E79A
:10A01000A82101200149486000207047A8210120A3
:10A020000149086000207047A821012030B504468E
:10A0300013A285B007CA8DE807004FF0FF35C82C82
:10A0400016D8C820B0FBF4F1491E080A8DF80C00A0
:10A050008DF80D1003AA022140F2162003F056FAE3
:10A0600030B96A460C2140F6C12003F04FFA10B116
:10A07000284605B030BD054884810020F9E700007E
:10A08000FEF2ABC4AAF1DFDFBBAFDFDFA821012006
:10A090004FF47A7290FBF2F008B54843010E8DF848
:10A0A0000010010C8DF80110010A8DF802108DF8D6
:10A0B00003006A4604214FF4AE7003F027FA08BD8E
:10A0C0000521B0FBF1F008B5010A8DF800108DF8FC
:10A0D00001006A4602214FF4AD7003F017FA08BD83
:10A0E0000521B0FBF1F008B5010A8DF800108DF8DC
:10A0F00001006A4602214FF4AC7003F007FA08BD74
:10A1000008B500218DF80010C10702D030218DF86C
:10A110000010810705D59DF8001041F00C018DF865
:10A120000010400705D59DF8000040F003008DF8B1
:10A1300000006A4601214FF4A47003F0E7F908BD5E
:10A1400008B560B1042800D90420401E8DF8000035
:10A150006A46012140F24F1003F0D8F908BD0120F2
:10A16000F3E7000070B504462DED028B82B0400786
:10A170004FF0FF357ED0B1F5C86F7BD800EE101AD6
:10A18000B8EE400ADFED460A01A880EE208A02F010
:10A1900071FB9DF80400022806D0042810D008287E
:10A1A00035D0102874D13EE09FED3E0A28EE000A1B
:10A1B000BCEEC00A10EE100A9FED3B0A82B20AE024
:10A1C0009FED3A0A28EE000ABCEEC00A10EE100A13
:10A1D0009FED370A82B228EE000A6E46BCEEC00A36
:10A1E00010EE100A81B2100A8DF800008DF80120DF
:10A1F000080A8DF802008DF80310E00726D03246D9
:10A2000002214FF4EA7003F081F998BB17E09FED4B
:10A21000290A28EE000ABCEEC00A10EE100A9FEDD3
:10A22000260A82B2D7E79FED250A28EE000ABCEE87
:10A23000C00A10EE100A9FED220A82B2CBE7B21CD0
:10A2400002214FF4927003F061F998B9A0070DD57F
:10A250006A4602214FF4EC7003F058F950B9B21C71
:10A2600002214FF4947003F051F918B9600714D526
:10A270006A4600E00CE002214FF4EE7003F046F96C
:10A2800030B9B21C02214FF4967003F03FF920B1AF
:10A29000284602B0BDEC028B70BD0020F9E700003B
:10A2A0000000484300008046000040460000004691
:10A2B0000000C0450000804500004045000000450A
:10A2C0000000C0440521B0FBF1F008B5010A8DF88B
:10A2D00000108DF801006A4602214FF4EF7003F080
:10A2E00015F908BD0521B0FBF1F008B5010A8DF89C
:10A2F00000108DF801006A4602214FF4ED7003F062
:10A3000005F908BD10B50021024803F063FA80F397
:10A31000100010BD181F01200E4910B50A784C78A6
:10A320000023A24212D0521CD2B20A70022A00D1DB
:10A330000B70084A0B780C3252F8232002608868B0
:10A34000104420F07F408860012010BD0360002091
:10A3500010BD0000D00C012070B50D46C1780C4A2C
:10A36000091D0C4C51800178217041786170817811
:10A37000A170C178E170C27822B1416811B1201D8D
:10A38000FCF782F80248801CC5E9020470BD000099
:10A39000BC0D01208C22012013460A460021FFF744
:10A3A0003BBA00002DE9F843104D0F4680461E468B
:10A3B00091466946286803F068F9040014D01C210E
:10A3C000FCF77BF801202071C4F81490380BC4F816
:10A3D0000080C4E902606946286803F077F906F056
:10A3E00051FF0020BDE8F8830420FBE7C0430300D1
:10A3F00070B50F4C0025E57460680103284605F030
:10A4000009F820B10B4A40F2C911FBF767FFE07C65
:10A410000028FCD0E574084808496268401AC00862
:10A42000BDE87040042101EB004005A104F062B9D1
:10A43000D442012054190300946A03008C6903007C
:10A44000426C6F636B202564204572617365204305
:10A450006F6D706C6574652E0000000010B5037898
:10A460000022072B06D2DFE803F00504061020299E
:10A4700030000A7010BD01230B7003898B81838823
:10A48000CB81C06888600A7410BD02220A700289FC
:10A490008A818288CA81C2688A60807D062802D04B
:10A4A0000020087410BD0120FBE703220A70C28857
:10A4B0008A810289CA81C068886010BD04230B703C
:10A4C000C0888881CA818A6010BD0520087010BDCF
:10A4D00070B5064D0646002455F8241009B13046E3
:10A4E0008847641C042CF7D370BD0000D4170120EA
:10A4F00030B50446006887B00D46806800281FD03C
:10A5000018216846FBF7D9FF0195A06805902079CE
:10A5100010B1012810D107E001208DF8000020695A
:10A520000290E068039005E002208DF80000E068EA
:10A53000000302906069049020688168684688473B
:10A5400007B030BD2DE9F04186B016460C008046BC
:10A5500029D0112C27D0082C25D018216846FBF7CC
:10A56000ACFFADF80280404601F08CF9ADF8040074
:10A570001B481C490027401AC5080D2C16D0204640
:10A5800004F034FD0246012000EB05404346164925
:10A5900004F0B7F807208DF8000002948DF80C70D5
:10A5A000684600F057F806B0BDE8F081022000EBE5
:10A5B000054042460D4904F09DF803208DF8000047
:10A5C00026B13078C00701D0012000E002208DF8CC
:10A5D000080041F201108DF80C70ADF80A00DFE7B9
:10A5E000D46903008C69030098600300885F03004E
:10A5F00010B50446408801F045F9A0800248016882
:10A600002046BDE810400847DC0B01202DE9F04151
:10A6100007460024064E074D05E000BF56F82410FB
:10A6200038468847641CE8788442F7DBBDE8F0814F
:10A630008C140120000C012010B50446408801F064
:10A6400021F9A080024801682046BDE81040084773
:10A650004C4203000149096808470000D842030042
:10A6600070B586B0044618216846FBF726FFA0891E
:10A670000125A0F54040ADF804002078324E0628B0
:10A6800035D2DFE800F0340303032E4EA08900F03A
:10A690008BF930B9E08943F6FE71A0F5404088425D
:10A6A00025D8A07B8DF808002078032811D0002041
:10A6B0008DF80900A0680390606860B109208DF8EA
:10A6C0000000606804908DF81450684605F0E4FDC1
:10A6D0000DE00120ECE708208DF800008DF8105007
:10A6E000F3E7A08900F060F908B1E08930B1707833
:10A6F000002801D005F01AFF06B070BD606840B1B7
:10A700000B208DF80000606802908DF80C50757079
:10A71000DBE70A208DF80000BDF8040005F0A4FF77
:10A72000F5E7606858B114208DF800006068029069
:10A730008DF80C504FF6FF70ADF80400C5E71320FC
:10A740008DF80000F6E70000EC0B012038B5044658
:10A750000E480078A8B1A4F57F40FF380FD06846B6
:10A7600006F0C2FC78B10521017001210171C4809D
:10A77000684606F0C7FC06F077FD002038BD0420CF
:10A7800038BD022038BD082038BD0000040D01206E
:10A790000C4808B5007888B1684606F0A5FC78B189
:10A7A00006210170684606F0ADFC0748017809B142
:10A7B0000121017306F058FD002008BD022008BDEC
:10A7C000082008BD040D012098180120F0B587B0BD
:10A7D00014216846FBF771FE2B4C207818B16846AF
:10A7E000FFF776FE4EE0201D02F0D6FFB8BB4FF01B
:10A7F000102041690004026940694B1C01D100FB33
:10A8000002F1224800220161A1F54051C1602049B6
:10A8100003F0FCFA002820D11F481C238C221D497C
:10A82000006802F01FFF05F0C9FA051E14D00228C7
:10A8300012D000270126062D12D005A806F054FCE0
:10A8400088B106700C2D18D2DFE805F0170F170F2E
:10A8500017161716171113110B2007B0F0BD11E0D2
:10A8600026706760BBE70820F7E7077105E0032162
:10A8700000E00221017100E0067105A806F042FC2B
:10A8800006F0F2FC0020E8E7040D0120DC0D0120B9
:10A89000D0430300E41701203843030038B5040017
:10A8A00014D0694606F0EEFDA0B1BDF8000000EB43
:10A8B0008001094800EB8100C16849B1A17A39B132
:10A8C000C168491EC1600020A07238BD052038BD96
:10A8D000062038BD0A2038BD701801201FB501A917
:10A8E000684606F08BFD04B010BD07B513460A4656
:10A8F0006946002006F082FD0EBD07B513460A46E4
:10A900000021684606F07AFD0EBD20B119B100683D
:10A91000086000207047052070470000F8B50D461C
:10A92000040018D0BDB1694606F0ACFDA8B1BDF871
:10A9300000000B4900EB800001EB800001210C308E
:10A94000666802F02CFF2E6060680C3068600120A1
:10A95000A0720020F8BD0520F8BD0A20F8BD000057
:10A960007018012018B10323002209F04DBA052008
:10A9700070470223002209F047BA0000084910B5C9
:10A980000A69042A0AD0074A096942F821000448E2
:10A990000121103002F003FF002010BD0C2010BD7B
:10A9A000E40C0120D417012043F6FE71A0F54040CD
:10A9B000884201D8012070470020704710B5044636
:10A9C0000078182802D1FDF785FA207010BD10B567
:10A9D00004460078182802D1FDF77CFA207010BDDB
:10A9E00070B50D460446B0F83812D0F83402012292
:10A9F000FCF7B5FF00B1057004F13C0204F50D71E0
:10AA000004F1540072DF70BD70B513460022054694
:10AA1000112900D10122074C33B12179FDF77EFACB
:10AA200000226178284600E06178BDE87040FDF7BB
:10AA300075BA0000180C0120F7B517460E0011D0AA
:10AA40000098002560B100242146684602F089FE86
:10AA500018B1A0B23946B0476D1C641C142CF3D356
:10AA60002846FEBD0020FEBD10B5002821D0114BA8
:10AA70000022001F196803E0814203D80A46496892
:10AA80000029F9D152B11368841A9C4204D100689C
:10AA900018441060104602E0506000E0186039B1C0
:10AAA00002680B1A934203D10B681A44026049688A
:10AAB000416010BDD40D0120406806F035BB000098
:10AAC0000EB51AA19DF8080020F00F00401C20F0E0
:10AAD000F00010308DF808000B2202A87CDF20B1B6
:10AAE000154A4FF48D71FBF7F9FB40F2413078DFE6
:10AAF00020B1114A40F21D11FBF7F0FB002000903D
:10AB00000190ADF8040008214FF44860ADF8001042
:10AB1000ADF80600ADF8021068467ADF002804D0D0
:10AB2000054A40F22711FBF7D9FB0EBD534453559C
:10AB30005F4D4F54494F4E00A46D020010B5088878
:10AB40000C46A0F5206177390BD109480949A38843
:10AB5000401AC008032101EB0040628806A103F0FF
:10AB6000D0FD2146BDE810400F48FEF72FB8000089
:10AB70008C6903008C6903004741545420415454AC
:10AB8000204D5455206F6E20636F6E6E656374693F
:10AB90006F6E2030782578206368616E6765642069
:10ABA000746F2025642E0000100E012070B508B1CE
:10ABB000012070BD1B4C0025207B08B1257301E0EE
:10ABC00000F0A4F8207808282AD2DFE800F0290451
:10ABD000080C10291422BDE8704000F025B8BDE82B
:10ABE000704000F081B8BDE8704000F063B8BDE887
:10ABF000704000F03FB8062020706088094900EBE3
:10AC00008000283901EB80004068BDE8704005F005
:10AC1000B5B8072020706560BDE8704005F0BCB88D
:10AC20000F2070BD981801201149F0B48A1C002033
:10AC30000346A1F128050C18A67A4EB1A37200EBC9
:10AC4000800405EB8404E66816B9247C012C0AD044
:10AC5000401C80B20228EED30B704B804B60F0BCDE
:10AC600041F61D5070471080F0BC00F03DB8000068
:10AC7000981801200C48418801EB8102A0F12801BD
:10AC800001EB8201CA6852B1052101700748022117
:10AC90008180016800230122054803F01BB80422CB
:10ACA00002704968F6E70000981801200C0D012099
:10ACB000DC0D012038B50A49084803240B684268B6
:10ACC000898803EB810153880470DB1C00201B047E
:10ACD00000909B0B034803F051F938BD98180120F0
:10ACE0000C0D0120DC0D0120074910B54888091D15
:10ACF00006F018FC18B1BDE81040FFF7DBBFBDE857
:10AD00001040FFF7B7BF000098180120F0B51F48AA
:10AD10001F490125067802248B88A0F12802082EFD
:10AD200019D2DFE806F00418181B222F2F1701890B
:10AD3000491C01810021418080F80C1001EB810346
:10AD400012F8233043B100234418491C89B2A3727E
:10AD50000229F3D30570F0BD0123F5E7426852885C
:10AD6000D21C1A448A800470F0BD46880D6806EB38
:10AD7000860602EB860256680E60556013818C8051
:10AD8000062100E007210170F0BD000098180120A5
:10AD90000C0D01202DE9F041044680882188394EB0
:10ADA00086B00746352937D0502923D0522902D002
:10ADB00054295DD102E001F07DF859E018223249B2
:10ADC0006846FBF761FBADF80270384600F05AFDAB
:10ADD000ADF8040000F0C8FA002231793846FDF7DA
:10ADE0009DF80022F1783846FDF798F86846FFF79D
:10ADF000FFFB3DE0207B01283AD1A07A012837D122
:10AE00002089A0F52451023932D10121384601F0C0
:10AE1000A5F808F07DFD2BE04FF00008424671795F
:10AE2000FDF77CF8E288B2F5857F1DD017481849F8
:10AE3000401AC008022101EB004512B1284615A1B5
:10AE40000BE06289012A03D0284621A103F052FCBD
:10AE5000A289012A04D028462CA103F04BFC03E070
:10AE6000A07B00B1012080464146384608F0C0F87A
:10AE700000223549B078FDF705F806B0BDE8F0418D
:10AE800007F03CBBD40B0120A441030094690300EC
:10AE90008C690300556E657870656374656420473E
:10AEA00041545420737461747573207768696C65BC
:10AEB0002067657474696E6720434152206368613E
:10AEC000722076616C75653A203078257800000034
:10AED0004D756C7469706C65202825642920434188
:10AEE0005220636861726163746572697374696327
:10AEF0007320666F756E642C207573696E6720749D
:10AF000068652066697273742E000000556E65785E
:10AF100070656374656420434152206368617261A7
:10AF20006374657269737469632076616C756520FA
:10AF30006C656E67746820282564292C2073746FF3
:10AF4000726520302E0000007572020070B5044654
:10AF50000078002814D1608800F0ACFF658828468E
:10AF600000F0D2FA28B107480122C1782846FCF740
:10AF7000D5FF6088FEF764F9BDE8704008F0C8BCF2
:10AF800070BD0000D40B012070B51A4C002525704F
:10AF9000FCF7A0FF6070FCF79DFFA070FCF79AFF24
:10AFA000E070FCF797FF2071FCF794FF6071627806
:10AFB0000121182A12D0A278182A0FD0E278182A74
:10AFC0000CD02279182A09D0182807D004F10C00D7
:10AFD0000560BFF35F8F2170002070BD0648074AEF
:10AFE000801AC00801EB0040054903F07FFB0320F5
:10AFF00070BD0000D40B0120946903008C6903002C
:10B00000245603002DE9F0418CB000F0C5F96846E4
:10B01000FCF722FF00246D464FF6FF77DFF83480FF
:10B020000FE000BF05EB4406B08800F02BFCB842EF
:10B0300005D1B088012298F80310FCF76FFF641C5B
:10B04000A4B20098A042EDD807F058FA0CB0BDE8C1
:10B05000F0810000D40B01207CB50446007808285C
:10B0600037D1607A58BB207A1C4E4FF6FF75012805
:10B0700011D0072802D008282BD121E0A08800F0A9
:10B080004BFB0446A84224D0012100F067FF204674
:10B09000FEF7D6F81DE0A0886A46012105F01EF8EB
:10B0A00068B90198007850B1A08800F035FBA8423B
:10B0B0000FD00122F178FCF731FF07F01FFA08E00A
:10B0C000F068012805D1BFF35F8F044900200C31DF
:10B0D0000860BDE87C4008F01BBC0000D40B0120D8
:10B0E000F8B5044690F83000504D40F0200084F848
:10B0F0003000D5E90210C0F580524D484D4BA5F502
:10B100008057C01AC008032303EB0046914220D9A0
:10B11000042101EB004048A103F0E8FA00F0E2FB53
:10B1200006F0DEF8A868C119801C0988ADF8001087
:10B13000A86088B2A0F52A41AA3907D006F034FCED
:10B1400000212A68052090470520F8BD01202874B9
:10B1500001E0287C88B1A868C119001D0A686260F6
:10B16000A86094F8300038A140F0080084F830005E
:10B1700000202874304603F0BDFA697C04F12000F9
:10B1800021B1012912D002293DD13EE0A968102247
:10B190003944FBF779F9A86832A11030A86014F897
:10B1A000300F40F00100207030462AE0A9681022DC
:10B1B0003944FBF769F9A86814F8301F103041F0E2
:10B1C000010104F81E19C219801D136823609288BA
:10B1D000A280C219801D136844F8063C928824F8A6
:10B1E000022C41F00201C219A1771368C4F806309D
:10B1F00092886281801DA86041F00400A0773046EB
:10B2000020A103F073FA0020F8BDA868C119801DC1
:10B210000A6844F8182F8988A180A860207E22A19E
:10B2200040F0040020763046EBE70000D4420120D5
:10B23000946A03008C690300456E64206F66206287
:10B2400075666665722E000053747265616D696E75
:10B25000672054696D657374616D703A20256420B0
:10B260006D732E0053747265616D696E6720517540
:10B27000617465726E696F6E2053616D706C652EBE
:10B280000000000053747265616D696E672051752E
:10B2900061742F494D552F436F6D70617373205347
:10B2A000616D706C652E000053747265616D696E1E
:10B2B0006720436F6D706173732053616D706C65AF
:10B2C0002E0000000549064BCA799A5C0270CA79C3
:10B2D00042700A7982704979C170704780220120DA
:10B2E0007C5403002DE9F0418046024601200021F4
:10B2F000FBF7B7F81A4F05460E467868FBF76CFF68
:10B3000000280CD1174CD4E9062110462A4001EA46
:10B3100006031A4305D0A843B143C4E90601BDE8BA
:10B32000F081404603F07CFF30B1D4E904012843AA
:10B330003143C4E9040105E0D4E90410A943B04352
:10B34000C4E90410D4E9060128433143C4E90601E5
:10B35000A1687868BDE8F0410022FBF7F9BE000063
:10B3600020430300A00C01201CB5054AD2E90212BB
:10B37000CDE900120022694605F076F81CBD0000F8
:10B38000C041030003484FF6FF7181800121017025
:10B3900000207047E40B012010B54FF6FF7004F059
:10B3A000F3FF03498880BDE8104007F0B1B8000002
:10B3B000E40B01202DE9FC41804600F063FA0024F3
:10B3C00003250127A0F57F412646FF3908D06A46AC
:10B3D000082104F083FE18B90198841D8688056849
:10B3E00032462B4621464046B1DF042804D00828C7
:10B3F00004D00B2808D002E0112000E00020002F2C
:10B4000000D10B20BDE8FC810027A80701D501254C
:10B41000E6E7344303D0002426460325E0E7064848
:10B4200006494246401AC008012101EB0040044988
:10B4300003F060F9E5E700009C6903008C690300F4
:10B44000945803002DE9FC41804600F01BFAA0F55A
:10B450007F410646FF390ED001252A466D1C002784
:10B46000ADB26B460821304604F082FE040006D0DF
:10B47000072C33D033E043F20200BDE8FC81019990
:10B4800003230A1D0B604046891DB2DF040004D06F
:10B490000C2C09D0052C09D009E0324608211046B1
:10B4A00004F0DEFE04461AE0012700E00024082133
:10B4B000304604F0CBFE70B103F098FD0346094816
:10B4C00009493246401AC008012101EB00400749F2
:10B4D00003F017F90324002FBFD100E00C2420460D
:10B4E000CBE700009C6903008C690300145803003B
:10B4F00004488088A0F57F41FF3901D007F008B8E3
:10B5000070470000E40B01200EB502A9019100F084
:10B51000B9F96A46012104F0E1FD08B100200EBD31
:10B52000019800780EBD00002DE9F04107464FF666
:10B53000FF761048B3DF78B103F058FD02460E489D
:10B540000E49401AC008012101EB00400C4903F0EC
:10B55000D1F80320BDE8F081064C43F20305A41E98
:10B56000324661883846AFDFA842F3D16088401C7C
:10B570006080F5E7E60B01209C6903008C690300FD
:10B58000C8570300428800EB82020C328A4201D97C
:10B59000022070478188A1F57F42FF3A03D00088DE
:10B5A00008B10020704701207047884204D200682B
:10B5B000401C01D001207047002070473EB5027842
:10B5C00002230C46B3EB520F17D1B0F80110ADF8BF
:10B5D0000010C1788DF802108188ADF804108079D0
:10B5E0008DF8060002AA01A92046FBF7E5FB03221D
:10B5F00002A96846FAF773FF08B100203EBD01209A
:10B600003EBD000070B50D460446142810D2FCF76C
:10B61000A5FC68B1084904EB840001EB4000D0F8B8
:10B6200002102960C188A980007AA871002070BD2D
:10B6300043F2020070BD0000F411012070B50188D2
:10B6400092B0102961D1011D2C226846FAF71CFF27
:10B650009DF804004FF6FF7603213446B1EB500FFE
:10B660002BD004F0BFFE9DF804006D4640080ED0BC
:10B6700001280CD0022820D118E00D99281D113185
:10B68000FBF7EEFA18B100BFBDF82C4015E00CAA8C
:10B690000BA9072004F07AFE0028EED10DE00D99E9
:10B6A000281D491CFFF78AFF0028EDD10CAA0BA921
:10B6B000072004F06BFE0028F1D1BDF80000B44271
:10B6C00000EB8001124820F8114000EB4100019985
:10B6D000C0F80210BDF80810C1809DF80A10017270
:10B6E00013D0BDF80000ADF82E000020ADF83040BA
:10B6F000084E8DF82C000BAD044600BF56F8241000
:10B7000028468847641C022CF8D312B070BD000094
:10B71000F4110120D44103002DE9F0414FF6FF76EA
:10B720000546B04213D00B4F002400BF04EB840049
:10B7300037F81000A84206D12046FCF70FFC10B1E4
:10B740002046BDE8F081641CA4B2142CEED3304630
:10B75000F7E70000F41101203EB50C46054604F061
:10B7600041FE0BE0BDF80000A04207D02846029938
:10B7700000F00EF810B1BDF800003EBD01AA694608
:10B78000072004F003FE0028ECD14FF6FF703EBD09
:10B790002DE9F0410C46054600F1110701F11106B3
:10B7A0001022491C401CFAF79AFE48B9681C00F0A8
:10B7B0002BFA28B1601C00F027FA08B1012400E040
:10B7C000002431463846FBF74BFA3B780222B2EBB5
:10B7D000530F0CD00321B1EB530F08D03378B2EBE9
:10B7E000530F04D0B1EB530F01D0012100E0002131
:10B7F000084201D18C4302D00120BDE8F081002035
:10B80000FBE7018811B9421892780AB1012070470C
:10B81000491C0829F7D30020704710B50C46034691
:10B82000FFF7EFFF00280AD018882188884205D149
:10B830000822A11C981CFAF752FE08B1002010BD86
:10B84000012010BD142804D2024A00EB800022F827
:10B8500010107047F411012070B50546FFF75CFF2A
:10B860000446284604F03EFC002808D1142C06D2D9
:10B87000034B04EB84024FF6FF7123F8121070BDE6
:10B88000F411012010B50446142808D2FCF766FB19
:10B8900028B1044904EB840031F8100010BD4FF6C4
:10B8A000FF7010BDF41101203EB5044604F09AFD6E
:10B8B0000EE0019920464631FFF7AFFF28B9019904
:10B8C00020462A31FFF7A9FF10B1BDF808003EBDA0
:10B8D0006A4602A9072004F059FD0028E9D14FF675
:10B8E000FF703EBD144810B541680022491CC0E9F4
:10B8F0000112B1F5804F1DD9817C01290ED0807CC9
:10B90000022813D00D480E49BDE81040401AC00867
:10B91000012101EB00400BA102F0E8BE002102680A
:10B9200001209047BDE8104006F02EB8BDE8104059
:10B9300006F03AB810BD0000D4420120946A03001A
:10B940008C690300556E6578706563746564205278
:10B950006573756C7400000010B50A4941600A48AF
:10B9600001F01AFF58B903F0A9FA07491C238C22E9
:10B97000087404488C39001F006801F073FE002031
:10B9800010BD0000C4430300441901202DE9F0411B
:10B990002D4F002518B17D600120BDE8F0810879A8
:10B9A000012258B1294E01280CD0274C4FF0020833
:10B9B0000834022821D0032842D128E00A7104F07B
:10B9C000EBF93BE05FF0000000EB800116F821107E
:10B9D000022908D0401C80B20228F5D33A707D605D
:10B9E00041F61D50D9E700EB800006F8205006EB29
:10B9F0008000406804F0C2F920E00D71A4F80480D2
:10BA0000002301221248216802F064F916E00D714A
:10BA1000206804F0B3F90D4923682831498801EB07
:10BA2000810206EB8201D1F804C0C4F800C04B606B
:10BA3000A3880B81A4F8048006F822500028ACD01B
:10BA40007D600E20A9E70000040D01207018012080
:10BA5000DC0D012038B54AF6AA20ADF800004FF4FD
:10BA600080510F48FAF729FD0E4C0020A060FEF728
:10BA7000BFFC0B49A068BDF800200144801C0A806F
:10BA8000A0600120207408480849BDE83840401AE9
:10BA9000C008042101EB004005A102F027BE000010
:10BAA000D4220120D4420120946A03008C6903004F
:10BAB000426C6F636B20496E697469616C697A6569
:10BAC000640000000146034802888A4200D000203A
:10BAD000704700004C1101202DE9FC5F0E008346E9
